{
    "contractName": "ABAC_Access_Control",
    "abi": [
        {
            "inputs": [],
            "stateMutability": "nonpayable",
            "type": "constructor"
        },
        {
            "anonymous": false,
            "inputs": [
                {
                    "indexed": false,
                    "internalType": "address",
                    "name": "_contract",
                    "type": "address"
                },
                {
                    "indexed": false,
                    "internalType": "address",
                    "name": "_contract_address",
                    "type": "address"
                }
            ],
            "name": "addressSetted",
            "type": "event"
        },
        {
            "anonymous": false,
            "inputs": [
                {
                    "components": [
                        {
                            "internalType": "uint256",
                            "name": "uuid",
                            "type": "uint256"
                        },
                        {
                            "internalType": "string",
                            "name": "access_type",
                            "type": "string"
                        },
                        {
                            "internalType": "bool",
                            "name": "attr1",
                            "type": "bool"
                        },
                        {
                            "internalType": "bool",
                            "name": "attr2",
                            "type": "bool"
                        },
                        {
                            "internalType": "bool",
                            "name": "attr3",
                            "type": "bool"
                        },
                        {
                            "internalType": "bool",
                            "name": "attr4",
                            "type": "bool"
                        },
                        {
                            "internalType": "bool",
                            "name": "attr5",
                            "type": "bool"
                        },
                        {
                            "internalType": "bool",
                            "name": "attr6",
                            "type": "bool"
                        },
                        {
                            "internalType": "bool",
                            "name": "attr7",
                            "type": "bool"
                        },
                        {
                            "internalType": "bool",
                            "name": "attr8",
                            "type": "bool"
                        }
                    ],
                    "indexed": false,
                    "internalType": "struct ABAC_Policies.Policy",
                    "name": "_policy",
                    "type": "tuple"
                },
                {
                    "indexed": false,
                    "internalType": "uint8[]",
                    "name": "_attributes",
                    "type": "uint8[]"
                }
            ],
            "name": "attrsComplyingWithPolicy",
            "type": "event"
        },
        {
            "anonymous": false,
            "inputs": [
                {
                    "components": [
                        {
                            "internalType": "uint256",
                            "name": "uuid",
                            "type": "uint256"
                        },
                        {
                            "internalType": "string",
                            "name": "access_type",
                            "type": "string"
                        },
                        {
                            "internalType": "bool",
                            "name": "attr1",
                            "type": "bool"
                        },
                        {
                            "internalType": "bool",
                            "name": "attr2",
                            "type": "bool"
                        },
                        {
                            "internalType": "bool",
                            "name": "attr3",
                            "type": "bool"
                        },
                        {
                            "internalType": "bool",
                            "name": "attr4",
                            "type": "bool"
                        },
                        {
                            "internalType": "bool",
                            "name": "attr5",
                            "type": "bool"
                        },
                        {
                            "internalType": "bool",
                            "name": "attr6",
                            "type": "bool"
                        },
                        {
                            "internalType": "bool",
                            "name": "attr7",
                            "type": "bool"
                        },
                        {
                            "internalType": "bool",
                            "name": "attr8",
                            "type": "bool"
                        }
                    ],
                    "indexed": false,
                    "internalType": "struct ABAC_Policies.Policy",
                    "name": "_policy",
                    "type": "tuple"
                },
                {
                    "indexed": false,
                    "internalType": "uint8[]",
                    "name": "_attributes",
                    "type": "uint8[]"
                }
            ],
            "name": "attrsNotComplyingWithPolicy",
            "type": "event"
        },
        {
            "anonymous": false,
            "inputs": [
                {
                    "indexed": false,
                    "internalType": "uint8[]",
                    "name": "_attributes",
                    "type": "uint8[]"
                },
                {
                    "indexed": false,
                    "internalType": "string",
                    "name": "_public_key",
                    "type": "string"
                },
                {
                    "indexed": false,
                    "internalType": "bytes32",
                    "name": "_hash",
                    "type": "bytes32"
                }
            ],
            "name": "invalidHashComparison",
            "type": "event"
        },
        {
            "anonymous": false,
            "inputs": [
                {
                    "indexed": false,
                    "internalType": "address",
                    "name": "_org_address",
                    "type": "address"
                },
                {
                    "indexed": false,
                    "internalType": "bytes",
                    "name": "_signed_message",
                    "type": "bytes"
                }
            ],
            "name": "invalidOrganisationSignature",
            "type": "event"
        },
        {
            "anonymous": false,
            "inputs": [
                {
                    "indexed": false,
                    "internalType": "uint8[]",
                    "name": "_attributes",
                    "type": "uint8[]"
                },
                {
                    "indexed": false,
                    "internalType": "string",
                    "name": "_public_key",
                    "type": "string"
                },
                {
                    "indexed": false,
                    "internalType": "bytes32",
                    "name": "_hash",
                    "type": "bytes32"
                }
            ],
            "name": "validHashComparison",
            "type": "event"
        },
        {
            "anonymous": false,
            "inputs": [
                {
                    "indexed": false,
                    "internalType": "address",
                    "name": "_org_address",
                    "type": "address"
                },
                {
                    "indexed": false,
                    "internalType": "bytes",
                    "name": "_signed_message",
                    "type": "bytes"
                }
            ],
            "name": "validOrganisationSignature",
            "type": "event"
        },
        {
            "inputs": [
                {
                    "internalType": "string",
                    "name": "_access_type",
                    "type": "string"
                }
            ],
            "name": "loadPolicy",
            "outputs": [
                {
                    "components": [
                        {
                            "internalType": "uint256",
                            "name": "uuid",
                            "type": "uint256"
                        },
                        {
                            "internalType": "string",
                            "name": "access_type",
                            "type": "string"
                        },
                        {
                            "internalType": "bool",
                            "name": "attr1",
                            "type": "bool"
                        },
                        {
                            "internalType": "bool",
                            "name": "attr2",
                            "type": "bool"
                        },
                        {
                            "internalType": "bool",
                            "name": "attr3",
                            "type": "bool"
                        },
                        {
                            "internalType": "bool",
                            "name": "attr4",
                            "type": "bool"
                        },
                        {
                            "internalType": "bool",
                            "name": "attr5",
                            "type": "bool"
                        },
                        {
                            "internalType": "bool",
                            "name": "attr6",
                            "type": "bool"
                        },
                        {
                            "internalType": "bool",
                            "name": "attr7",
                            "type": "bool"
                        },
                        {
                            "internalType": "bool",
                            "name": "attr8",
                            "type": "bool"
                        }
                    ],
                    "internalType": "struct ABAC_Policies.Policy",
                    "name": "",
                    "type": "tuple"
                }
            ],
            "stateMutability": "nonpayable",
            "type": "function"
        },
        {
            "inputs": [
                {
                    "internalType": "address",
                    "name": "_signer_address",
                    "type": "address"
                },
                {
                    "internalType": "bytes",
                    "name": "_signed_token",
                    "type": "bytes"
                }
            ],
            "name": "orgSignValidated",
            "outputs": [
                {
                    "internalType": "bool",
                    "name": "",
                    "type": "bool"
                }
            ],
            "stateMutability": "nonpayable",
            "type": "function"
        },
        {
            "inputs": [
                {
                    "components": [
                        {
                            "internalType": "uint256",
                            "name": "uuid",
                            "type": "uint256"
                        },
                        {
                            "internalType": "string",
                            "name": "access_type",
                            "type": "string"
                        },
                        {
                            "internalType": "bool",
                            "name": "attr1",
                            "type": "bool"
                        },
                        {
                            "internalType": "bool",
                            "name": "attr2",
                            "type": "bool"
                        },
                        {
                            "internalType": "bool",
                            "name": "attr3",
                            "type": "bool"
                        },
                        {
                            "internalType": "bool",
                            "name": "attr4",
                            "type": "bool"
                        },
                        {
                            "internalType": "bool",
                            "name": "attr5",
                            "type": "bool"
                        },
                        {
                            "internalType": "bool",
                            "name": "attr6",
                            "type": "bool"
                        },
                        {
                            "internalType": "bool",
                            "name": "attr7",
                            "type": "bool"
                        },
                        {
                            "internalType": "bool",
                            "name": "attr8",
                            "type": "bool"
                        }
                    ],
                    "internalType": "struct ABAC_Policies.Policy",
                    "name": "loaded_policy",
                    "type": "tuple"
                },
                {
                    "internalType": "uint8[]",
                    "name": "_attrs",
                    "type": "uint8[]"
                }
            ],
            "name": "policyCompliant",
            "outputs": [
                {
                    "internalType": "bool",
                    "name": "",
                    "type": "bool"
                }
            ],
            "stateMutability": "nonpayable",
            "type": "function"
        },
        {
            "inputs": [
                {
                    "internalType": "string",
                    "name": "_access_type",
                    "type": "string"
                },
                {
                    "internalType": "string",
                    "name": "_public_key",
                    "type": "string"
                },
                {
                    "internalType": "uint256",
                    "name": "_patient_uuid",
                    "type": "uint256"
                },
                {
                    "internalType": "string[]",
                    "name": "_actions",
                    "type": "string[]"
                },
                {
                    "internalType": "uint8[]",
                    "name": "_attributes",
                    "type": "uint8[]"
                }
            ],
            "name": "requestAccess",
            "outputs": [],
            "stateMutability": "nonpayable",
            "type": "function"
        },
        {
            "inputs": [
                {
                    "internalType": "address",
                    "name": "_address",
                    "type": "address"
                }
            ],
            "name": "setABACPoliciesAddr",
            "outputs": [],
            "stateMutability": "nonpayable",
            "type": "function"
        },
        {
            "inputs": [
                {
                    "internalType": "address",
                    "name": "_address",
                    "type": "address"
                }
            ],
            "name": "setAddressPubKeyMappingAddr",
            "outputs": [],
            "stateMutability": "nonpayable",
            "type": "function"
        },
        {
            "inputs": [
                {
                    "internalType": "address",
                    "name": "_address",
                    "type": "address"
                }
            ],
            "name": "setCloudAccessesAddr",
            "outputs": [],
            "stateMutability": "nonpayable",
            "type": "function"
        },
        {
            "inputs": [
                {
                    "internalType": "address",
                    "name": "_address",
                    "type": "address"
                }
            ],
            "name": "setEmergencyAttributesAddr",
            "outputs": [],
            "stateMutability": "nonpayable",
            "type": "function"
        },
        {
            "inputs": [
                {
                    "internalType": "bytes32",
                    "name": "_hashed_token",
                    "type": "bytes32"
                },
                {
                    "internalType": "uint8[]",
                    "name": "_attr",
                    "type": "uint8[]"
                },
                {
                    "internalType": "string",
                    "name": "_public_key",
                    "type": "string"
                }
            ],
            "name": "signatureAndProfessionalVerification",
            "outputs": [
                {
                    "internalType": "bool",
                    "name": "",
                    "type": "bool"
                }
            ],
            "stateMutability": "nonpayable",
            "type": "function"
        },
        {
            "inputs": [
                {
                    "internalType": "string",
                    "name": "_access_type",
                    "type": "string"
                },
                {
                    "internalType": "uint256",
                    "name": "_patient_uuid",
                    "type": "uint256"
                },
                {
                    "internalType": "string[]",
                    "name": "_actions",
                    "type": "string[]"
                },
                {
                    "internalType": "bytes32",
                    "name": "_hashed_token",
                    "type": "bytes32"
                },
                {
                    "internalType": "bytes",
                    "name": "_signed_token",
                    "type": "bytes"
                },
                {
                    "internalType": "uint8[]",
                    "name": "attributes",
                    "type": "uint8[]"
                }
            ],
            "name": "startSmartContract",
            "outputs": [],
            "stateMutability": "nonpayable",
            "type": "function"
        },
        {
            "inputs": [
                {
                    "internalType": "address",
                    "name": "_address",
                    "type": "address"
                }
            ],
            "name": "toBytes",
            "outputs": [
                {
                    "internalType": "bytes",
                    "name": "",
                    "type": "bytes"
                }
            ],
            "stateMutability": "pure",
            "type": "function"
        }
    ],
    "bytecode": "608060405234801561001057600080fd5b50600a80546001600160a01b0319163317905560096020527f92e85d02570a8092d09a6e3a57665bc3815a2699a4074001bf1ccabf660f5a36805460ff19908116600117909155600080527fec8156718a8372b1db44bb411437d0870f3e3790d4a08526d024ce1b0b668f6b805490911690556114ed806100926000396000f3fe608060405234801561001057600080fd5b50600436106100a95760003560e01c80636943aa9e116100715780636943aa9e146101a05780637bda696b146101b35780637c0fd63c146101c657806394980630146101f657806395dd06e214610209578063f73a20061461022957600080fd5b80631f7ca52a146100ae5780632723af35146100c357806330304e6d146100f3578063593b79fe1461012357806363b652891461017d575b600080fd5b6100c16100bc366004610e3e565b610259565b005b6100c16100d1366004610c2f565b600580546001600160a01b0319166001600160a01b0392909216919091179055565b6100c1610101366004610c2f565b600480546001600160a01b0319166001600160a01b0392909216919091179055565b610167610131366004610c2f565b604051606082811b6bffffffffffffffffffffffff19166020830152906034016040516020818303038152906040529050919050565b60405161017491906112ce565b60405180910390f35b61019061018b366004610c4a565b6103d5565b6040519015158152602001610174565b6100c16101ae366004610d88565b6104f1565b6101906101c1366004611003565b61058f565b6100c16101d4366004610c2f565b600680546001600160a01b0319166001600160a01b0392909216919091179055565b610190610204366004610cb4565b6108a4565b61021c610217366004610d20565b610967565b604051610174919061136f565b6100c1610237366004610c2f565b600380546001600160a01b0319166001600160a01b0392909216919091179055565b806000808061026787610a51565b604080516000808252602082018084528d905260ff861692820192909252606081018490526080810183905293965091945092509060019060a0016020604051602081039080840390855afa1580156102c4573d6000803e3d6000fd5b5050604051601f190151600554600180546001600160a01b0319166001600160a01b0390921691909117905591506102fe905081886103d5565b156103bd576001546040516317fd22a760e21b81526001600160a01b0383811660048301523360248301526000921690635ff48a9c90604401600060405180830381600087803b15801561035157600080fd5b505af1158015610365573d6000803e3d6000fd5b505050506040513d6000823e601f3d908101601f1916820160405261038d9190810190610d54565b905061039a8987836108a4565b156103b7576103ac8c828d8d8a6104f1565b5050505050506103cd565b506103c7565b50505050506103cd565b50505050505b505050505050565b600554600180546001600160a01b0319166001600160a01b0392831690811790915560405163c62a4b5d60e01b8152918416600483015260009163c62a4b5d9060240160206040518083038186803b15801561043057600080fd5b505afa158015610444573d6000803e3d6000fd5b505050506040513d601f19601f820116820180604052508101906104689190610c97565b156104ae577f77968593b94a185a7994b0eaa4c12581abb535ed975e3fb29669e6635f068bdd838360405161049e929190611246565b60405180910390a15060016104eb565b7fd71ec54d47ce5ab2c23e3a1922ac7cbd9c2f72b7c6da9e19302f09b5697d6ca983836040516104df929190611246565b60405180910390a15060005b92915050565b60006104fc86610967565b9050610508818361058f565b156103cd57600654600280546001600160a01b0319166001600160a01b039092169182179055604051630110a6f560e41b815263110a6f50906105559088908a90899089906004016112e1565b600060405180830381600087803b15801561056f57600080fd5b505af1158015610583573d6000803e3d6000fd5b50505050505050505050565b6000806001905060096000846000815181106105ad576105ad61147a565b602002602001015160ff16815260200190815260200160002060009054906101000a900460ff16151584604001511515146105e6575060005b60096000846001815181106105fd576105fd61147a565b602002602001015160ff16815260200190815260200160002060009054906101000a900460ff1615158460600151151514610636575060005b600960008460028151811061064d5761064d61147a565b602002602001015160ff16815260200190815260200160002060009054906101000a900460ff1615158460800151151514610686575060005b600960008460038151811061069d5761069d61147a565b602002602001015160ff16815260200190815260200160002060009054906101000a900460ff1615158460a001511515146106d6575060005b60096000846004815181106106ed576106ed61147a565b602002602001015160ff16815260200190815260200160002060009054906101000a900460ff1615158460c00151151514610726575060005b600960008460058151811061073d5761073d61147a565b602002602001015160ff16815260200190815260200160002060009054906101000a900460ff1615158460e00151151514610776575060005b600960008460068151811061078d5761078d61147a565b602002602001015160ff16815260200190815260200160002060009054906101000a900460ff1615158461010001511515146107c7575060005b60096000846007815181106107de576107de61147a565b602002602001015160ff16815260200190815260200160002060009054906101000a900460ff161515846101200151151514610818575060005b8015610861577f37e2ec5460b5975a30df626ad62ce665dd5e67bc7033dcf99c08bb2dd3cecd3f848460405161084f929190611382565b60405180910390a160019150506104eb565b7f959daeb21a5e6d36c7a16980e218c8d4b0271d69907c1672197db65affb7a6958484604051610892929190611382565b60405180910390a160009150506104eb565b60008083836040516020016108ba92919061126a565b6040516020818303038152906040528051906020012090508481141561091f577fa86eb77748274ce4a63a76b83f5259af8c0128fe7e4eda6210c31d37550f4ff984848760405161090d93929190611298565b60405180910390a16001915050610960565b7f0bcb08d0e82dd3250f99f161630312f53c102ea52eb40a50f79917cf1be5b9f484848760405161095293929190611298565b60405180910390a160009150505b9392505050565b604080516101408101825260008082526060602083018190529282018190529181018290526080810182905260a0810182905260c0810182905260e081018290526101008101829052610120810191909152600354600080546001600160a01b0319166001600160a01b039092169182179055604051635918492f60e01b8152635918492f906109fb9085906004016112ce565b600060405180830381600087803b158015610a1557600080fd5b505af1158015610a29573d6000803e3d6000fd5b505050506040513d6000823e601f3d908101601f191682016040526104eb9190810190610efc565b60008080600080fd5b80356001600160a01b0381168114610a7157600080fd5b919050565b600082601f830112610a8757600080fd5b81356020610a9c610a9783611400565b6113d0565b80838252828201915082860187848660051b8901011115610abc57600080fd5b6000805b86811015610afe5782356001600160401b03811115610add578283fd5b610aeb8b88838d0101610b91565b8652509385019391850191600101610ac0565b509198975050505050505050565b600082601f830112610b1d57600080fd5b81356020610b2d610a9783611400565b80838252828201915082860187848660051b8901011115610b4d57600080fd5b6000805b86811015610afe57823560ff81168114610b69578283fd5b85529385019391850191600101610b51565b8035610a71816114a6565b8051610a71816114a6565b600082601f830112610ba257600080fd5b8135610bb0610a9782611423565b818152846020838601011115610bc557600080fd5b816020850160208301376000918101602001919091529392505050565b600082601f830112610bf357600080fd5b8151610c01610a9782611423565b818152846020838601011115610c1657600080fd5b610c2782602083016020870161144a565b949350505050565b600060208284031215610c4157600080fd5b61096082610a5a565b60008060408385031215610c5d57600080fd5b610c6683610a5a565b915060208301356001600160401b03811115610c8157600080fd5b610c8d85828601610b91565b9150509250929050565b600060208284031215610ca957600080fd5b8151610960816114a6565b600080600060608486031215610cc957600080fd5b8335925060208401356001600160401b0380821115610ce757600080fd5b610cf387838801610b0c565b93506040860135915080821115610d0957600080fd5b50610d1686828701610b91565b9150509250925092565b600060208284031215610d3257600080fd5b81356001600160401b03811115610d4857600080fd5b610c2784828501610b91565b600060208284031215610d6657600080fd5b81516001600160401b03811115610d7c57600080fd5b610c2784828501610be2565b600080600080600060a08688031215610da057600080fd5b85356001600160401b0380821115610db757600080fd5b610dc389838a01610b91565b96506020880135915080821115610dd957600080fd5b610de589838a01610b91565b9550604088013594506060880135915080821115610e0257600080fd5b610e0e89838a01610a76565b93506080880135915080821115610e2457600080fd5b50610e3188828901610b0c565b9150509295509295909350565b60008060008060008060c08789031215610e5757600080fd5b86356001600160401b0380821115610e6e57600080fd5b610e7a8a838b01610b91565b9750602089013596506040890135915080821115610e9757600080fd5b610ea38a838b01610a76565b9550606089013594506080890135915080821115610ec057600080fd5b610ecc8a838b01610b91565b935060a0890135915080821115610ee257600080fd5b50610eef89828a01610b0c565b9150509295509295509295565b600060208284031215610f0e57600080fd5b81516001600160401b0380821115610f2557600080fd5b908301906101408286031215610f3a57600080fd5b610f426113a7565b82518152602083015182811115610f5857600080fd5b610f6487828601610be2565b602083015250610f7660408401610b86565b6040820152610f8760608401610b86565b6060820152610f9860808401610b86565b6080820152610fa960a08401610b86565b60a0820152610fba60c08401610b86565b60c0820152610fcb60e08401610b86565b60e08201526101009150610fe0828401610b86565b828201526101209150610ff4828401610b86565b91810191909152949350505050565b6000806040838503121561101657600080fd5b82356001600160401b038082111561102d57600080fd5b90840190610140828703121561104257600080fd5b61104a6113a7565b8235815260208301358281111561106057600080fd5b61106c88828601610b91565b60208301525061107e60408401610b7b565b604082015261108f60608401610b7b565b60608201526110a060808401610b7b565b60808201526110b160a08401610b7b565b60a08201526110c260c08401610b7b565b60c08201526110d360e08401610b7b565b60e08201526101006110e6818501610b7b565b908201526101206110f8848201610b7b565b908201529350602085013591508082111561111257600080fd5b50610c8d85828601610b0c565b600081518084526020808501945080840160005b8381101561115257815160ff1687529582019590820190600101611133565b509495945050505050565b6000815180845261117581602086016020860161144a565b601f01601f19169290920160200192915050565b60006101408251845260208301518160208601526111a98286018261115d565b91505060408301516111bf604086018215159052565b5060608301516111d3606086018215159052565b5060808301516111e7608086018215159052565b5060a08301516111fb60a086018215159052565b5060c083015161120f60c086018215159052565b5060e083015161122360e086018215159052565b506101008381015115159085015261012092830151151592909301919091525090565b6001600160a01b0383168152604060208201819052600090610c279083018461115d565b60408152600061127d604083018561111f565b828103602084015261128f818561115d565b95945050505050565b6060815260006112ab606083018661111f565b82810360208401526112bd818661115d565b915050826040830152949350505050565b602081526000610960602083018461115d565b6080815260006112f4608083018761115d565b602083820381850152611307828861115d565b915085604085015283820360608501528185518084528284019150828160051b85010183880160005b8381101561135e57601f1987840301855261134c83835161115d565b94860194925090850190600101611330565b50909b9a5050505050505050505050565b6020815260006109606020830184611189565b6040815260006113956040830185611189565b828103602084015261128f818561111f565b60405161014081016001600160401b03811182821017156113ca576113ca611490565b60405290565b604051601f8201601f191681016001600160401b03811182821017156113f8576113f8611490565b604052919050565b60006001600160401b0382111561141957611419611490565b5060051b60200190565b60006001600160401b0382111561143c5761143c611490565b50601f01601f191660200190565b60005b8381101561146557818101518382015260200161144d565b83811115611474576000848401525b50505050565b634e487b7160e01b600052603260045260246000fd5b634e487b7160e01b600052604160045260246000fd5b80151581146114b457600080fd5b5056fea2646970667358221220d3b4b519bf520b761907db8e56ce53a1555c3b7e43ab2cf04518245a574bf73e64736f6c63430008070033",
    "sourcePath": "/Users/lucioreis/Desktop/paper-acess-control-blockchain/smart-contracts/ABAC_ETH_Access_Control.sol",
    "compiler": {
        "name": "solc",
        "version": "0.8.7+commit.e28d00a7"
    },
    "functionHashes": {
        "loadPolicy(string)": "95dd06e2",
        "orgSignValidated(address,bytes)": "63b65289",
        "policyCompliant((uint256,string,bool,bool,bool,bool,bool,bool,bool,bool),uint8[])": "7bda696b",
        "requestAccess(string,string,uint256,string[],uint8[])": "6943aa9e",
        "setABACPoliciesAddr(address)": "f73a2006",
        "setAddressPubKeyMappingAddr(address)": "2723af35",
        "setCloudAccessesAddr(address)": "7c0fd63c",
        "setEmergencyAttributesAddr(address)": "30304e6d",
        "signatureAndProfessionalVerification(bytes32,uint8[],string)": "94980630",
        "startSmartContract(string,uint256,string[],bytes32,bytes,uint8[])": "1f7ca52a",
        "toBytes(address)": "593b79fe"
    },
    "gasEstimates": {
        "creation": {
            "codeDepositCost": "1071400",
            "executionCost": "73818",
            "totalCost": "1145218"
        },
        "external": {
            "loadPolicy(string)": "infinite",
            "orgSignValidated(address,bytes)": "infinite",
            "policyCompliant((uint256,string,bool,bool,bool,bool,bool,bool,bool,bool),uint8[])": "infinite",
            "requestAccess(string,string,uint256,string[],uint8[])": "infinite",
            "setABACPoliciesAddr(address)": "24669",
            "setAddressPubKeyMappingAddr(address)": "24582",
            "setCloudAccessesAddr(address)": "24603",
            "setEmergencyAttributesAddr(address)": "24604",
            "signatureAndProfessionalVerification(bytes32,uint8[],string)": "infinite",
            "startSmartContract(string,uint256,string[],bytes32,bytes,uint8[])": "infinite",
            "toBytes(address)": "infinite"
        },
        "internal": {
            "splitSignature(bytes32)": "16"
        }
    }
}