{
    "contractName": "Address_PubKey_Mapping",
    "abi": [
        {
            "inputs": [],
            "stateMutability": "nonpayable",
            "type": "constructor"
        },
        {
            "anonymous": false,
            "inputs": [
                {
                    "indexed": false,
                    "internalType": "address",
                    "name": "_org_address",
                    "type": "address"
                }
            ],
            "name": "organisationAddressNotFound",
            "type": "event"
        },
        {
            "anonymous": false,
            "inputs": [
                {
                    "indexed": false,
                    "internalType": "address",
                    "name": "_org_address",
                    "type": "address"
                },
                {
                    "indexed": false,
                    "internalType": "address",
                    "name": "_user_address",
                    "type": "address"
                },
                {
                    "indexed": false,
                    "internalType": "string",
                    "name": "_key",
                    "type": "string"
                }
            ],
            "name": "publicKeyAdded",
            "type": "event"
        },
        {
            "anonymous": false,
            "inputs": [
                {
                    "indexed": false,
                    "internalType": "address",
                    "name": "_org_address",
                    "type": "address"
                },
                {
                    "indexed": false,
                    "internalType": "address",
                    "name": "_user_address",
                    "type": "address"
                },
                {
                    "indexed": false,
                    "internalType": "string",
                    "name": "_key",
                    "type": "string"
                }
            ],
            "name": "publicKeyDeleted",
            "type": "event"
        },
        {
            "anonymous": false,
            "inputs": [
                {
                    "indexed": false,
                    "internalType": "address",
                    "name": "_org_address",
                    "type": "address"
                },
                {
                    "indexed": false,
                    "internalType": "address",
                    "name": "_user_address",
                    "type": "address"
                }
            ],
            "name": "publicKeyNotFound",
            "type": "event"
        },
        {
            "anonymous": false,
            "inputs": [
                {
                    "indexed": false,
                    "internalType": "address",
                    "name": "_org_address",
                    "type": "address"
                },
                {
                    "indexed": false,
                    "internalType": "address",
                    "name": "_user_address",
                    "type": "address"
                },
                {
                    "indexed": false,
                    "internalType": "string",
                    "name": "_key",
                    "type": "string"
                }
            ],
            "name": "publicKeyRetrieved",
            "type": "event"
        },
        {
            "inputs": [
                {
                    "internalType": "address",
                    "name": "_org_address",
                    "type": "address"
                }
            ],
            "name": "addOrganisation",
            "outputs": [],
            "stateMutability": "nonpayable",
            "type": "function"
        },
        {
            "inputs": [
                {
                    "internalType": "address",
                    "name": "_org_address",
                    "type": "address"
                },
                {
                    "internalType": "address",
                    "name": "_user_address",
                    "type": "address"
                }
            ],
            "name": "deletePublicKey",
            "outputs": [],
            "stateMutability": "nonpayable",
            "type": "function"
        },
        {
            "inputs": [
                {
                    "internalType": "address",
                    "name": "_signer_address",
                    "type": "address"
                }
            ],
            "name": "isAddressAnOrg",
            "outputs": [
                {
                    "internalType": "bool",
                    "name": "",
                    "type": "bool"
                }
            ],
            "stateMutability": "view",
            "type": "function"
        },
        {
            "inputs": [
                {
                    "internalType": "address",
                    "name": "_org_address",
                    "type": "address"
                },
                {
                    "internalType": "address",
                    "name": "_user_address",
                    "type": "address"
                }
            ],
            "name": "retrievePublicKey",
            "outputs": [
                {
                    "internalType": "string",
                    "name": "",
                    "type": "string"
                }
            ],
            "stateMutability": "nonpayable",
            "type": "function"
        },
        {
            "inputs": [
                {
                    "internalType": "address",
                    "name": "_org_address",
                    "type": "address"
                },
                {
                    "internalType": "address",
                    "name": "_user_address",
                    "type": "address"
                },
                {
                    "internalType": "string",
                    "name": "_pub_key",
                    "type": "string"
                }
            ],
            "name": "setPublicKey",
            "outputs": [],
            "stateMutability": "nonpayable",
            "type": "function"
        }
    ],
    "bytecode": "608060405234801561001057600080fd5b50600280546001600160a01b0319163317905561078a806100326000396000f3fe608060405234801561001057600080fd5b50600436106100575760003560e01c80635ff48a9c1461005c578063bb23cbe714610085578063c62a4b5d1461009a578063cd1193b9146100bd578063d357fec1146100d0575b600080fd5b61006f61006a3660046104a4565b6100e3565b60405161007c91906106f0565b60405180910390f35b610098610093366004610482565b6101f9565b005b6100ad6100a8366004610482565b610237565b604051901515815260200161007c565b6100986100cb3660046104a4565b610268565b6100986100de3660046104d7565b61030a565b6001600160a01b03808316600090815260208181526040808320938516835292905281902090516060917ffdac9940c40dabc61370333c4c62afe34587af72776d4d5ed4af18c1d8894c699161013d91869186919061062b565b60405180910390a16001600160a01b03808416600090815260208181526040808320938616835292905220805461017390610703565b80601f016020809104026020016040519081016040528092919081815260200182805461019f90610703565b80156101ec5780601f106101c1576101008083540402835291602001916101ec565b820191906000526020600020905b8154815290600101906020018083116101cf57829003601f168201915b5050505050905092915050565b6002546001600160a01b0316331461021057600080fd5b6001600160a01b03166000908152600160208190526040909120805460ff19169091179055565b6001600160a01b03811660009081526001602052604081205460ff161561026057506001919050565b506000919050565b61027182610237565b61027a57600080fd5b6001600160a01b0380831660009081526020818152604080832093851683529290529081206102a891610390565b6001600160a01b03808316600090815260208181526040808320938516835292905281902090517ff09f1c296243580fb551547d86142bd38d697de1e385c1412dda8e78f555e468916102fe918591859161062b565b60405180910390a15050565b61031383610237565b61031c57600080fd5b6001600160a01b038084166000908152602081815260408083209386168352928152919020825161034f928401906103cd565b507f78828bb468a46d8b379813837fb6e3037941dc720ce0d80d50c292688811d8a1838383604051610383939291906105f6565b60405180910390a1505050565b50805461039c90610703565b6000825580601f106103ac575050565b601f0160209004906000526020600020908101906103ca9190610451565b50565b8280546103d990610703565b90600052602060002090601f0160209004810192826103fb5760008555610441565b82601f1061041457805160ff1916838001178555610441565b82800160010185558215610441579182015b82811115610441578251825591602001919060010190610426565b5061044d929150610451565b5090565b5b8082111561044d5760008155600101610452565b80356001600160a01b038116811461047d57600080fd5b919050565b60006020828403121561049457600080fd5b61049d82610466565b9392505050565b600080604083850312156104b757600080fd5b6104c083610466565b91506104ce60208401610466565b90509250929050565b6000806000606084860312156104ec57600080fd5b6104f584610466565b925061050360208501610466565b9150604084013567ffffffffffffffff8082111561052057600080fd5b818601915086601f83011261053457600080fd5b8135818111156105465761054661073e565b604051601f8201601f19908116603f0116810190838211818310171561056e5761056e61073e565b8160405282815289602084870101111561058757600080fd5b8260208601602083013760006020848301015280955050505050509250925092565b6000815180845260005b818110156105cf576020818501810151868301820152016105b3565b818111156105e1576000602083870101525b50601f01601f19169290920160200192915050565b6001600160a01b03848116825283166020820152606060408201819052600090610622908301846105a9565b95945050505050565b6001600160a01b03848116825283166020808301919091526060604083015282546000918291600181811c908281168061066657607f831692505b84831081141561068457634e487b7160e01b86526022600452602486fd5b60608801839052608088018180156106a357600181146106b4576106df565b60ff198616825286820197506106df565b60008b81526020902060005b868110156106d9578154848201529085019088016106c0565b83019850505b50959b9a5050505050505050505050565b60208152600061049d60208301846105a9565b600181811c9082168061071757607f821691505b6020821081141561073857634e487b7160e01b600052602260045260246000fd5b50919050565b634e487b7160e01b600052604160045260246000fdfea264697066735822122063be18b4a596163cd3a88bc6cfabca513981d2d0c5bebc3faeead31bd20de23364736f6c63430008070033",
    "sourcePath": "/Users/lucioreis/Desktop/paper-acess-control-blockchain/smart-contracts/ABAC_ETH_Access_Control.sol",
    "compiler": {
        "name": "solc",
        "version": "0.8.7+commit.e28d00a7"
    },
    "functionHashes": {
        "addOrganisation(address)": "bb23cbe7",
        "deletePublicKey(address,address)": "cd1193b9",
        "isAddressAnOrg(address)": "c62a4b5d",
        "retrievePublicKey(address,address)": "5ff48a9c",
        "setPublicKey(address,address,string)": "d357fec1"
    },
    "gasEstimates": {
        "creation": {
            "codeDepositCost": "386000",
            "executionCost": "24659",
            "totalCost": "410659"
        },
        "external": {
            "addOrganisation(address)": "26762",
            "deletePublicKey(address,address)": "infinite",
            "isAddressAnOrg(address)": "2613",
            "retrievePublicKey(address,address)": "infinite",
            "setPublicKey(address,address,string)": "infinite"
        },
        "internal": {
            "getPublicKey(address,address)": "infinite",
            "isSenderAnOrg(address)": "infinite"
        }
    }
}