{
    "contractName": "Attributes",
    "abi": [
        {
            "inputs": [],
            "stateMutability": "nonpayable",
            "type": "constructor"
        },
        {
            "anonymous": false,
            "inputs": [
                {
                    "indexed": false,
                    "internalType": "address",
                    "name": "_controller_addr",
                    "type": "address"
                }
            ],
            "name": "organisationAddressNotFound",
            "type": "event"
        },
        {
            "anonymous": false,
            "inputs": [
                {
                    "indexed": false,
                    "internalType": "address",
                    "name": "_controller_addr",
                    "type": "address"
                },
                {
                    "indexed": false,
                    "internalType": "address",
                    "name": "_processor_addr",
                    "type": "address"
                },
                {
                    "indexed": false,
                    "internalType": "string",
                    "name": "_processor_pk",
                    "type": "string"
                }
            ],
            "name": "publicKeyAdded",
            "type": "event"
        },
        {
            "anonymous": false,
            "inputs": [
                {
                    "indexed": false,
                    "internalType": "address",
                    "name": "_controller_addr",
                    "type": "address"
                },
                {
                    "indexed": false,
                    "internalType": "address",
                    "name": "_processor_addr",
                    "type": "address"
                },
                {
                    "indexed": false,
                    "internalType": "string",
                    "name": "_processor_pk",
                    "type": "string"
                }
            ],
            "name": "publicKeyDeleted",
            "type": "event"
        },
        {
            "anonymous": false,
            "inputs": [
                {
                    "indexed": false,
                    "internalType": "address",
                    "name": "_controller_addr",
                    "type": "address"
                },
                {
                    "indexed": false,
                    "internalType": "address",
                    "name": "_processor_addr",
                    "type": "address"
                }
            ],
            "name": "publicKeyNotFound",
            "type": "event"
        },
        {
            "anonymous": false,
            "inputs": [
                {
                    "indexed": false,
                    "internalType": "address",
                    "name": "_controller_addr",
                    "type": "address"
                },
                {
                    "indexed": false,
                    "internalType": "address",
                    "name": "_processor_addr",
                    "type": "address"
                },
                {
                    "indexed": false,
                    "internalType": "string",
                    "name": "_processor_pk",
                    "type": "string"
                }
            ],
            "name": "publicKeyRetrieved",
            "type": "event"
        },
        {
            "inputs": [
                {
                    "internalType": "uint8",
                    "name": "_context_expression",
                    "type": "uint8"
                },
                {
                    "internalType": "address",
                    "name": "_processor_addr",
                    "type": "address"
                },
                {
                    "internalType": "address",
                    "name": "_data_subject_addr",
                    "type": "address"
                },
                {
                    "internalType": "uint256",
                    "name": "_resource_id",
                    "type": "uint256"
                },
                {
                    "internalType": "bool",
                    "name": "_start_emergency",
                    "type": "bool"
                },
                {
                    "internalType": "bool",
                    "name": "_end_emergency",
                    "type": "bool"
                }
            ],
            "name": "addContextualAttribute",
            "outputs": [],
            "stateMutability": "nonpayable",
            "type": "function"
        },
        {
            "inputs": [
                {
                    "internalType": "address",
                    "name": "_controller_addr",
                    "type": "address"
                }
            ],
            "name": "addController",
            "outputs": [],
            "stateMutability": "nonpayable",
            "type": "function"
        },
        {
            "inputs": [
                {
                    "internalType": "address",
                    "name": "_storage_addr",
                    "type": "address"
                }
            ],
            "name": "addStorage",
            "outputs": [],
            "stateMutability": "nonpayable",
            "type": "function"
        },
        {
            "inputs": [
                {
                    "internalType": "address",
                    "name": "_controller_addr",
                    "type": "address"
                }
            ],
            "name": "deleteController",
            "outputs": [],
            "stateMutability": "nonpayable",
            "type": "function"
        },
        {
            "inputs": [
                {
                    "internalType": "address",
                    "name": "_controller_addr",
                    "type": "address"
                },
                {
                    "internalType": "address",
                    "name": "_processor_addr",
                    "type": "address"
                }
            ],
            "name": "deletePublicKey",
            "outputs": [],
            "stateMutability": "nonpayable",
            "type": "function"
        },
        {
            "inputs": [
                {
                    "internalType": "address",
                    "name": "_storage_addr",
                    "type": "address"
                }
            ],
            "name": "deleteStorage",
            "outputs": [],
            "stateMutability": "nonpayable",
            "type": "function"
        },
        {
            "inputs": [
                {
                    "internalType": "uint8",
                    "name": "_context_expression",
                    "type": "uint8"
                },
                {
                    "internalType": "address",
                    "name": "_processor_addr",
                    "type": "address"
                },
                {
                    "internalType": "address",
                    "name": "_data_subject_addr",
                    "type": "address"
                }
            ],
            "name": "getContextualAttribute",
            "outputs": [
                {
                    "internalType": "bool",
                    "name": "",
                    "type": "bool"
                }
            ],
            "stateMutability": "view",
            "type": "function"
        },
        {
            "inputs": [
                {
                    "internalType": "address",
                    "name": "_signer_address",
                    "type": "address"
                }
            ],
            "name": "isAddressAnOrg",
            "outputs": [
                {
                    "internalType": "bool",
                    "name": "",
                    "type": "bool"
                }
            ],
            "stateMutability": "view",
            "type": "function"
        },
        {
            "inputs": [
                {
                    "internalType": "address",
                    "name": "_controller_addr",
                    "type": "address"
                },
                {
                    "internalType": "address",
                    "name": "_processor_addr",
                    "type": "address"
                }
            ],
            "name": "retrieveProcessorPublicKey",
            "outputs": [
                {
                    "internalType": "string",
                    "name": "",
                    "type": "string"
                }
            ],
            "stateMutability": "nonpayable",
            "type": "function"
        },
        {
            "inputs": [
                {
                    "internalType": "uint8",
                    "name": "_context_expression",
                    "type": "uint8"
                },
                {
                    "internalType": "address",
                    "name": "_data_subject_addr",
                    "type": "address"
                }
            ],
            "name": "revokeContextualAttribute",
            "outputs": [],
            "stateMutability": "nonpayable",
            "type": "function"
        },
        {
            "inputs": [
                {
                    "internalType": "address",
                    "name": "_controller_addr",
                    "type": "address"
                },
                {
                    "internalType": "address",
                    "name": "_processor_addr",
                    "type": "address"
                },
                {
                    "internalType": "string",
                    "name": "_processor_pk",
                    "type": "string"
                }
            ],
            "name": "setPublicKey",
            "outputs": [],
            "stateMutability": "nonpayable",
            "type": "function"
        }
    ],
    "bytecode": "608060405234801561001057600080fd5b50600280546001600160a01b03191633179055610cff806100326000396000f3fe608060405234801561001057600080fd5b50600436106100a95760003560e01c8063aa57d42e11610071578063aa57d42e146100c3578063c62a4b5d14610111578063cd1193b914610124578063d357fec114610137578063d59f20d01461014a578063e64f6b1d1461016a57600080fd5b806309abb4f4146100ae5780630cfe4d0e146100c35780631d5781d8146100d6578063a79aa9c1146100fe578063a7fc7a07146100ae575b600080fd5b6100c16100bc3660046108d4565b61017d565b005b6100c16100d13660046108d4565b6101bb565b6100e96100e4366004610a10565b6101f3565b60405190151581526020015b60405180910390f35b6100c161010c366004610a53565b6102c7565b6100e961011f3660046108d4565b6103fd565b6100c16101323660046108ef565b61042e565b6100c1610145366004610922565b6104be565b61015d6101583660046108ef565b610532565b6040516100f59190610c07565b6100c16101783660046109f4565b610648565b6002546001600160a01b0316331461019457600080fd5b6001600160a01b03166000908152600160208190526040909120805460ff19169091179055565b6002546001600160a01b031633146101d257600080fd5b6001600160a01b03166000908152600160205260409020805460ff19169055565b600060ff84166102865760005b6001600160a01b038316600090815260036020526040902054811015610284576001600160a01b038316600090815260036020526040902080543391908390811061024d5761024d610c9d565b6000918252602090912001546001600160a01b031614156102725760019150506102c0565b8061027c81610c6c565b915050610200565b505b8360ff16600114156102bc576001600160a01b03828116600090815260046020526040902054163314156102bc575060016102c0565b5060005b9392505050565b60ff86166103a1578115610371576040805160056020820181815260e083018452919283929190830160a08036833750505090526001600160a01b038516600090815260036020908152604090912082518051919261032b9284929091019061074e565b5050506001600160a01b0384811660009081526003602090815260408220805460018101825590835291200180546001600160a01b0319169187169190911790556103f5565b80156103a1576001600160a01b03841660009081526003602052604081209061039a82826107b3565b50506103f5565b8560ff16600114156103f5576040805180820182526001600160a01b03878116825260208083018781523360009081526004909252939020915182546001600160a01b031916911617815590516001909101555b505050505050565b6001600160a01b03811660009081526001602052604081205460ff161561042657506001919050565b506000919050565b6001600160a01b03808316600090815260208181526040808320938516835292905290812061045c916107d4565b6001600160a01b03808316600090815260208181526040808320938516835292905281902090517ff09f1c296243580fb551547d86142bd38d697de1e385c1412dda8e78f555e468916104b29185918591610b42565b60405180910390a15050565b6001600160a01b03808416600090815260208181526040808320938616835292815291902082516104f19284019061080e565b507f78828bb468a46d8b379813837fb6e3037941dc720ce0d80d50c292688811d8a183838360405161052593929190610b0d565b60405180910390a1505050565b6001600160a01b03808316600090815260208181526040808320938516835292905281902090516060917ffdac9940c40dabc61370333c4c62afe34587af72776d4d5ed4af18c1d8894c699161058c918691869190610b42565b60405180910390a16001600160a01b0380841660009081526020818152604080832093861683529290522080546105c290610c31565b80601f01602080910402602001604051908101604052809291908181526020018280546105ee90610c31565b801561063b5780601f106106105761010080835404028352916020019161063b565b820191906000526020600020905b81548152906001019060200180831161061e57829003601f168201915b5050505050905092915050565b60ff821661071c5760005b6001600160a01b03821660009081526003602052604090205481101561071a576001600160a01b03821660009081526003602052604090208054339190839081106106a0576106a0610c9d565b6000918252602090912001546001600160a01b03161415610708576001600160a01b03821660009081526003602052604090206106de600183610c1a565b815481106106ee576106ee610c9d565b600091825260209091200180546001600160a01b03191690555b8061071281610c6c565b915050610653565b505b8160ff166001141561074a5733600090815260046020526040812080546001600160a01b0319168155600101555b5050565b8280548282559060005260206000209081019282156107a3579160200282015b828111156107a357825182546001600160a01b0319166001600160a01b0390911617825560209092019160019091019061076e565b506107af929150610882565b5090565b50805460008255906000526020600020908101906107d19190610882565b50565b5080546107e090610c31565b6000825580601f106107f0575050565b601f0160209004906000526020600020908101906107d19190610882565b82805461081a90610c31565b90600052602060002090601f01602090048101928261083c57600085556107a3565b82601f1061085557805160ff19168380011785556107a3565b828001600101855582156107a3579182015b828111156107a3578251825591602001919060010190610867565b5b808211156107af5760008155600101610883565b80356001600160a01b03811681146108ae57600080fd5b919050565b803580151581146108ae57600080fd5b803560ff811681146108ae57600080fd5b6000602082840312156108e657600080fd5b6102c082610897565b6000806040838503121561090257600080fd5b61090b83610897565b915061091960208401610897565b90509250929050565b60008060006060848603121561093757600080fd5b61094084610897565b925061094e60208501610897565b9150604084013567ffffffffffffffff8082111561096b57600080fd5b818601915086601f83011261097f57600080fd5b81358181111561099157610991610cb3565b604051601f8201601f19908116603f011681019083821181831017156109b9576109b9610cb3565b816040528281528960208487010111156109d257600080fd5b8260208601602083013760006020848301015280955050505050509250925092565b60008060408385031215610a0757600080fd5b61090b836108c3565b600080600060608486031215610a2557600080fd5b610a2e846108c3565b9250610a3c60208501610897565b9150610a4a60408501610897565b90509250925092565b60008060008060008060c08789031215610a6c57600080fd5b610a75876108c3565b9550610a8360208801610897565b9450610a9160408801610897565b935060608701359250610aa6608088016108b3565b9150610ab460a088016108b3565b90509295509295509295565b6000815180845260005b81811015610ae657602081850181015186830182015201610aca565b81811115610af8576000602083870101525b50601f01601f19169290920160200192915050565b6001600160a01b03848116825283166020820152606060408201819052600090610b3990830184610ac0565b95945050505050565b6001600160a01b03848116825283166020808301919091526060604083015282546000918291600181811c9082811680610b7d57607f831692505b848310811415610b9b57634e487b7160e01b86526022600452602486fd5b6060880183905260808801818015610bba5760018114610bcb57610bf6565b60ff19861682528682019750610bf6565b60008b81526020902060005b86811015610bf057815484820152908501908801610bd7565b83019850505b50959b9a5050505050505050505050565b6020815260006102c06020830184610ac0565b600082821015610c2c57610c2c610c87565b500390565b600181811c90821680610c4557607f821691505b60208210811415610c6657634e487b7160e01b600052602260045260246000fd5b50919050565b6000600019821415610c8057610c80610c87565b5060010190565b634e487b7160e01b600052601160045260246000fd5b634e487b7160e01b600052603260045260246000fd5b634e487b7160e01b600052604160045260246000fdfea26469706673582212206252994fd42a8e525f1f3e95adc7c4f8f95947bb4424ee6e6443fc95f698aa2464736f6c63430008070033",
    "sourcePath": "/Users/lucioreis/Desktop/paper-acess-control-blockchain/smart-contracts/SmartAccessContract.sol",
    "compiler": {
        "name": "solc",
        "version": "0.8.7+commit.e28d00a7"
    },
    "functionHashes": {
        "addContextualAttribute(uint8,address,address,uint256,bool,bool)": "a79aa9c1",
        "addController(address)": "a7fc7a07",
        "addStorage(address)": "09abb4f4",
        "deleteController(address)": "0cfe4d0e",
        "deletePublicKey(address,address)": "cd1193b9",
        "deleteStorage(address)": "aa57d42e",
        "getContextualAttribute(uint8,address,address)": "1d5781d8",
        "isAddressAnOrg(address)": "c62a4b5d",
        "retrieveProcessorPublicKey(address,address)": "d59f20d0",
        "revokeContextualAttribute(uint8,address)": "e64f6b1d",
        "setPublicKey(address,address,string)": "d357fec1"
    },
    "gasEstimates": {
        "creation": {
            "codeDepositCost": "665400",
            "executionCost": "24931",
            "totalCost": "690331"
        },
        "external": {
            "addContextualAttribute(uint8,address,address,uint256,bool,bool)": "infinite",
            "addController(address)": "26851",
            "addStorage(address)": "26763",
            "deleteController(address)": "26767",
            "deletePublicKey(address,address)": "infinite",
            "deleteStorage(address)": "26744",
            "getContextualAttribute(uint8,address,address)": "infinite",
            "isAddressAnOrg(address)": "2602",
            "retrieveProcessorPublicKey(address,address)": "infinite",
            "revokeContextualAttribute(uint8,address)": "infinite",
            "setPublicKey(address,address,string)": "infinite"
        },
        "internal": {
            "getPublicKey(address,address)": "infinite",
            "isSenderAnOrg(address)": "infinite"
        }
    }
}