{
    "contractName": "Attributes",
    "abi": [
        {
            "inputs": [],
            "stateMutability": "nonpayable",
            "type": "constructor"
        },
        {
            "anonymous": false,
            "inputs": [
                {
                    "indexed": false,
                    "internalType": "address",
                    "name": "_org_address",
                    "type": "address"
                }
            ],
            "name": "organisationAddressNotFound",
            "type": "event"
        },
        {
            "anonymous": false,
            "inputs": [
                {
                    "indexed": false,
                    "internalType": "address",
                    "name": "_org_address",
                    "type": "address"
                },
                {
                    "indexed": false,
                    "internalType": "address",
                    "name": "_user_address",
                    "type": "address"
                },
                {
                    "indexed": false,
                    "internalType": "string",
                    "name": "_key",
                    "type": "string"
                }
            ],
            "name": "publicKeyAdded",
            "type": "event"
        },
        {
            "anonymous": false,
            "inputs": [
                {
                    "indexed": false,
                    "internalType": "address",
                    "name": "_org_address",
                    "type": "address"
                },
                {
                    "indexed": false,
                    "internalType": "address",
                    "name": "_user_address",
                    "type": "address"
                },
                {
                    "indexed": false,
                    "internalType": "string",
                    "name": "_key",
                    "type": "string"
                }
            ],
            "name": "publicKeyDeleted",
            "type": "event"
        },
        {
            "anonymous": false,
            "inputs": [
                {
                    "indexed": false,
                    "internalType": "address",
                    "name": "_org_address",
                    "type": "address"
                },
                {
                    "indexed": false,
                    "internalType": "address",
                    "name": "_user_address",
                    "type": "address"
                }
            ],
            "name": "publicKeyNotFound",
            "type": "event"
        },
        {
            "anonymous": false,
            "inputs": [
                {
                    "indexed": false,
                    "internalType": "address",
                    "name": "_org_address",
                    "type": "address"
                },
                {
                    "indexed": false,
                    "internalType": "address",
                    "name": "_user_address",
                    "type": "address"
                },
                {
                    "indexed": false,
                    "internalType": "string",
                    "name": "_key",
                    "type": "string"
                }
            ],
            "name": "publicKeyRetrieved",
            "type": "event"
        },
        {
            "inputs": [],
            "name": "addExtraInfo",
            "outputs": [],
            "stateMutability": "nonpayable",
            "type": "function"
        },
        {
            "inputs": [
                {
                    "internalType": "address",
                    "name": "_org_address",
                    "type": "address"
                }
            ],
            "name": "addOrganisation",
            "outputs": [],
            "stateMutability": "nonpayable",
            "type": "function"
        },
        {
            "inputs": [],
            "name": "changeExtraInfo",
            "outputs": [],
            "stateMutability": "nonpayable",
            "type": "function"
        },
        {
            "inputs": [
                {
                    "internalType": "uint256",
                    "name": "_emergency_uuid",
                    "type": "uint256"
                }
            ],
            "name": "deleteExtraInfo",
            "outputs": [],
            "stateMutability": "nonpayable",
            "type": "function"
        },
        {
            "inputs": [
                {
                    "internalType": "address",
                    "name": "_org_address",
                    "type": "address"
                },
                {
                    "internalType": "address",
                    "name": "_user_address",
                    "type": "address"
                }
            ],
            "name": "deletePublicKey",
            "outputs": [],
            "stateMutability": "nonpayable",
            "type": "function"
        },
        {
            "inputs": [
                {
                    "internalType": "address",
                    "name": "_signer_address",
                    "type": "address"
                }
            ],
            "name": "isAddressAnOrg",
            "outputs": [
                {
                    "internalType": "bool",
                    "name": "",
                    "type": "bool"
                }
            ],
            "stateMutability": "view",
            "type": "function"
        },
        {
            "inputs": [
                {
                    "internalType": "address",
                    "name": "_org_address",
                    "type": "address"
                },
                {
                    "internalType": "address",
                    "name": "_user_address",
                    "type": "address"
                }
            ],
            "name": "retrievePublicKey",
            "outputs": [
                {
                    "internalType": "string",
                    "name": "",
                    "type": "string"
                }
            ],
            "stateMutability": "nonpayable",
            "type": "function"
        },
        {
            "inputs": [
                {
                    "internalType": "address",
                    "name": "_org_address",
                    "type": "address"
                },
                {
                    "internalType": "address",
                    "name": "_user_address",
                    "type": "address"
                },
                {
                    "internalType": "string",
                    "name": "_pub_key",
                    "type": "string"
                }
            ],
            "name": "setPublicKey",
            "outputs": [],
            "stateMutability": "nonpayable",
            "type": "function"
        }
    ],
    "bytecode": "608060405234801561001057600080fd5b50600280546001600160a01b031916331790556107e2806100326000396000f3fe608060405234801561001057600080fd5b50600436106100885760003560e01c8063bb23cbe71161005b578063bb23cbe7146100c9578063c62a4b5d146100dc578063cd1193b9146100ff578063d357fec11461011257600080fd5b80634f9fda331461008d5780635ff48a9c1461008f57806383abe85c146100b8578063b2126fc91461008d575b600080fd5b005b6100a261009d3660046104e3565b610125565b6040516100af9190610748565b60405180910390f35b61008d6100c63660046105e8565b50565b61008d6100d73660046104c1565b61023b565b6100ef6100ea3660046104c1565b610279565b60405190151581526020016100af565b61008d61010d3660046104e3565b6102aa565b61008d610120366004610516565b61034c565b6001600160a01b03808316600090815260208181526040808320938516835292905281902090516060917ffdac9940c40dabc61370333c4c62afe34587af72776d4d5ed4af18c1d8894c699161017f918691869190610683565b60405180910390a16001600160a01b0380841660009081526020818152604080832093861683529290522080546101b59061075b565b80601f01602080910402602001604051908101604052809291908181526020018280546101e19061075b565b801561022e5780601f106102035761010080835404028352916020019161022e565b820191906000526020600020905b81548152906001019060200180831161021157829003601f168201915b5050505050905092915050565b6002546001600160a01b0316331461025257600080fd5b6001600160a01b03166000908152600160208190526040909120805460ff19169091179055565b6001600160a01b03811660009081526001602052604081205460ff16156102a257506001919050565b506000919050565b6102b382610279565b6102bc57600080fd5b6001600160a01b0380831660009081526020818152604080832093851683529290529081206102ea916103d2565b6001600160a01b03808316600090815260208181526040808320938516835292905281902090517ff09f1c296243580fb551547d86142bd38d697de1e385c1412dda8e78f555e468916103409185918591610683565b60405180910390a15050565b61035583610279565b61035e57600080fd5b6001600160a01b03808416600090815260208181526040808320938616835292815291902082516103919284019061040c565b507f78828bb468a46d8b379813837fb6e3037941dc720ce0d80d50c292688811d8a18383836040516103c59392919061064e565b60405180910390a1505050565b5080546103de9061075b565b6000825580601f106103ee575050565b601f0160209004906000526020600020908101906100c69190610490565b8280546104189061075b565b90600052602060002090601f01602090048101928261043a5760008555610480565b82601f1061045357805160ff1916838001178555610480565b82800160010185558215610480579182015b82811115610480578251825591602001919060010190610465565b5061048c929150610490565b5090565b5b8082111561048c5760008155600101610491565b80356001600160a01b03811681146104bc57600080fd5b919050565b6000602082840312156104d357600080fd5b6104dc826104a5565b9392505050565b600080604083850312156104f657600080fd5b6104ff836104a5565b915061050d602084016104a5565b90509250929050565b60008060006060848603121561052b57600080fd5b610534846104a5565b9250610542602085016104a5565b9150604084013567ffffffffffffffff8082111561055f57600080fd5b818601915086601f83011261057357600080fd5b81358181111561058557610585610796565b604051601f8201601f19908116603f011681019083821181831017156105ad576105ad610796565b816040528281528960208487010111156105c657600080fd5b8260208601602083013760006020848301015280955050505050509250925092565b6000602082840312156105fa57600080fd5b5035919050565b6000815180845260005b818110156106275760208185018101518683018201520161060b565b81811115610639576000602083870101525b50601f01601f19169290920160200192915050565b6001600160a01b0384811682528316602082015260606040820181905260009061067a90830184610601565b95945050505050565b6001600160a01b03848116825283166020808301919091526060604083015282546000918291600181811c90828116806106be57607f831692505b8483108114156106dc57634e487b7160e01b86526022600452602486fd5b60608801839052608088018180156106fb576001811461070c57610737565b60ff19861682528682019750610737565b60008b81526020902060005b8681101561073157815484820152908501908801610718565b83019850505b50959b9a5050505050505050505050565b6020815260006104dc6020830184610601565b600181811c9082168061076f57607f821691505b6020821081141561079057634e487b7160e01b600052602260045260246000fd5b50919050565b634e487b7160e01b600052604160045260246000fdfea264697066735822122082c8be0ed3131e0a1e9c2f2d0577bed3011b430329d098dfd6742e6b9a1cd63264736f6c63430008070033",
    "sourcePath": "/Users/lucioreis/Desktop/paper-acess-control-blockchain/smart-contracts/ABAC_ETH_AC_V3.sol",
    "compiler": {
        "name": "solc",
        "version": "0.8.7+commit.e28d00a7"
    },
    "functionHashes": {
        "addExtraInfo()": "4f9fda33",
        "addOrganisation(address)": "bb23cbe7",
        "changeExtraInfo()": "b2126fc9",
        "deleteExtraInfo(uint256)": "83abe85c",
        "deletePublicKey(address,address)": "cd1193b9",
        "isAddressAnOrg(address)": "c62a4b5d",
        "retrievePublicKey(address,address)": "5ff48a9c",
        "setPublicKey(address,address,string)": "d357fec1"
    },
    "gasEstimates": {
        "creation": {
            "codeDepositCost": "403600",
            "executionCost": "24678",
            "totalCost": "428278"
        },
        "external": {
            "addExtraInfo()": "121",
            "addOrganisation(address)": "26762",
            "changeExtraInfo()": "187",
            "deleteExtraInfo(uint256)": "256",
            "deletePublicKey(address,address)": "infinite",
            "isAddressAnOrg(address)": "2613",
            "retrievePublicKey(address,address)": "infinite",
            "setPublicKey(address,address,string)": "infinite"
        },
        "internal": {
            "getPublicKey(address,address)": "infinite",
            "isSenderAnOrg(address)": "infinite"
        }
    }
}