{
    "contractName": "Data_Access",
    "abi": [
        {
            "inputs": [],
            "stateMutability": "nonpayable",
            "type": "constructor"
        },
        {
            "anonymous": false,
            "inputs": [
                {
                    "indexed": false,
                    "internalType": "string",
                    "name": "_public_key",
                    "type": "string"
                },
                {
                    "indexed": false,
                    "internalType": "string",
                    "name": "_access_type",
                    "type": "string"
                },
                {
                    "indexed": false,
                    "internalType": "string[]",
                    "name": "_actions",
                    "type": "string[]"
                },
                {
                    "indexed": false,
                    "internalType": "uint256",
                    "name": "_data_subject_id",
                    "type": "uint256"
                },
                {
                    "indexed": false,
                    "internalType": "uint256",
                    "name": "_access_given_timestamp",
                    "type": "uint256"
                },
                {
                    "indexed": false,
                    "internalType": "uint256",
                    "name": "_access_expiration_timestamp",
                    "type": "uint256"
                }
            ],
            "name": "accessGranted",
            "type": "event"
        },
        {
            "anonymous": false,
            "inputs": [
                {
                    "indexed": false,
                    "internalType": "string",
                    "name": "_public_key",
                    "type": "string"
                }
            ],
            "name": "accessRevoked",
            "type": "event"
        },
        {
            "anonymous": false,
            "inputs": [
                {
                    "indexed": false,
                    "internalType": "string",
                    "name": "_public_key",
                    "type": "string"
                }
            ],
            "name": "verificationFailed",
            "type": "event"
        },
        {
            "anonymous": false,
            "inputs": [
                {
                    "indexed": false,
                    "internalType": "string",
                    "name": "_public_key",
                    "type": "string"
                }
            ],
            "name": "verificationSuccess",
            "type": "event"
        },
        {
            "inputs": [
                {
                    "internalType": "string",
                    "name": "_access_type",
                    "type": "string"
                },
                {
                    "internalType": "uint256",
                    "name": "_data_subject_id",
                    "type": "uint256"
                },
                {
                    "internalType": "string[]",
                    "name": "_actions",
                    "type": "string[]"
                },
                {
                    "internalType": "bytes32",
                    "name": "_hashed_token",
                    "type": "bytes32"
                },
                {
                    "internalType": "bytes",
                    "name": "_signed_token",
                    "type": "bytes"
                },
                {
                    "internalType": "uint8[]",
                    "name": "attributes",
                    "type": "uint8[]"
                }
            ],
            "name": "evaluateRequest",
            "outputs": [],
            "stateMutability": "nonpayable",
            "type": "function"
        },
        {
            "inputs": [
                {
                    "internalType": "string",
                    "name": "_public_key",
                    "type": "string"
                },
                {
                    "internalType": "string",
                    "name": "_access_type",
                    "type": "string"
                },
                {
                    "internalType": "uint256",
                    "name": "_data_subject_id",
                    "type": "uint256"
                },
                {
                    "internalType": "string[]",
                    "name": "_actions",
                    "type": "string[]"
                }
            ],
            "name": "grantAccess",
            "outputs": [],
            "stateMutability": "nonpayable",
            "type": "function"
        },
        {
            "inputs": [
                {
                    "internalType": "string",
                    "name": "_public_key",
                    "type": "string"
                },
                {
                    "internalType": "uint256",
                    "name": "_data_subject_id",
                    "type": "uint256"
                },
                {
                    "internalType": "string",
                    "name": "_access_type",
                    "type": "string"
                },
                {
                    "internalType": "string[]",
                    "name": "_actions",
                    "type": "string[]"
                }
            ],
            "name": "revokeAccess",
            "outputs": [],
            "stateMutability": "nonpayable",
            "type": "function"
        },
        {
            "inputs": [
                {
                    "internalType": "address",
                    "name": "_address",
                    "type": "address"
                }
            ],
            "name": "setAttributesContractAddr",
            "outputs": [],
            "stateMutability": "nonpayable",
            "type": "function"
        },
        {
            "inputs": [
                {
                    "internalType": "address",
                    "name": "_address",
                    "type": "address"
                }
            ],
            "name": "setDecisionContractAddr",
            "outputs": [],
            "stateMutability": "nonpayable",
            "type": "function"
        },
        {
            "inputs": [
                {
                    "internalType": "uint256",
                    "name": "_expiration_time",
                    "type": "uint256"
                }
            ],
            "name": "setExpirationTime",
            "outputs": [],
            "stateMutability": "nonpayable",
            "type": "function"
        },
        {
            "inputs": [
                {
                    "internalType": "string",
                    "name": "_public_key",
                    "type": "string"
                },
                {
                    "internalType": "uint256",
                    "name": "_data_subject_id",
                    "type": "uint256"
                },
                {
                    "internalType": "string",
                    "name": "_access_type",
                    "type": "string"
                },
                {
                    "internalType": "string[]",
                    "name": "_actions",
                    "type": "string[]"
                },
                {
                    "internalType": "uint256",
                    "name": "_access_timestamp",
                    "type": "uint256"
                }
            ],
            "name": "verifyAccess",
            "outputs": [
                {
                    "internalType": "bool",
                    "name": "",
                    "type": "bool"
                }
            ],
            "stateMutability": "nonpayable",
            "type": "function"
        }
    ],
    "bytecode": "608060405234801561001057600080fd5b50600580546001600160a01b0319163317905561012c600455610e35806100386000396000f3fe608060405234801561001057600080fd5b506004361061007d5760003560e01c80635951b7c61161005b5780635951b7c6146100ee578063aec3dae314610101578063c0cc365d14610114578063d739cbbf1461012757600080fd5b8063110a6f50146100825780631d22a08914610097578063296e4909146100c7575b600080fd5b61009561009036600461088e565b610157565b005b6100956100a5366004610845565b600280546001600160a01b0319166001600160a01b0392909216919091179055565b6100da6100d5366004610a58565b610287565b604051901515815260200160405180910390f35b6100956100fc3660046109df565b61031e565b61009561010f366004610920565b6103d5565b610095610122366004610af2565b600455565b610095610135366004610845565b600380546001600160a01b0319166001600160a01b0392909216919091179055565b60045442906000906101699083610d46565b9050600061017886868661045b565b90506040518060c00160405280878152602001868152602001858152602001600115158152602001848152602001838152506006886040516101ba9190610b8c565b90815260408051602092819003830190206000858152908352208251805191926101e992849290910190610565565b5060208281015160018301556040830151805161020c92600285019201906105e9565b50606082015160038201805460ff19169115159190911790556080820151600482015560a0909101516005909101556040517fd55d354e8c66d07b6c51468d4dd012230b92c4309e3059352f741bf38282199190610275908990899088908a9089908990610c0a565b60405180910390a15050505b50505050565b60006102968686868686610505565b156102da577f53f816ee0985dfc8b8b9d20f33b5acb19813f37824612fa08f9370811ce3ceb3866040516102ca9190610bf7565b60405180910390a1506001610315565b7fcb233db563699e404bda40770399bc9d91252bb403165e66acbabbb756500257866040516103099190610bf7565b60405180910390a15060005b95945050505050565b600061032b83858461045b565b905060068560405161033d9190610b8c565b9081526040805160209281900383019020600084815292528120906103628282610642565b600182016000905560028201600061037a919061067f565b5060038101805460ff191690556000600482018190556005909101556040517fa5cc2877108f3428e62155764c7e754fd8b67fd626f9c8b6f67f7c530530494e906103c6908790610bf7565b60405180910390a15050505050565b600254600080546001600160a01b0319166001600160a01b039092169182179055604051630fbe529560e11b8152631f7ca52a9061042190899089908990899089908990600401610c62565b600060405180830381600087803b15801561043b57600080fd5b505af115801561044f573d6000803e3d6000fd5b50505050505050505050565b600080600285858560008151811061047557610475610dd3565b60200260200101518660018151811061049057610490610dd3565b60200260200101516040516020016104ab9493929190610ba8565b60408051601f19818403018152908290526104c591610b8c565b602060405180830381855afa1580156104e2573d6000803e3d6000fd5b5050506040513d601f19601f820116820180604052508101906103159190610875565b60008061051385878661045b565b9050826006886040516105269190610b8c565b908152602001604051809103902060008381526020019081526020016000206005015410610558576001915050610315565b5060009695505050505050565b82805461057190610d98565b90600052602060002090601f01602090048101928261059357600085556105d9565b82601f106105ac57805160ff19168380011785556105d9565b828001600101855582156105d9579182015b828111156105d95782518255916020019190600101906105be565b506105e592915061069d565b5090565b828054828255906000526020600020908101928215610636579160200282015b828111156106365782518051610626918491602090910190610565565b5091602001919060010190610609565b506105e59291506106b2565b50805461064e90610d98565b6000825580601f1061065e575050565b601f01602090049060005260206000209081019061067c919061069d565b50565b508054600082559060005260206000209081019061067c91906106b2565b5b808211156105e5576000815560010161069e565b808211156105e55760006106c68282610642565b506001016106b2565b600082601f8301126106e057600080fd5b813560206106f56106f083610d22565b610cf1565b80838252828201915082860187848660051b890101111561071557600080fd5b6000805b8681101561075857823567ffffffffffffffff811115610737578283fd5b6107458b88838d01016107d5565b8652509385019391850191600101610719565b509198975050505050505050565b600082601f83011261077757600080fd5b813560206107876106f083610d22565b80838252828201915082860187848660051b89010111156107a757600080fd5b6000805b8681101561075857823560ff811681146107c3578283fd5b855293850193918501916001016107ab565b600082601f8301126107e657600080fd5b813567ffffffffffffffff81111561080057610800610de9565b610813601f8201601f1916602001610cf1565b81815284602083860101111561082857600080fd5b816020850160208301376000918101602001919091529392505050565b60006020828403121561085757600080fd5b81356001600160a01b038116811461086e57600080fd5b9392505050565b60006020828403121561088757600080fd5b5051919050565b600080600080608085870312156108a457600080fd5b843567ffffffffffffffff808211156108bc57600080fd5b6108c8888389016107d5565b955060208701359150808211156108de57600080fd5b6108ea888389016107d5565b945060408701359350606087013591508082111561090757600080fd5b50610914878288016106cf565b91505092959194509250565b60008060008060008060c0878903121561093957600080fd5b863567ffffffffffffffff8082111561095157600080fd5b61095d8a838b016107d5565b975060208901359650604089013591508082111561097a57600080fd5b6109868a838b016106cf565b95506060890135945060808901359150808211156109a357600080fd5b6109af8a838b016107d5565b935060a08901359150808211156109c557600080fd5b506109d289828a01610766565b9150509295509295509295565b600080600080608085870312156109f557600080fd5b843567ffffffffffffffff80821115610a0d57600080fd5b610a19888389016107d5565b9550602087013594506040870135915080821115610a3657600080fd5b610a42888389016107d5565b9350606087013591508082111561090757600080fd5b600080600080600060a08688031215610a7057600080fd5b853567ffffffffffffffff80821115610a8857600080fd5b610a9489838a016107d5565b9650602088013595506040880135915080821115610ab157600080fd5b610abd89838a016107d5565b94506060880135915080821115610ad357600080fd5b50610ae0888289016106cf565b95989497509295608001359392505050565b600060208284031215610b0457600080fd5b5035919050565b600081518084526020808501808196508360051b8101915082860160005b85811015610b53578284038952610b41848351610b60565b98850198935090840190600101610b29565b5091979650505050505050565b60008151808452610b78816020860160208601610d6c565b601f01601f19169290920160200192915050565b60008251610b9e818460208701610d6c565b9190910192915050565b600085516020610bbb8285838b01610d6c565b81840191508682528551610bd481838501848a01610d6c565b8551920191610be881838501848901610d6c565b91909101019695505050505050565b60208152600061086e6020830184610b60565b60c081526000610c1d60c0830189610b60565b8281036020840152610c2f8189610b60565b90508281036040840152610c438188610b0b565b60608401969096525050608081019290925260a0909101529392505050565b60c081526000610c7560c0830189610b60565b602088818501528382036040850152610c8e8289610b0b565b91508660608501528382036080850152610ca88287610b60565b84810360a0860152855180825282870193509082019060005b81811015610ce057845160ff1683529383019391830191600101610cc1565b50909b9a5050505050505050505050565b604051601f8201601f1916810167ffffffffffffffff81118282101715610d1a57610d1a610de9565b604052919050565b600067ffffffffffffffff821115610d3c57610d3c610de9565b5060051b60200190565b60008219821115610d6757634e487b7160e01b600052601160045260246000fd5b500190565b60005b83811015610d87578181015183820152602001610d6f565b838111156102815750506000910152565b600181811c90821680610dac57607f821691505b60208210811415610dcd57634e487b7160e01b600052602260045260246000fd5b50919050565b634e487b7160e01b600052603260045260246000fd5b634e487b7160e01b600052604160045260246000fdfea26469706673582212207615ace795ebf712d4da27a12c8f2bb8354c3c7963c31a686c911cec3c634ec864736f6c63430008070033",
    "sourcePath": "/Users/lucioreis/Desktop/paper-acess-control-blockchain/smart-contracts/ABAC_ETH_AC_V3.sol",
    "compiler": {
        "name": "solc",
        "version": "0.8.7+commit.e28d00a7"
    },
    "functionHashes": {
        "evaluateRequest(string,uint256,string[],bytes32,bytes,uint8[])": "aec3dae3",
        "grantAccess(string,string,uint256,string[])": "110a6f50",
        "revokeAccess(string,uint256,string,string[])": "5951b7c6",
        "setAttributesContractAddr(address)": "d739cbbf",
        "setDecisionContractAddr(address)": "1d22a089",
        "setExpirationTime(uint256)": "c0cc365d",
        "verifyAccess(string,uint256,string,string[],uint256)": "296e4909"
    },
    "gasEstimates": {
        "creation": {
            "codeDepositCost": "727400",
            "executionCost": "47101",
            "totalCost": "774501"
        },
        "external": {
            "evaluateRequest(string,uint256,string[],bytes32,bytes,uint8[])": "infinite",
            "grantAccess(string,string,uint256,string[])": "infinite",
            "revokeAccess(string,uint256,string,string[])": "infinite",
            "setAttributesContractAddr(address)": "24590",
            "setDecisionContractAddr(address)": "24547",
            "setExpirationTime(uint256)": "22356",
            "verifyAccess(string,uint256,string,string[],uint256)": "infinite"
        },
        "internal": {
            "getGrantedAccess(string memory,uint256,string memory,string memory[] memory,uint256)": "infinite",
            "hashIndex(string memory,uint256,string memory[] memory)": "infinite"
        }
    }
}