{
    "contractName": "Decision",
    "abi": [
        {
            "inputs": [],
            "stateMutability": "nonpayable",
            "type": "constructor"
        },
        {
            "anonymous": false,
            "inputs": [
                {
                    "indexed": false,
                    "internalType": "address",
                    "name": "_contract",
                    "type": "address"
                },
                {
                    "indexed": false,
                    "internalType": "address",
                    "name": "_contract_address",
                    "type": "address"
                }
            ],
            "name": "addressSetted",
            "type": "event"
        },
        {
            "anonymous": false,
            "inputs": [
                {
                    "components": [
                        {
                            "internalType": "uint256",
                            "name": "uuid",
                            "type": "uint256"
                        },
                        {
                            "internalType": "string",
                            "name": "access_type",
                            "type": "string"
                        },
                        {
                            "internalType": "bool",
                            "name": "attr1",
                            "type": "bool"
                        },
                        {
                            "internalType": "bool",
                            "name": "attr2",
                            "type": "bool"
                        },
                        {
                            "internalType": "bool",
                            "name": "attr3",
                            "type": "bool"
                        },
                        {
                            "internalType": "bool",
                            "name": "attr4",
                            "type": "bool"
                        },
                        {
                            "internalType": "bool",
                            "name": "attr5",
                            "type": "bool"
                        },
                        {
                            "internalType": "bool",
                            "name": "attr6",
                            "type": "bool"
                        },
                        {
                            "internalType": "bool",
                            "name": "attr7",
                            "type": "bool"
                        },
                        {
                            "internalType": "bool",
                            "name": "attr8",
                            "type": "bool"
                        }
                    ],
                    "indexed": false,
                    "internalType": "struct Policies.Policy",
                    "name": "_policy",
                    "type": "tuple"
                },
                {
                    "indexed": false,
                    "internalType": "uint8[]",
                    "name": "_attributes",
                    "type": "uint8[]"
                }
            ],
            "name": "attrsComplyingWithPolicy",
            "type": "event"
        },
        {
            "anonymous": false,
            "inputs": [
                {
                    "components": [
                        {
                            "internalType": "uint256",
                            "name": "uuid",
                            "type": "uint256"
                        },
                        {
                            "internalType": "string",
                            "name": "access_type",
                            "type": "string"
                        },
                        {
                            "internalType": "bool",
                            "name": "attr1",
                            "type": "bool"
                        },
                        {
                            "internalType": "bool",
                            "name": "attr2",
                            "type": "bool"
                        },
                        {
                            "internalType": "bool",
                            "name": "attr3",
                            "type": "bool"
                        },
                        {
                            "internalType": "bool",
                            "name": "attr4",
                            "type": "bool"
                        },
                        {
                            "internalType": "bool",
                            "name": "attr5",
                            "type": "bool"
                        },
                        {
                            "internalType": "bool",
                            "name": "attr6",
                            "type": "bool"
                        },
                        {
                            "internalType": "bool",
                            "name": "attr7",
                            "type": "bool"
                        },
                        {
                            "internalType": "bool",
                            "name": "attr8",
                            "type": "bool"
                        }
                    ],
                    "indexed": false,
                    "internalType": "struct Policies.Policy",
                    "name": "_policy",
                    "type": "tuple"
                },
                {
                    "indexed": false,
                    "internalType": "uint8[]",
                    "name": "_attributes",
                    "type": "uint8[]"
                }
            ],
            "name": "attrsNotComplyingWithPolicy",
            "type": "event"
        },
        {
            "anonymous": false,
            "inputs": [
                {
                    "indexed": false,
                    "internalType": "uint8[]",
                    "name": "_attributes",
                    "type": "uint8[]"
                },
                {
                    "indexed": false,
                    "internalType": "string",
                    "name": "_public_key",
                    "type": "string"
                },
                {
                    "indexed": false,
                    "internalType": "bytes32",
                    "name": "_hash",
                    "type": "bytes32"
                }
            ],
            "name": "invalidHashComparison",
            "type": "event"
        },
        {
            "anonymous": false,
            "inputs": [
                {
                    "indexed": false,
                    "internalType": "address",
                    "name": "_org_address",
                    "type": "address"
                },
                {
                    "indexed": false,
                    "internalType": "bytes",
                    "name": "_signed_message",
                    "type": "bytes"
                }
            ],
            "name": "invalidOrganisationSignature",
            "type": "event"
        },
        {
            "anonymous": false,
            "inputs": [
                {
                    "indexed": false,
                    "internalType": "uint8[]",
                    "name": "_attributes",
                    "type": "uint8[]"
                },
                {
                    "indexed": false,
                    "internalType": "string",
                    "name": "_public_key",
                    "type": "string"
                },
                {
                    "indexed": false,
                    "internalType": "bytes32",
                    "name": "_hash",
                    "type": "bytes32"
                }
            ],
            "name": "validHashComparison",
            "type": "event"
        },
        {
            "anonymous": false,
            "inputs": [
                {
                    "indexed": false,
                    "internalType": "address",
                    "name": "_org_address",
                    "type": "address"
                },
                {
                    "indexed": false,
                    "internalType": "bytes",
                    "name": "_signed_message",
                    "type": "bytes"
                }
            ],
            "name": "validOrganisationSignature",
            "type": "event"
        },
        {
            "inputs": [
                {
                    "internalType": "string",
                    "name": "_access_type",
                    "type": "string"
                }
            ],
            "name": "loadPolicy",
            "outputs": [
                {
                    "components": [
                        {
                            "internalType": "uint256",
                            "name": "uuid",
                            "type": "uint256"
                        },
                        {
                            "internalType": "string",
                            "name": "access_type",
                            "type": "string"
                        },
                        {
                            "internalType": "bool",
                            "name": "attr1",
                            "type": "bool"
                        },
                        {
                            "internalType": "bool",
                            "name": "attr2",
                            "type": "bool"
                        },
                        {
                            "internalType": "bool",
                            "name": "attr3",
                            "type": "bool"
                        },
                        {
                            "internalType": "bool",
                            "name": "attr4",
                            "type": "bool"
                        },
                        {
                            "internalType": "bool",
                            "name": "attr5",
                            "type": "bool"
                        },
                        {
                            "internalType": "bool",
                            "name": "attr6",
                            "type": "bool"
                        },
                        {
                            "internalType": "bool",
                            "name": "attr7",
                            "type": "bool"
                        },
                        {
                            "internalType": "bool",
                            "name": "attr8",
                            "type": "bool"
                        }
                    ],
                    "internalType": "struct Policies.Policy",
                    "name": "",
                    "type": "tuple"
                }
            ],
            "stateMutability": "nonpayable",
            "type": "function"
        },
        {
            "inputs": [
                {
                    "internalType": "address",
                    "name": "_signer_address",
                    "type": "address"
                },
                {
                    "internalType": "bytes",
                    "name": "_signed_token",
                    "type": "bytes"
                }
            ],
            "name": "orgSignValidated",
            "outputs": [
                {
                    "internalType": "bool",
                    "name": "",
                    "type": "bool"
                }
            ],
            "stateMutability": "nonpayable",
            "type": "function"
        },
        {
            "inputs": [
                {
                    "components": [
                        {
                            "internalType": "uint256",
                            "name": "uuid",
                            "type": "uint256"
                        },
                        {
                            "internalType": "string",
                            "name": "access_type",
                            "type": "string"
                        },
                        {
                            "internalType": "bool",
                            "name": "attr1",
                            "type": "bool"
                        },
                        {
                            "internalType": "bool",
                            "name": "attr2",
                            "type": "bool"
                        },
                        {
                            "internalType": "bool",
                            "name": "attr3",
                            "type": "bool"
                        },
                        {
                            "internalType": "bool",
                            "name": "attr4",
                            "type": "bool"
                        },
                        {
                            "internalType": "bool",
                            "name": "attr5",
                            "type": "bool"
                        },
                        {
                            "internalType": "bool",
                            "name": "attr6",
                            "type": "bool"
                        },
                        {
                            "internalType": "bool",
                            "name": "attr7",
                            "type": "bool"
                        },
                        {
                            "internalType": "bool",
                            "name": "attr8",
                            "type": "bool"
                        }
                    ],
                    "internalType": "struct Policies.Policy",
                    "name": "loaded_policy",
                    "type": "tuple"
                },
                {
                    "internalType": "uint8[]",
                    "name": "_attrs",
                    "type": "uint8[]"
                }
            ],
            "name": "policyCompliant",
            "outputs": [
                {
                    "internalType": "bool",
                    "name": "",
                    "type": "bool"
                }
            ],
            "stateMutability": "nonpayable",
            "type": "function"
        },
        {
            "inputs": [
                {
                    "internalType": "string",
                    "name": "_access_type",
                    "type": "string"
                },
                {
                    "internalType": "string",
                    "name": "_public_key",
                    "type": "string"
                },
                {
                    "internalType": "uint256",
                    "name": "_data_subject_id",
                    "type": "uint256"
                },
                {
                    "internalType": "string[]",
                    "name": "_actions",
                    "type": "string[]"
                },
                {
                    "internalType": "uint8[]",
                    "name": "_attributes",
                    "type": "uint8[]"
                }
            ],
            "name": "requestAccess",
            "outputs": [],
            "stateMutability": "nonpayable",
            "type": "function"
        },
        {
            "inputs": [
                {
                    "internalType": "address",
                    "name": "_address",
                    "type": "address"
                }
            ],
            "name": "setAttributesContractAddr",
            "outputs": [],
            "stateMutability": "nonpayable",
            "type": "function"
        },
        {
            "inputs": [
                {
                    "internalType": "address",
                    "name": "_address",
                    "type": "address"
                }
            ],
            "name": "setDataAccessContractAddr",
            "outputs": [],
            "stateMutability": "nonpayable",
            "type": "function"
        },
        {
            "inputs": [
                {
                    "internalType": "address",
                    "name": "_address",
                    "type": "address"
                }
            ],
            "name": "setPoliciesContractAddr",
            "outputs": [],
            "stateMutability": "nonpayable",
            "type": "function"
        },
        {
            "inputs": [
                {
                    "internalType": "bytes32",
                    "name": "_hashed_token",
                    "type": "bytes32"
                },
                {
                    "internalType": "uint8[]",
                    "name": "_attr",
                    "type": "uint8[]"
                },
                {
                    "internalType": "string",
                    "name": "_public_key",
                    "type": "string"
                }
            ],
            "name": "signatureAndProfessionalVerification",
            "outputs": [
                {
                    "internalType": "bool",
                    "name": "",
                    "type": "bool"
                }
            ],
            "stateMutability": "nonpayable",
            "type": "function"
        },
        {
            "inputs": [
                {
                    "internalType": "string",
                    "name": "_access_type",
                    "type": "string"
                },
                {
                    "internalType": "uint256",
                    "name": "_data_subject_id",
                    "type": "uint256"
                },
                {
                    "internalType": "string[]",
                    "name": "_actions",
                    "type": "string[]"
                },
                {
                    "internalType": "bytes32",
                    "name": "_hashed_token",
                    "type": "bytes32"
                },
                {
                    "internalType": "bytes",
                    "name": "_signed_token",
                    "type": "bytes"
                },
                {
                    "internalType": "uint8[]",
                    "name": "attributes",
                    "type": "uint8[]"
                }
            ],
            "name": "startSmartContract",
            "outputs": [],
            "stateMutability": "nonpayable",
            "type": "function"
        },
        {
            "inputs": [
                {
                    "internalType": "address",
                    "name": "_address",
                    "type": "address"
                }
            ],
            "name": "toBytes",
            "outputs": [
                {
                    "internalType": "bytes",
                    "name": "",
                    "type": "bytes"
                }
            ],
            "stateMutability": "pure",
            "type": "function"
        }
    ],
    "bytecode": "608060405234801561001057600080fd5b50600980546001600160a01b0319163317905560086020527fad67d757c34507f157cacfa2e3153e9f260a2244f30428821be7be64587ac55f805460ff19908116600117909155600080527f5eff886ea0ce6ca488a3d6e336d6c0f75f46d19b42c06ce5ee98e42c96d256c78054909116905561149d806100926000396000f3fe608060405234801561001057600080fd5b506004361061009e5760003560e01c806388da1ea41161006657806388da1ea41461015b578063949806301461018b57806395dd06e21461019e578063961b182d146101be578063d739cbbf146101ee57600080fd5b80631f7ca52a146100a3578063593b79fe146100b857806363b65289146101125780636943aa9e146101355780637bda696b14610148575b600080fd5b6100b66100b1366004610dee565b61021e565b005b6100fc6100c6366004610bdf565b604051606082811b6bffffffffffffffffffffffff19166020830152906034016040516020818303038152906040529050919050565b604051610109919061127e565b60405180910390f35b610125610120366004610bfa565b61039a565b6040519015158152602001610109565b6100b6610143366004610d38565b6104a1565b610125610156366004610fb3565b61053f565b6100b6610169366004610bdf565b600580546001600160a01b0319166001600160a01b0392909216919091179055565b610125610199366004610c64565b610854565b6101b16101ac366004610cd0565b610917565b604051610109919061131f565b6100b66101cc366004610bdf565b600380546001600160a01b0319166001600160a01b0392909216919091179055565b6100b66101fc366004610bdf565b600480546001600160a01b0319166001600160a01b0392909216919091179055565b806000808061022c87610a01565b604080516000808252602082018084528d905260ff861692820192909252606081018490526080810183905293965091945092509060019060a0016020604051602081039080840390855afa158015610289573d6000803e3d6000fd5b5050604051601f190151600454600280546001600160a01b0319166001600160a01b0390921691909117905591506102c39050818861039a565b15610382576002546040516317fd22a760e21b81526001600160a01b0383811660048301523360248301526000921690635ff48a9c90604401600060405180830381600087803b15801561031657600080fd5b505af115801561032a573d6000803e3d6000fd5b505050506040513d6000823e601f3d908101601f191682016040526103529190810190610d04565b905061035f898783610854565b1561037c576103718c828d8d8a6104a1565b505050505050610392565b5061038c565b5050505050610392565b50505050505b505050505050565b60025460405163c62a4b5d60e01b81526001600160a01b038481166004830152600092169063c62a4b5d9060240160206040518083038186803b1580156103e057600080fd5b505afa1580156103f4573d6000803e3d6000fd5b505050506040513d601f19601f820116820180604052508101906104189190610c47565b1561045e577f77968593b94a185a7994b0eaa4c12581abb535ed975e3fb29669e6635f068bdd838360405161044e9291906111f6565b60405180910390a150600161049b565b7fd71ec54d47ce5ab2c23e3a1922ac7cbd9c2f72b7c6da9e19302f09b5697d6ca9838360405161048f9291906111f6565b60405180910390a15060005b92915050565b60006104ac86610917565b90506104b8818361053f565b1561039257600554600180546001600160a01b0319166001600160a01b039092169182179055604051630110a6f560e41b815263110a6f50906105059088908a9089908990600401611291565b600060405180830381600087803b15801561051f57600080fd5b505af1158015610533573d6000803e3d6000fd5b50505050505050505050565b60008060019050600860008460008151811061055d5761055d61142a565b602002602001015160ff16815260200190815260200160002060009054906101000a900460ff1615158460400151151514610596575060005b60086000846001815181106105ad576105ad61142a565b602002602001015160ff16815260200190815260200160002060009054906101000a900460ff16151584606001511515146105e6575060005b60086000846002815181106105fd576105fd61142a565b602002602001015160ff16815260200190815260200160002060009054906101000a900460ff1615158460800151151514610636575060005b600860008460038151811061064d5761064d61142a565b602002602001015160ff16815260200190815260200160002060009054906101000a900460ff1615158460a00151151514610686575060005b600860008460048151811061069d5761069d61142a565b602002602001015160ff16815260200190815260200160002060009054906101000a900460ff1615158460c001511515146106d6575060005b60086000846005815181106106ed576106ed61142a565b602002602001015160ff16815260200190815260200160002060009054906101000a900460ff1615158460e00151151514610726575060005b600860008460068151811061073d5761073d61142a565b602002602001015160ff16815260200190815260200160002060009054906101000a900460ff161515846101000151151514610777575060005b600860008460078151811061078e5761078e61142a565b602002602001015160ff16815260200190815260200160002060009054906101000a900460ff1615158461012001511515146107c8575060005b8015610811577f37e2ec5460b5975a30df626ad62ce665dd5e67bc7033dcf99c08bb2dd3cecd3f84846040516107ff929190611332565b60405180910390a1600191505061049b565b7f959daeb21a5e6d36c7a16980e218c8d4b0271d69907c1672197db65affb7a6958484604051610842929190611332565b60405180910390a1600091505061049b565b600080838360405160200161086a92919061121a565b604051602081830303815290604052805190602001209050848114156108cf577fa86eb77748274ce4a63a76b83f5259af8c0128fe7e4eda6210c31d37550f4ff98484876040516108bd93929190611248565b60405180910390a16001915050610910565b7f0bcb08d0e82dd3250f99f161630312f53c102ea52eb40a50f79917cf1be5b9f484848760405161090293929190611248565b60405180910390a160009150505b9392505050565b604080516101408101825260008082526060602083018190529282018190529181018290526080810182905260a0810182905260c0810182905260e081018290526101008101829052610120810191909152600354600080546001600160a01b0319166001600160a01b039092169182179055604051635918492f60e01b8152635918492f906109ab90859060040161127e565b600060405180830381600087803b1580156109c557600080fd5b505af11580156109d9573d6000803e3d6000fd5b505050506040513d6000823e601f3d908101601f1916820160405261049b9190810190610eac565b60008080600080fd5b80356001600160a01b0381168114610a2157600080fd5b919050565b600082601f830112610a3757600080fd5b81356020610a4c610a47836113b0565b611380565b80838252828201915082860187848660051b8901011115610a6c57600080fd5b6000805b86811015610aae5782356001600160401b03811115610a8d578283fd5b610a9b8b88838d0101610b41565b8652509385019391850191600101610a70565b509198975050505050505050565b600082601f830112610acd57600080fd5b81356020610add610a47836113b0565b80838252828201915082860187848660051b8901011115610afd57600080fd5b6000805b86811015610aae57823560ff81168114610b19578283fd5b85529385019391850191600101610b01565b8035610a2181611456565b8051610a2181611456565b600082601f830112610b5257600080fd5b8135610b60610a47826113d3565b818152846020838601011115610b7557600080fd5b816020850160208301376000918101602001919091529392505050565b600082601f830112610ba357600080fd5b8151610bb1610a47826113d3565b818152846020838601011115610bc657600080fd5b610bd78260208301602087016113fa565b949350505050565b600060208284031215610bf157600080fd5b61091082610a0a565b60008060408385031215610c0d57600080fd5b610c1683610a0a565b915060208301356001600160401b03811115610c3157600080fd5b610c3d85828601610b41565b9150509250929050565b600060208284031215610c5957600080fd5b815161091081611456565b600080600060608486031215610c7957600080fd5b8335925060208401356001600160401b0380821115610c9757600080fd5b610ca387838801610abc565b93506040860135915080821115610cb957600080fd5b50610cc686828701610b41565b9150509250925092565b600060208284031215610ce257600080fd5b81356001600160401b03811115610cf857600080fd5b610bd784828501610b41565b600060208284031215610d1657600080fd5b81516001600160401b03811115610d2c57600080fd5b610bd784828501610b92565b600080600080600060a08688031215610d5057600080fd5b85356001600160401b0380821115610d6757600080fd5b610d7389838a01610b41565b96506020880135915080821115610d8957600080fd5b610d9589838a01610b41565b9550604088013594506060880135915080821115610db257600080fd5b610dbe89838a01610a26565b93506080880135915080821115610dd457600080fd5b50610de188828901610abc565b9150509295509295909350565b60008060008060008060c08789031215610e0757600080fd5b86356001600160401b0380821115610e1e57600080fd5b610e2a8a838b01610b41565b9750602089013596506040890135915080821115610e4757600080fd5b610e538a838b01610a26565b9550606089013594506080890135915080821115610e7057600080fd5b610e7c8a838b01610b41565b935060a0890135915080821115610e9257600080fd5b50610e9f89828a01610abc565b9150509295509295509295565b600060208284031215610ebe57600080fd5b81516001600160401b0380821115610ed557600080fd5b908301906101408286031215610eea57600080fd5b610ef2611357565b82518152602083015182811115610f0857600080fd5b610f1487828601610b92565b602083015250610f2660408401610b36565b6040820152610f3760608401610b36565b6060820152610f4860808401610b36565b6080820152610f5960a08401610b36565b60a0820152610f6a60c08401610b36565b60c0820152610f7b60e08401610b36565b60e08201526101009150610f90828401610b36565b828201526101209150610fa4828401610b36565b91810191909152949350505050565b60008060408385031215610fc657600080fd5b82356001600160401b0380821115610fdd57600080fd5b908401906101408287031215610ff257600080fd5b610ffa611357565b8235815260208301358281111561101057600080fd5b61101c88828601610b41565b60208301525061102e60408401610b2b565b604082015261103f60608401610b2b565b606082015261105060808401610b2b565b608082015261106160a08401610b2b565b60a082015261107260c08401610b2b565b60c082015261108360e08401610b2b565b60e0820152610100611096818501610b2b565b908201526101206110a8848201610b2b565b90820152935060208501359150808211156110c257600080fd5b50610c3d85828601610abc565b600081518084526020808501945080840160005b8381101561110257815160ff16875295820195908201906001016110e3565b509495945050505050565b600081518084526111258160208601602086016113fa565b601f01601f19169290920160200192915050565b60006101408251845260208301518160208601526111598286018261110d565b915050604083015161116f604086018215159052565b506060830151611183606086018215159052565b506080830151611197608086018215159052565b5060a08301516111ab60a086018215159052565b5060c08301516111bf60c086018215159052565b5060e08301516111d360e086018215159052565b506101008381015115159085015261012092830151151592909301919091525090565b6001600160a01b0383168152604060208201819052600090610bd79083018461110d565b60408152600061122d60408301856110cf565b828103602084015261123f818561110d565b95945050505050565b60608152600061125b60608301866110cf565b828103602084015261126d818661110d565b915050826040830152949350505050565b602081526000610910602083018461110d565b6080815260006112a4608083018761110d565b6020838203818501526112b7828861110d565b915085604085015283820360608501528185518084528284019150828160051b85010183880160005b8381101561130e57601f198784030185526112fc83835161110d565b948601949250908501906001016112e0565b50909b9a5050505050505050505050565b6020815260006109106020830184611139565b6040815260006113456040830185611139565b828103602084015261123f81856110cf565b60405161014081016001600160401b038111828210171561137a5761137a611440565b60405290565b604051601f8201601f191681016001600160401b03811182821017156113a8576113a8611440565b604052919050565b60006001600160401b038211156113c9576113c9611440565b5060051b60200190565b60006001600160401b038211156113ec576113ec611440565b50601f01601f191660200190565b60005b838110156114155781810151838201526020016113fd565b83811115611424576000848401525b50505050565b634e487b7160e01b600052603260045260246000fd5b634e487b7160e01b600052604160045260246000fd5b801515811461146457600080fd5b5056fea264697066735822122007662cb60a2795cca0447c30d9286c2fe1dd1c4ca1734eec792163bcc1ff206064736f6c63430008070033",
    "sourcePath": "/Users/lucioreis/Desktop/paper-acess-control-blockchain/smart-contracts/ABAC_ETH_AC_V3.sol",
    "compiler": {
        "name": "solc",
        "version": "0.8.7+commit.e28d00a7"
    },
    "functionHashes": {
        "loadPolicy(string)": "95dd06e2",
        "orgSignValidated(address,bytes)": "63b65289",
        "policyCompliant((uint256,string,bool,bool,bool,bool,bool,bool,bool,bool),uint8[])": "7bda696b",
        "requestAccess(string,string,uint256,string[],uint8[])": "6943aa9e",
        "setAttributesContractAddr(address)": "d739cbbf",
        "setDataAccessContractAddr(address)": "88da1ea4",
        "setPoliciesContractAddr(address)": "961b182d",
        "signatureAndProfessionalVerification(bytes32,uint8[],string)": "94980630",
        "startSmartContract(string,uint256,string[],bytes32,bytes,uint8[])": "1f7ca52a",
        "toBytes(address)": "593b79fe"
    },
    "gasEstimates": {
        "creation": {
            "codeDepositCost": "1055400",
            "executionCost": "73798",
            "totalCost": "1129198"
        },
        "external": {
            "loadPolicy(string)": "infinite",
            "orgSignValidated(address,bytes)": "infinite",
            "policyCompliant((uint256,string,bool,bool,bool,bool,bool,bool,bool,bool),uint8[])": "infinite",
            "requestAccess(string,string,uint256,string[],uint8[])": "infinite",
            "setAttributesContractAddr(address)": "24647",
            "setDataAccessContractAddr(address)": "24559",
            "setPoliciesContractAddr(address)": "24625",
            "signatureAndProfessionalVerification(bytes32,uint8[],string)": "infinite",
            "startSmartContract(string,uint256,string[],bytes32,bytes,uint8[])": "infinite",
            "toBytes(address)": "infinite"
        },
        "internal": {
            "splitSignature(bytes32)": "16"
        }
    }
}