{
    "contractName": "Decision",
    "abi": [
        {
            "inputs": [],
            "stateMutability": "nonpayable",
            "type": "constructor"
        },
        {
            "anonymous": false,
            "inputs": [
                {
                    "indexed": false,
                    "internalType": "address",
                    "name": "_contract",
                    "type": "address"
                },
                {
                    "indexed": false,
                    "internalType": "address",
                    "name": "_contract_address",
                    "type": "address"
                }
            ],
            "name": "addressSetted",
            "type": "event"
        },
        {
            "anonymous": false,
            "inputs": [
                {
                    "components": [
                        {
                            "internalType": "uint256",
                            "name": "uuid",
                            "type": "uint256"
                        },
                        {
                            "internalType": "string",
                            "name": "context_expression",
                            "type": "string"
                        },
                        {
                            "internalType": "uint8",
                            "name": "policy",
                            "type": "uint8"
                        },
                        {
                            "internalType": "bool",
                            "name": "conventional_access",
                            "type": "bool"
                        },
                        {
                            "internalType": "bool",
                            "name": "emergency_access",
                            "type": "bool"
                        }
                    ],
                    "indexed": false,
                    "internalType": "struct Policies.Policy",
                    "name": "_policy",
                    "type": "tuple"
                },
                {
                    "indexed": false,
                    "internalType": "uint8",
                    "name": "_attributes",
                    "type": "uint8"
                }
            ],
            "name": "attrsComplyingWithPolicy",
            "type": "event"
        },
        {
            "anonymous": false,
            "inputs": [
                {
                    "components": [
                        {
                            "internalType": "uint256",
                            "name": "uuid",
                            "type": "uint256"
                        },
                        {
                            "internalType": "string",
                            "name": "context_expression",
                            "type": "string"
                        },
                        {
                            "internalType": "uint8",
                            "name": "policy",
                            "type": "uint8"
                        },
                        {
                            "internalType": "bool",
                            "name": "conventional_access",
                            "type": "bool"
                        },
                        {
                            "internalType": "bool",
                            "name": "emergency_access",
                            "type": "bool"
                        }
                    ],
                    "indexed": false,
                    "internalType": "struct Policies.Policy",
                    "name": "_policy",
                    "type": "tuple"
                },
                {
                    "indexed": false,
                    "internalType": "uint8",
                    "name": "_attributes",
                    "type": "uint8"
                }
            ],
            "name": "attrsNotComplyingWithPolicy",
            "type": "event"
        },
        {
            "anonymous": false,
            "inputs": [
                {
                    "indexed": false,
                    "internalType": "uint8",
                    "name": "_attributes",
                    "type": "uint8"
                },
                {
                    "indexed": false,
                    "internalType": "string",
                    "name": "_public_key",
                    "type": "string"
                },
                {
                    "indexed": false,
                    "internalType": "bytes32",
                    "name": "_hash",
                    "type": "bytes32"
                }
            ],
            "name": "invalidHashComparison",
            "type": "event"
        },
        {
            "anonymous": false,
            "inputs": [
                {
                    "indexed": false,
                    "internalType": "address",
                    "name": "_controller_addr",
                    "type": "address"
                },
                {
                    "indexed": false,
                    "internalType": "bytes",
                    "name": "_signed_message",
                    "type": "bytes"
                }
            ],
            "name": "invalidOrganisationSignature",
            "type": "event"
        },
        {
            "anonymous": false,
            "inputs": [
                {
                    "indexed": false,
                    "internalType": "address",
                    "name": "_signerAddress",
                    "type": "address"
                }
            ],
            "name": "signerAddress",
            "type": "event"
        },
        {
            "anonymous": false,
            "inputs": [
                {
                    "indexed": false,
                    "internalType": "uint8",
                    "name": "_attributes",
                    "type": "uint8"
                },
                {
                    "indexed": false,
                    "internalType": "string",
                    "name": "_public_key",
                    "type": "string"
                },
                {
                    "indexed": false,
                    "internalType": "bytes32",
                    "name": "_hash",
                    "type": "bytes32"
                }
            ],
            "name": "validHashComparison",
            "type": "event"
        },
        {
            "anonymous": false,
            "inputs": [
                {
                    "indexed": false,
                    "internalType": "address",
                    "name": "_controller_addr",
                    "type": "address"
                },
                {
                    "indexed": false,
                    "internalType": "bytes",
                    "name": "_signed_message",
                    "type": "bytes"
                }
            ],
            "name": "validOrganisationSignature",
            "type": "event"
        },
        {
            "inputs": [
                {
                    "internalType": "string",
                    "name": "_context_expression",
                    "type": "string"
                },
                {
                    "internalType": "uint8",
                    "name": "_actions",
                    "type": "uint8"
                },
                {
                    "internalType": "uint256",
                    "name": "_resource_id",
                    "type": "uint256"
                }
            ],
            "name": "loadPolicy",
            "outputs": [
                {
                    "components": [
                        {
                            "internalType": "uint256",
                            "name": "uuid",
                            "type": "uint256"
                        },
                        {
                            "internalType": "string",
                            "name": "context_expression",
                            "type": "string"
                        },
                        {
                            "internalType": "uint8",
                            "name": "policy",
                            "type": "uint8"
                        },
                        {
                            "internalType": "bool",
                            "name": "conventional_access",
                            "type": "bool"
                        },
                        {
                            "internalType": "bool",
                            "name": "emergency_access",
                            "type": "bool"
                        }
                    ],
                    "internalType": "struct Policies.Policy",
                    "name": "",
                    "type": "tuple"
                }
            ],
            "stateMutability": "nonpayable",
            "type": "function"
        },
        {
            "inputs": [
                {
                    "internalType": "address",
                    "name": "_signer_address",
                    "type": "address"
                },
                {
                    "internalType": "bytes",
                    "name": "_signed_token",
                    "type": "bytes"
                }
            ],
            "name": "orgSignValidated",
            "outputs": [
                {
                    "internalType": "bool",
                    "name": "",
                    "type": "bool"
                }
            ],
            "stateMutability": "nonpayable",
            "type": "function"
        },
        {
            "inputs": [
                {
                    "components": [
                        {
                            "internalType": "uint256",
                            "name": "uuid",
                            "type": "uint256"
                        },
                        {
                            "internalType": "string",
                            "name": "context_expression",
                            "type": "string"
                        },
                        {
                            "internalType": "uint8",
                            "name": "policy",
                            "type": "uint8"
                        },
                        {
                            "internalType": "bool",
                            "name": "conventional_access",
                            "type": "bool"
                        },
                        {
                            "internalType": "bool",
                            "name": "emergency_access",
                            "type": "bool"
                        }
                    ],
                    "internalType": "struct Policies.Policy",
                    "name": "loaded_policy",
                    "type": "tuple"
                },
                {
                    "internalType": "uint8",
                    "name": "_attrs",
                    "type": "uint8"
                }
            ],
            "name": "policyCompliant",
            "outputs": [
                {
                    "internalType": "bool",
                    "name": "",
                    "type": "bool"
                }
            ],
            "stateMutability": "nonpayable",
            "type": "function"
        },
        {
            "inputs": [
                {
                    "internalType": "string",
                    "name": "_context_expression",
                    "type": "string"
                },
                {
                    "internalType": "string",
                    "name": "_public_key",
                    "type": "string"
                },
                {
                    "internalType": "uint256",
                    "name": "_resource_id",
                    "type": "uint256"
                },
                {
                    "internalType": "uint8",
                    "name": "_actions",
                    "type": "uint8"
                },
                {
                    "internalType": "uint8",
                    "name": "_attributes",
                    "type": "uint8"
                }
            ],
            "name": "requestAccess",
            "outputs": [],
            "stateMutability": "nonpayable",
            "type": "function"
        },
        {
            "inputs": [
                {
                    "internalType": "address",
                    "name": "_address",
                    "type": "address"
                }
            ],
            "name": "setAttributesContractAddr",
            "outputs": [],
            "stateMutability": "nonpayable",
            "type": "function"
        },
        {
            "inputs": [
                {
                    "internalType": "address",
                    "name": "_address",
                    "type": "address"
                }
            ],
            "name": "setDataAccessContractAddr",
            "outputs": [],
            "stateMutability": "nonpayable",
            "type": "function"
        },
        {
            "inputs": [
                {
                    "internalType": "address",
                    "name": "_address",
                    "type": "address"
                }
            ],
            "name": "setPoliciesContractAddr",
            "outputs": [],
            "stateMutability": "nonpayable",
            "type": "function"
        },
        {
            "inputs": [
                {
                    "internalType": "bytes32",
                    "name": "_hashed_token",
                    "type": "bytes32"
                },
                {
                    "internalType": "uint8",
                    "name": "_attr",
                    "type": "uint8"
                },
                {
                    "internalType": "string",
                    "name": "_public_key",
                    "type": "string"
                }
            ],
            "name": "signatureAndProfessionalVerification",
            "outputs": [
                {
                    "internalType": "bool",
                    "name": "",
                    "type": "bool"
                }
            ],
            "stateMutability": "nonpayable",
            "type": "function"
        },
        {
            "inputs": [
                {
                    "internalType": "string",
                    "name": "_context_expression",
                    "type": "string"
                },
                {
                    "internalType": "uint256",
                    "name": "_resource_id",
                    "type": "uint256"
                },
                {
                    "internalType": "uint8",
                    "name": "_actions",
                    "type": "uint8"
                },
                {
                    "internalType": "bytes32",
                    "name": "_hashed_token",
                    "type": "bytes32"
                },
                {
                    "internalType": "bytes",
                    "name": "_signed_token",
                    "type": "bytes"
                },
                {
                    "internalType": "uint8",
                    "name": "_attributes",
                    "type": "uint8"
                }
            ],
            "name": "startSmartContract",
            "outputs": [],
            "stateMutability": "nonpayable",
            "type": "function"
        },
        {
            "inputs": [
                {
                    "internalType": "address",
                    "name": "_address",
                    "type": "address"
                }
            ],
            "name": "toBytes",
            "outputs": [
                {
                    "internalType": "bytes",
                    "name": "",
                    "type": "bytes"
                }
            ],
            "stateMutability": "pure",
            "type": "function"
        }
    ],
    "bytecode": "608060405234801561001057600080fd5b50600980546001600160a01b0319163317905560086020527fad67d757c34507f157cacfa2e3153e9f260a2244f30428821be7be64587ac55f805460ff19908116600117909155600080527f5eff886ea0ce6ca488a3d6e336d6c0f75f46d19b42c06ce5ee98e42c96d256c780549091169055610fb6806100926000396000f3fe608060405234801561001057600080fd5b506004361061009e5760003560e01c8063961b182d11610066578063961b182d146101785780639c4c04ee146101a8578063d739cbbf146101bb578063eb71751b146101eb578063f18c83ee1461020b57600080fd5b8063593b79fe146100a357806363b65289146100fd5780637a7a37101461012057806388da1ea4146101355780638fe72d4b14610165575b600080fd5b6100e76100b13660046108e3565b604051606082811b6bffffffffffffffffffffffff19166020830152906034016040516020818303038152906040529050919050565b6040516100f49190610d9d565b60405180910390f35b61011061010b3660046108fe565b61021e565b60405190151581526020016100f4565b61013361012e3660046109c2565b610325565b005b6101336101433660046108e3565b600580546001600160a01b0319166001600160a01b0392909216919091179055565b610110610173366004610c32565b6103c6565b6101336101863660046108e3565b600380546001600160a01b0319166001600160a01b0392909216919091179055565b6101106101b6366004610969565b6105df565b6101336101c93660046108e3565b600480546001600160a01b0319166001600160a01b0392909216919091179055565b6101fe6101f9366004610af6565b6106a2565b6040516100f49190610e18565b610133610219366004610a57565b610772565b60025460405163c62a4b5d60e01b81526001600160a01b038481166004830152600092169063c62a4b5d9060240160206040518083038186803b15801561026457600080fd5b505afa158015610278573d6000803e3d6000fd5b505050506040513d601f19601f8201168201806040525081019061029c919061094c565b156102e2577f77968593b94a185a7994b0eaa4c12581abb535ed975e3fb29669e6635f068bdd83836040516102d2929190610d79565b60405180910390a150600161031f565b7fd71ec54d47ce5ab2c23e3a1922ac7cbd9c2f72b7c6da9e19302f09b5697d6ca98383604051610313929190610d79565b60405180910390a15060005b92915050565b60006103328684866106a2565b905061033e81836103c6565b156103be57600554600180546001600160a01b0319166001600160a01b039092169182179055604051631c8c896d60e01b8152631c8c896d9061038b9088908a9089908990600401610db0565b600060405180830381600087803b1580156103a557600080fd5b505af11580156103b9573d6000803e3d6000fd5b505050505b505050505050565b60408201516000906001600160f81b031960f891821b8181169285901b161614156105ae578260600151156104b4576002546040516303aaf03b60e31b815260006004820152336024820181905260448201526001600160a01b0390911690631d5781d89060640160206040518083038186803b15801561044657600080fd5b505afa15801561045a573d6000803e3d6000fd5b505050506040513d601f19601f8201168201806040525081019061047e919061094c565b156104b4577fee0cf871e3384ed1e33430bcf01cbfa7e725c724d23ab9bcdd077f4a8b0c115883836040516102d2929190610e2b565b82608001511561057d576002546040516303aaf03b60e31b815260006004820152336024820181905260448201526001600160a01b0390911690631d5781d89060640160206040518083038186803b15801561050f57600080fd5b505afa158015610523573d6000803e3d6000fd5b505050506040513d601f19601f82011682018060405250810190610547919061094c565b1561057d577fee0cf871e3384ed1e33430bcf01cbfa7e725c724d23ab9bcdd077f4a8b0c115883836040516102d2929190610e2b565b7fee0cf871e3384ed1e33430bcf01cbfa7e725c724d23ab9bcdd077f4a8b0c115883836040516102d2929190610e2b565b7f3c531a0f5988afa701e91ac053243aad7cc6cb2cc3bfd6490dc3be78ba899e078383604051610313929190610e2b565b60008083836040516020016105f5929190610e50565b6040516020818303038152906040528051906020012090508481141561065a577fa2d13fdcb4a43341866be8c8351d3087b0944f7fca600f7ce6164a488234b41984848760405161064893929190610e6c565b60405180910390a1600191505061069b565b7f67963000048f05a53bcdebcaaf317e0e611fe58ec35d6cc4bdcdc39df428d02884848760405161068d93929190610e6c565b60405180910390a160009150505b9392505050565b6040805160a08101825260008082526060602083018190529282018190529181018290526080810191909152600354600080546001600160a01b0319166001600160a01b03909216918217905560405163eb71751b60e01b815263eb71751b9061071490879087908790600401610df0565b600060405180830381600087803b15801561072e57600080fd5b505af1158015610742573d6000803e3d6000fd5b505050506040513d6000823e601f3d908101601f1916820160405261076a9190810190610b50565b949350505050565b600080600061078086610847565b604080516000808252602082018084528c905260ff861692820192909252606081018490526080810183905293965091945092509060019060a0016020604051602081039080840390855afa1580156107dd573d6000803e3d6000fd5b5050604051601f19810151600454600280546001600160a01b0319166001600160a01b039283161790558116825292507f2c08ba1ee7c6025be61181ffa4ad75a731e815f0838c975a6e3dfd7f00a776c9915060200160405180910390a150505050505050505050565b60008080600080fd5b80356001600160a01b038116811461086757600080fd5b919050565b805161086781610f60565b600082601f83011261088857600080fd5b813561089b61089682610ef2565b610ec1565b8181528460208386010111156108b057600080fd5b816020850160208301376000918101602001919091529392505050565b803561086781610f71565b805161086781610f71565b6000602082840312156108f557600080fd5b61069b82610850565b6000806040838503121561091157600080fd5b61091a83610850565b9150602083013567ffffffffffffffff81111561093657600080fd5b61094285828601610877565b9150509250929050565b60006020828403121561095e57600080fd5b815161069b81610f60565b60008060006060848603121561097e57600080fd5b83359250602084013561099081610f71565b9150604084013567ffffffffffffffff8111156109ac57600080fd5b6109b886828701610877565b9150509250925092565b600080600080600060a086880312156109da57600080fd5b853567ffffffffffffffff808211156109f257600080fd5b6109fe89838a01610877565b96506020880135915080821115610a1457600080fd5b50610a2188828901610877565b945050604086013592506060860135610a3981610f71565b91506080860135610a4981610f71565b809150509295509295909350565b60008060008060008060c08789031215610a7057600080fd5b863567ffffffffffffffff80821115610a8857600080fd5b610a948a838b01610877565b97506020890135965060408901359150610aad82610f71565b9094506060880135935060808801359080821115610aca57600080fd5b50610ad789828a01610877565b92505060a0870135610ae881610f71565b809150509295509295509295565b600080600060608486031215610b0b57600080fd5b833567ffffffffffffffff811115610b2257600080fd5b610b2e86828701610877565b9350506020840135610b3f81610f71565b929592945050506040919091013590565b60006020808385031215610b6357600080fd5b825167ffffffffffffffff80821115610b7b57600080fd5b9084019060a08287031215610b8f57600080fd5b610b97610e98565b825181528383015182811115610bac57600080fd5b83019150601f82018713610bbf57600080fd5b8151610bcd61089682610ef2565b8181528886838601011115610be157600080fd5b610bf082878301888701610f1a565b8286015250610c01604084016108d8565b6040820152610c126060840161086c565b6060820152610c236080840161086c565b60808201529695505050505050565b60008060408385031215610c4557600080fd5b823567ffffffffffffffff80821115610c5d57600080fd5b9084019060a08287031215610c7157600080fd5b610c79610e98565b82358152602083013582811115610c8f57600080fd5b610c9b88828601610877565b60208301525060408301359150610cb182610f71565b81604082015260608301359150610cc782610f60565b81606082015260808301359250610cdd83610f60565b6080810192909252509150610cf4602084016108cd565b90509250929050565b60008151808452610d15816020860160208601610f1a565b601f01601f19169290920160200192915050565b805182526000602082015160a06020850152610d4860a0850182610cfd565b905060ff60408401511660408501526060830151151560608501526080830151151560808501528091505092915050565b6001600160a01b038316815260406020820181905260009061076a90830184610cfd565b60208152600061069b6020830184610cfd565b608081526000610dc36080830187610cfd565b8281036020840152610dd58187610cfd565b91505083604083015260ff8316606083015295945050505050565b606081526000610e036060830186610cfd565b60ff9490941660208301525060400152919050565b60208152600061069b6020830184610d29565b604081526000610e3e6040830185610d29565b905060ff831660208301529392505050565b60ff8316815260406020820152600061076a6040830184610cfd565b60ff84168152606060208201526000610e886060830185610cfd565b9050826040830152949350505050565b60405160a0810167ffffffffffffffff81118282101715610ebb57610ebb610f4a565b60405290565b604051601f8201601f1916810167ffffffffffffffff81118282101715610eea57610eea610f4a565b604052919050565b600067ffffffffffffffff821115610f0c57610f0c610f4a565b50601f01601f191660200190565b60005b83811015610f35578181015183820152602001610f1d565b83811115610f44576000848401525b50505050565b634e487b7160e01b600052604160045260246000fd5b8015158114610f6e57600080fd5b50565b60ff81168114610f6e57600080fdfea26469706673582212208cadbe8c5daf6577d428eba75fe2c131ffe17f1716cc0ec75d0dbb3b1f543fbe64736f6c63430008070033",
    "sourcePath": "/Users/lucioreis/Desktop/paper-acess-control-blockchain/smart-contracts/ABAC_ETH_AC_V4.sol",
    "compiler": {
        "name": "solc",
        "version": "0.8.7+commit.e28d00a7"
    },
    "functionHashes": {
        "loadPolicy(string,uint8,uint256)": "eb71751b",
        "orgSignValidated(address,bytes)": "63b65289",
        "policyCompliant((uint256,string,uint8,bool,bool),uint8)": "8fe72d4b",
        "requestAccess(string,string,uint256,uint8,uint8)": "7a7a3710",
        "setAttributesContractAddr(address)": "d739cbbf",
        "setDataAccessContractAddr(address)": "88da1ea4",
        "setPoliciesContractAddr(address)": "961b182d",
        "signatureAndProfessionalVerification(bytes32,uint8,string)": "9c4c04ee",
        "startSmartContract(string,uint256,uint8,bytes32,bytes,uint8)": "f18c83ee",
        "toBytes(address)": "593b79fe"
    },
    "gasEstimates": {
        "creation": {
            "codeDepositCost": "804400",
            "executionCost": "73542",
            "totalCost": "877942"
        },
        "external": {
            "loadPolicy(string,uint8,uint256)": "infinite",
            "orgSignValidated(address,bytes)": "infinite",
            "policyCompliant((uint256,string,uint8,bool,bool),uint8)": "infinite",
            "requestAccess(string,string,uint256,uint8,uint8)": "infinite",
            "setAttributesContractAddr(address)": "24603",
            "setDataAccessContractAddr(address)": "24626",
            "setPoliciesContractAddr(address)": "24559",
            "signatureAndProfessionalVerification(bytes32,uint8,string)": "infinite",
            "startSmartContract(string,uint256,uint8,bytes32,bytes,uint8)": "infinite",
            "toBytes(address)": "infinite"
        },
        "internal": {
            "splitSignature(bytes32)": "16"
        }
    }
}