{
    "contractName": "Policies",
    "abi": [
        {
            "inputs": [],
            "stateMutability": "nonpayable",
            "type": "constructor"
        },
        {
            "anonymous": false,
            "inputs": [
                {
                    "indexed": false,
                    "internalType": "uint256",
                    "name": "hash",
                    "type": "uint256"
                },
                {
                    "components": [
                        {
                            "internalType": "uint256",
                            "name": "uuid",
                            "type": "uint256"
                        },
                        {
                            "internalType": "string",
                            "name": "context_expression",
                            "type": "string"
                        },
                        {
                            "internalType": "uint8",
                            "name": "policy",
                            "type": "uint8"
                        },
                        {
                            "internalType": "bool",
                            "name": "conventional_access",
                            "type": "bool"
                        },
                        {
                            "internalType": "bool",
                            "name": "emergency_access",
                            "type": "bool"
                        }
                    ],
                    "indexed": false,
                    "internalType": "struct Policies.Policy",
                    "name": "policy",
                    "type": "tuple"
                }
            ],
            "name": "changedPolicy",
            "type": "event"
        },
        {
            "anonymous": false,
            "inputs": [
                {
                    "indexed": false,
                    "internalType": "uint256",
                    "name": "hash",
                    "type": "uint256"
                },
                {
                    "components": [
                        {
                            "internalType": "uint256",
                            "name": "uuid",
                            "type": "uint256"
                        },
                        {
                            "internalType": "string",
                            "name": "context_expression",
                            "type": "string"
                        },
                        {
                            "internalType": "uint8",
                            "name": "policy",
                            "type": "uint8"
                        },
                        {
                            "internalType": "bool",
                            "name": "conventional_access",
                            "type": "bool"
                        },
                        {
                            "internalType": "bool",
                            "name": "emergency_access",
                            "type": "bool"
                        }
                    ],
                    "indexed": false,
                    "internalType": "struct Policies.Policy",
                    "name": "policy",
                    "type": "tuple"
                }
            ],
            "name": "createdPolicy",
            "type": "event"
        },
        {
            "anonymous": false,
            "inputs": [
                {
                    "indexed": false,
                    "internalType": "uint256",
                    "name": "hash",
                    "type": "uint256"
                },
                {
                    "components": [
                        {
                            "internalType": "uint256",
                            "name": "uuid",
                            "type": "uint256"
                        },
                        {
                            "internalType": "string",
                            "name": "context_expression",
                            "type": "string"
                        },
                        {
                            "internalType": "uint8",
                            "name": "policy",
                            "type": "uint8"
                        },
                        {
                            "internalType": "bool",
                            "name": "conventional_access",
                            "type": "bool"
                        },
                        {
                            "internalType": "bool",
                            "name": "emergency_access",
                            "type": "bool"
                        }
                    ],
                    "indexed": false,
                    "internalType": "struct Policies.Policy",
                    "name": "policy",
                    "type": "tuple"
                }
            ],
            "name": "deletedPolicy",
            "type": "event"
        },
        {
            "anonymous": false,
            "inputs": [
                {
                    "indexed": false,
                    "internalType": "string",
                    "name": "description",
                    "type": "string"
                }
            ],
            "name": "failedEvent",
            "type": "event"
        },
        {
            "anonymous": false,
            "inputs": [
                {
                    "indexed": false,
                    "internalType": "uint256",
                    "name": "hash",
                    "type": "uint256"
                },
                {
                    "components": [
                        {
                            "internalType": "uint256",
                            "name": "uuid",
                            "type": "uint256"
                        },
                        {
                            "internalType": "string",
                            "name": "context_expression",
                            "type": "string"
                        },
                        {
                            "internalType": "uint8",
                            "name": "policy",
                            "type": "uint8"
                        },
                        {
                            "internalType": "bool",
                            "name": "conventional_access",
                            "type": "bool"
                        },
                        {
                            "internalType": "bool",
                            "name": "emergency_access",
                            "type": "bool"
                        }
                    ],
                    "indexed": false,
                    "internalType": "struct Policies.Policy",
                    "name": "policy",
                    "type": "tuple"
                }
            ],
            "name": "queriedPolicy",
            "type": "event"
        },
        {
            "inputs": [
                {
                    "internalType": "uint256",
                    "name": "_uuid",
                    "type": "uint256"
                },
                {
                    "internalType": "uint8",
                    "name": "_policy",
                    "type": "uint8"
                }
            ],
            "name": "changePolicy",
            "outputs": [],
            "stateMutability": "nonpayable",
            "type": "function"
        },
        {
            "inputs": [
                {
                    "internalType": "string",
                    "name": "_context_expression",
                    "type": "string"
                },
                {
                    "internalType": "uint8",
                    "name": "_actions",
                    "type": "uint8"
                },
                {
                    "internalType": "uint256",
                    "name": "_resource_id",
                    "type": "uint256"
                },
                {
                    "internalType": "uint8",
                    "name": "_policy",
                    "type": "uint8"
                },
                {
                    "internalType": "bool",
                    "name": "_conventional_access",
                    "type": "bool"
                },
                {
                    "internalType": "bool",
                    "name": "_emergency_access",
                    "type": "bool"
                }
            ],
            "name": "createPolicy",
            "outputs": [],
            "stateMutability": "nonpayable",
            "type": "function"
        },
        {
            "inputs": [
                {
                    "internalType": "uint256",
                    "name": "_uuid",
                    "type": "uint256"
                }
            ],
            "name": "deletePolicy",
            "outputs": [],
            "stateMutability": "nonpayable",
            "type": "function"
        },
        {
            "inputs": [
                {
                    "internalType": "string",
                    "name": "_context_expression",
                    "type": "string"
                },
                {
                    "internalType": "uint8",
                    "name": "_actions",
                    "type": "uint8"
                },
                {
                    "internalType": "uint256",
                    "name": "_resource_id",
                    "type": "uint256"
                }
            ],
            "name": "hashPolicy",
            "outputs": [
                {
                    "internalType": "uint256",
                    "name": "",
                    "type": "uint256"
                }
            ],
            "stateMutability": "pure",
            "type": "function"
        },
        {
            "inputs": [
                {
                    "internalType": "string",
                    "name": "_context_expression",
                    "type": "string"
                },
                {
                    "internalType": "uint8",
                    "name": "_actions",
                    "type": "uint8"
                },
                {
                    "internalType": "uint256",
                    "name": "_resource_id",
                    "type": "uint256"
                }
            ],
            "name": "loadPolicy",
            "outputs": [
                {
                    "components": [
                        {
                            "internalType": "uint256",
                            "name": "uuid",
                            "type": "uint256"
                        },
                        {
                            "internalType": "string",
                            "name": "context_expression",
                            "type": "string"
                        },
                        {
                            "internalType": "uint8",
                            "name": "policy",
                            "type": "uint8"
                        },
                        {
                            "internalType": "bool",
                            "name": "conventional_access",
                            "type": "bool"
                        },
                        {
                            "internalType": "bool",
                            "name": "emergency_access",
                            "type": "bool"
                        }
                    ],
                    "internalType": "struct Policies.Policy",
                    "name": "",
                    "type": "tuple"
                }
            ],
            "stateMutability": "nonpayable",
            "type": "function"
        },
        {
            "inputs": [],
            "name": "owner",
            "outputs": [
                {
                    "internalType": "address",
                    "name": "",
                    "type": "address"
                }
            ],
            "stateMutability": "view",
            "type": "function"
        },
        {
            "inputs": [
                {
                    "internalType": "uint256",
                    "name": "_uuid",
                    "type": "uint256"
                }
            ],
            "name": "retrievePolicy",
            "outputs": [
                {
                    "components": [
                        {
                            "internalType": "uint256",
                            "name": "uuid",
                            "type": "uint256"
                        },
                        {
                            "internalType": "string",
                            "name": "context_expression",
                            "type": "string"
                        },
                        {
                            "internalType": "uint8",
                            "name": "policy",
                            "type": "uint8"
                        },
                        {
                            "internalType": "bool",
                            "name": "conventional_access",
                            "type": "bool"
                        },
                        {
                            "internalType": "bool",
                            "name": "emergency_access",
                            "type": "bool"
                        }
                    ],
                    "internalType": "struct Policies.Policy",
                    "name": "",
                    "type": "tuple"
                }
            ],
            "stateMutability": "nonpayable",
            "type": "function"
        }
    ],
    "bytecode": "608060405234801561001057600080fd5b50600180546001600160a01b03191633179055610e0b806100326000396000f3fe608060405234801561001057600080fd5b506004361061007d5760003560e01c8063eb71751b1161005b578063eb71751b146100f3578063fad98cbc14610106578063fafa97e51461011b578063fed27c8f1461012e57600080fd5b80636efc6eff146100825780638da5cb5b146100a8578063b9469bc3146100d3575b600080fd5b610095610090366004610a6b565b610141565b6040519081526020015b60405180910390f35b6001546100bb906001600160a01b031681565b6040516001600160a01b03909116815260200161009f565b6100e66100e1366004610b4a565b6101c0565b60405161009f9190610be5565b6100e6610101366004610a6b565b610373565b610119610114366004610ac2565b6105d8565b005b610119610129366004610b63565b610770565b61011961013c366004610b4a565b610808565b600080600285858560405160200161015b93929190610bab565b60408051601f198184030181529082905261017591610b8f565b602060405180830381855afa158015610192573d6000803e3d6000fd5b5050506040513d601f19601f820116820180604052508101906101b59190610a52565b9150505b9392505050565b6040805160a081018252600080825260606020830181905292820181905291810182905260808101919091526001546001600160a01b0316331461020357600080fd5b61020c826108aa565b15610342577f7d80c55c3665f0c8df6003db2b291d66d6308abb98e16181c36f5486d06216da82600080858152602001908152602001600020604051610253929190610c53565b60405180910390a160008281526020818152604091829020825160a0810190935280548352600181018054919284019161028c90610d84565b80601f01602080910402602001604051908101604052809291908181526020018280546102b890610d84565b80156103055780601f106102da57610100808354040283529160200191610305565b820191906000526020600020905b8154815290600101906020018083116102e857829003601f168201915b50505091835250506002919091015460ff808216602084015261010082048116151560408401526201000090910416151560609091015292915050565b60008281526020818152604091829020825160a0810190935280548352600181018054919284019161028c90610d84565b6040805160a081018252600080825260606020830181905292820181905291810182905260808101829052906103aa858585610141565b90506103b5816108aa565b156104ee577f7d80c55c3665f0c8df6003db2b291d66d6308abb98e16181c36f5486d06216da816000808481526020019081526020016000206040516103fc929190610c53565b60405180910390a160008181526020818152604091829020825160a0810190935280548352600181018054919284019161043590610d84565b80601f016020809104026020016040519081016040528092919081815260200182805461046190610d84565b80156104ae5780601f10610483576101008083540402835291602001916104ae565b820191906000526020600020905b81548152906001019060200180831161049157829003601f168201915b50505091835250506002919091015460ff808216602084015261010082048116151560408401526201000090910416151560609091015291506101b99050565b60008181526020818152604091829020825160a0810190935280548352600181018054919284019161051f90610d84565b80601f016020809104026020016040519081016040528092919081815260200182805461054b90610d84565b80156105985780601f1061056d57610100808354040283529160200191610598565b820191906000526020600020905b81548152906001019060200180831161057b57829003601f168201915b50505091835250506002919091015460ff808216602084015261010082048116151560408401526201000090910416151560609091015295945050505050565b6001546001600160a01b031633146105ef57600080fd5b60006105fc878787610141565b9050610607816108aa565b15610685577fb00092b6ee2314aa15cfb711c15b0eaff365605703c7f18b10651bb13f5de3666040516106779060208082526023908201527f637265617465506f6c6963793a20506f6c69637920616c72656164792065786960408201526273747360e81b606082015260800190565b60405180910390a150610768565b6040805160a08101825282815260208082018a815260ff8816838501528615156060840152851515608084015260008581528083529390932082518155925180519293926106d992600185019201906108d0565b506040828101516002909201805460608501516080909501511515620100000262ff0000199515156101000261ffff1990921660ff909516949094171793909316919091179091556000828152602081905281902090517fa9e49f7dd34a9743241c61aa2d0466bd1a645457e1706b449e5839a3643c58ff9161075e91849190610c53565b60405180910390a1505b505050505050565b6001546001600160a01b0316331461078757600080fd5b610790826108aa565b15610804577f888dd43af0f7281431d2868931c89765b2fb0f530606a29930209fd1c498c2e3826000808581526020019081526020016000206040516107d7929190610c53565b60405180910390a1600091825260208290526040909120600201805460ff191660ff909216919091179055565b5050565b6001546001600160a01b0316331461081f57600080fd5b610828816108aa565b156108a7577f1c539e1b2a579ff84b0907141efba031a44db9f8be5a2f71004a6b185e3183598160008084815260200190815260200160002060405161086f929190610c53565b60405180910390a16000818152602081905260408120818155906108966001830182610954565b50600201805462ffffff1916905550565b50565b6000818152602081905260408120548214156108c857506001919050565b506000919050565b8280546108dc90610d84565b90600052602060002090601f0160209004810192826108fe5760008555610944565b82601f1061091757805160ff1916838001178555610944565b82800160010185558215610944579182015b82811115610944578251825591602001919060010190610929565b5061095092915061098a565b5090565b50805461096090610d84565b6000825580601f10610970575050565b601f0160209004906000526020600020908101906108a791905b5b80821115610950576000815560010161098b565b803580151581146109af57600080fd5b919050565b600082601f8301126109c557600080fd5b813567ffffffffffffffff808211156109e0576109e0610dbf565b604051601f8301601f19908116603f01168101908282118183101715610a0857610a08610dbf565b81604052838152866020858801011115610a2157600080fd5b836020870160208301376000602085830101528094505050505092915050565b803560ff811681146109af57600080fd5b600060208284031215610a6457600080fd5b5051919050565b600080600060608486031215610a8057600080fd5b833567ffffffffffffffff811115610a9757600080fd5b610aa3868287016109b4565b935050610ab260208501610a41565b9150604084013590509250925092565b60008060008060008060c08789031215610adb57600080fd5b863567ffffffffffffffff811115610af257600080fd5b610afe89828a016109b4565b965050610b0d60208801610a41565b945060408701359350610b2260608801610a41565b9250610b306080880161099f565b9150610b3e60a0880161099f565b90509295509295509295565b600060208284031215610b5c57600080fd5b5035919050565b60008060408385031215610b7657600080fd5b82359150610b8660208401610a41565b90509250929050565b60008251610ba1818460208701610d54565b9190910192915050565b60008451610bbd818460208901610d54565b60f89490941b6001600160f81b03191691909301908152600181019190915260210192915050565b60208152815160208201526000602083015160a0604084015280518060c0850152610c178160e0860160208501610d54565b60ff60408601511660608501526060850151151560808501526080850151151560a085015260e0601f19601f8301168501019250505092915050565b8281526000602060408184015283546040840152600180850160a06060860152600081548181851c905084821680610c8c57607f821691505b868210811415610caa57634e487b7160e01b84526022600452602484fd5b60e089018290526101008901818015610cca5760018114610cdb57610d06565b60ff19851682528882019550610d06565b60008781526020902060005b85811015610d0057815484820152908901908a01610ce7565b83019650505b50505050600288015460ff811660808901529450610d219050565b610d3560a0870160ff8660081c1615159052565b610d4960c0870160ff8660101c1615159052565b979650505050505050565b60005b83811015610d6f578181015183820152602001610d57565b83811115610d7e576000848401525b50505050565b600181811c90821680610d9857607f821691505b60208210811415610db957634e487b7160e01b600052602260045260246000fd5b50919050565b634e487b7160e01b600052604160045260246000fdfea26469706673582212205c870901202822b945cdd2cba4c5820298fb56b68e362ac05ea816ec7d2cd1c564736f6c63430008070033",
    "sourcePath": "/Users/lucioreis/Desktop/paper-acess-control-blockchain/smart-contracts/ABAC_ETH_AC_V4.sol",
    "compiler": {
        "name": "solc",
        "version": "0.8.7+commit.e28d00a7"
    },
    "functionHashes": {
        "changePolicy(uint256,uint8)": "fafa97e5",
        "createPolicy(string,uint8,uint256,uint8,bool,bool)": "fad98cbc",
        "deletePolicy(uint256)": "fed27c8f",
        "hashPolicy(string,uint8,uint256)": "6efc6eff",
        "loadPolicy(string,uint8,uint256)": "eb71751b",
        "owner()": "8da5cb5b",
        "retrievePolicy(uint256)": "b9469bc3"
    },
    "gasEstimates": {
        "creation": {
            "codeDepositCost": "719000",
            "executionCost": "24988",
            "totalCost": "743988"
        },
        "external": {
            "changePolicy(uint256,uint8)": "4756",
            "createPolicy(string,uint8,uint256,uint8,bool,bool)": "infinite",
            "deletePolicy(uint256)": "4681",
            "hashPolicy(string,uint8,uint256)": "infinite",
            "loadPolicy(string,uint8,uint256)": "infinite",
            "owner()": "2360",
            "retrievePolicy(uint256)": "infinite"
        },
        "internal": {
            "getPolicy(uint256)": "2223"
        }
    }
}