{
    "contractName": "Policies",
    "abi": [
        {
            "inputs": [],
            "stateMutability": "nonpayable",
            "type": "constructor"
        },
        {
            "anonymous": false,
            "inputs": [
                {
                    "indexed": false,
                    "internalType": "uint256",
                    "name": "hash",
                    "type": "uint256"
                },
                {
                    "components": [
                        {
                            "internalType": "uint256",
                            "name": "uuid",
                            "type": "uint256"
                        },
                        {
                            "internalType": "string",
                            "name": "access_type",
                            "type": "string"
                        },
                        {
                            "internalType": "bool",
                            "name": "attr1",
                            "type": "bool"
                        },
                        {
                            "internalType": "bool",
                            "name": "attr2",
                            "type": "bool"
                        },
                        {
                            "internalType": "bool",
                            "name": "attr3",
                            "type": "bool"
                        },
                        {
                            "internalType": "bool",
                            "name": "attr4",
                            "type": "bool"
                        },
                        {
                            "internalType": "bool",
                            "name": "attr5",
                            "type": "bool"
                        },
                        {
                            "internalType": "bool",
                            "name": "attr6",
                            "type": "bool"
                        },
                        {
                            "internalType": "bool",
                            "name": "attr7",
                            "type": "bool"
                        },
                        {
                            "internalType": "bool",
                            "name": "attr8",
                            "type": "bool"
                        }
                    ],
                    "indexed": false,
                    "internalType": "struct Policies.Policy",
                    "name": "policy",
                    "type": "tuple"
                }
            ],
            "name": "changedPolicy",
            "type": "event"
        },
        {
            "anonymous": false,
            "inputs": [
                {
                    "indexed": false,
                    "internalType": "uint256",
                    "name": "hash",
                    "type": "uint256"
                },
                {
                    "components": [
                        {
                            "internalType": "uint256",
                            "name": "uuid",
                            "type": "uint256"
                        },
                        {
                            "internalType": "string",
                            "name": "access_type",
                            "type": "string"
                        },
                        {
                            "internalType": "bool",
                            "name": "attr1",
                            "type": "bool"
                        },
                        {
                            "internalType": "bool",
                            "name": "attr2",
                            "type": "bool"
                        },
                        {
                            "internalType": "bool",
                            "name": "attr3",
                            "type": "bool"
                        },
                        {
                            "internalType": "bool",
                            "name": "attr4",
                            "type": "bool"
                        },
                        {
                            "internalType": "bool",
                            "name": "attr5",
                            "type": "bool"
                        },
                        {
                            "internalType": "bool",
                            "name": "attr6",
                            "type": "bool"
                        },
                        {
                            "internalType": "bool",
                            "name": "attr7",
                            "type": "bool"
                        },
                        {
                            "internalType": "bool",
                            "name": "attr8",
                            "type": "bool"
                        }
                    ],
                    "indexed": false,
                    "internalType": "struct Policies.Policy",
                    "name": "policy",
                    "type": "tuple"
                }
            ],
            "name": "createdPolicy",
            "type": "event"
        },
        {
            "anonymous": false,
            "inputs": [
                {
                    "indexed": false,
                    "internalType": "uint256",
                    "name": "hash",
                    "type": "uint256"
                },
                {
                    "components": [
                        {
                            "internalType": "uint256",
                            "name": "uuid",
                            "type": "uint256"
                        },
                        {
                            "internalType": "string",
                            "name": "access_type",
                            "type": "string"
                        },
                        {
                            "internalType": "bool",
                            "name": "attr1",
                            "type": "bool"
                        },
                        {
                            "internalType": "bool",
                            "name": "attr2",
                            "type": "bool"
                        },
                        {
                            "internalType": "bool",
                            "name": "attr3",
                            "type": "bool"
                        },
                        {
                            "internalType": "bool",
                            "name": "attr4",
                            "type": "bool"
                        },
                        {
                            "internalType": "bool",
                            "name": "attr5",
                            "type": "bool"
                        },
                        {
                            "internalType": "bool",
                            "name": "attr6",
                            "type": "bool"
                        },
                        {
                            "internalType": "bool",
                            "name": "attr7",
                            "type": "bool"
                        },
                        {
                            "internalType": "bool",
                            "name": "attr8",
                            "type": "bool"
                        }
                    ],
                    "indexed": false,
                    "internalType": "struct Policies.Policy",
                    "name": "policy",
                    "type": "tuple"
                }
            ],
            "name": "deletedPolicy",
            "type": "event"
        },
        {
            "anonymous": false,
            "inputs": [
                {
                    "indexed": false,
                    "internalType": "uint256",
                    "name": "hash",
                    "type": "uint256"
                },
                {
                    "components": [
                        {
                            "internalType": "uint256",
                            "name": "uuid",
                            "type": "uint256"
                        },
                        {
                            "internalType": "string",
                            "name": "access_type",
                            "type": "string"
                        },
                        {
                            "internalType": "bool",
                            "name": "attr1",
                            "type": "bool"
                        },
                        {
                            "internalType": "bool",
                            "name": "attr2",
                            "type": "bool"
                        },
                        {
                            "internalType": "bool",
                            "name": "attr3",
                            "type": "bool"
                        },
                        {
                            "internalType": "bool",
                            "name": "attr4",
                            "type": "bool"
                        },
                        {
                            "internalType": "bool",
                            "name": "attr5",
                            "type": "bool"
                        },
                        {
                            "internalType": "bool",
                            "name": "attr6",
                            "type": "bool"
                        },
                        {
                            "internalType": "bool",
                            "name": "attr7",
                            "type": "bool"
                        },
                        {
                            "internalType": "bool",
                            "name": "attr8",
                            "type": "bool"
                        }
                    ],
                    "indexed": false,
                    "internalType": "struct Policies.Policy",
                    "name": "policy",
                    "type": "tuple"
                }
            ],
            "name": "queriedPolicy",
            "type": "event"
        },
        {
            "inputs": [
                {
                    "internalType": "uint256",
                    "name": "_uuid",
                    "type": "uint256"
                },
                {
                    "internalType": "bool[]",
                    "name": "_attrs",
                    "type": "bool[]"
                }
            ],
            "name": "changePolicy",
            "outputs": [],
            "stateMutability": "nonpayable",
            "type": "function"
        },
        {
            "inputs": [
                {
                    "internalType": "string",
                    "name": "_access_type",
                    "type": "string"
                },
                {
                    "internalType": "bool[]",
                    "name": "_attrs",
                    "type": "bool[]"
                }
            ],
            "name": "createPolicy",
            "outputs": [],
            "stateMutability": "nonpayable",
            "type": "function"
        },
        {
            "inputs": [
                {
                    "internalType": "uint256",
                    "name": "_uuid",
                    "type": "uint256"
                }
            ],
            "name": "deletePolicy",
            "outputs": [],
            "stateMutability": "nonpayable",
            "type": "function"
        },
        {
            "inputs": [
                {
                    "internalType": "string",
                    "name": "_access_type",
                    "type": "string"
                }
            ],
            "name": "hashPolicy",
            "outputs": [
                {
                    "internalType": "uint256",
                    "name": "",
                    "type": "uint256"
                }
            ],
            "stateMutability": "pure",
            "type": "function"
        },
        {
            "inputs": [],
            "name": "owner",
            "outputs": [
                {
                    "internalType": "address",
                    "name": "",
                    "type": "address"
                }
            ],
            "stateMutability": "view",
            "type": "function"
        },
        {
            "inputs": [
                {
                    "internalType": "string",
                    "name": "_access_type",
                    "type": "string"
                }
            ],
            "name": "queryPolicy",
            "outputs": [
                {
                    "components": [
                        {
                            "internalType": "uint256",
                            "name": "uuid",
                            "type": "uint256"
                        },
                        {
                            "internalType": "string",
                            "name": "access_type",
                            "type": "string"
                        },
                        {
                            "internalType": "bool",
                            "name": "attr1",
                            "type": "bool"
                        },
                        {
                            "internalType": "bool",
                            "name": "attr2",
                            "type": "bool"
                        },
                        {
                            "internalType": "bool",
                            "name": "attr3",
                            "type": "bool"
                        },
                        {
                            "internalType": "bool",
                            "name": "attr4",
                            "type": "bool"
                        },
                        {
                            "internalType": "bool",
                            "name": "attr5",
                            "type": "bool"
                        },
                        {
                            "internalType": "bool",
                            "name": "attr6",
                            "type": "bool"
                        },
                        {
                            "internalType": "bool",
                            "name": "attr7",
                            "type": "bool"
                        },
                        {
                            "internalType": "bool",
                            "name": "attr8",
                            "type": "bool"
                        }
                    ],
                    "internalType": "struct Policies.Policy",
                    "name": "",
                    "type": "tuple"
                }
            ],
            "stateMutability": "nonpayable",
            "type": "function"
        },
        {
            "inputs": [
                {
                    "internalType": "uint256",
                    "name": "_uuid",
                    "type": "uint256"
                }
            ],
            "name": "retrievePolicy",
            "outputs": [
                {
                    "components": [
                        {
                            "internalType": "uint256",
                            "name": "uuid",
                            "type": "uint256"
                        },
                        {
                            "internalType": "string",
                            "name": "access_type",
                            "type": "string"
                        },
                        {
                            "internalType": "bool",
                            "name": "attr1",
                            "type": "bool"
                        },
                        {
                            "internalType": "bool",
                            "name": "attr2",
                            "type": "bool"
                        },
                        {
                            "internalType": "bool",
                            "name": "attr3",
                            "type": "bool"
                        },
                        {
                            "internalType": "bool",
                            "name": "attr4",
                            "type": "bool"
                        },
                        {
                            "internalType": "bool",
                            "name": "attr5",
                            "type": "bool"
                        },
                        {
                            "internalType": "bool",
                            "name": "attr6",
                            "type": "bool"
                        },
                        {
                            "internalType": "bool",
                            "name": "attr7",
                            "type": "bool"
                        },
                        {
                            "internalType": "bool",
                            "name": "attr8",
                            "type": "bool"
                        }
                    ],
                    "internalType": "struct Policies.Policy",
                    "name": "",
                    "type": "tuple"
                }
            ],
            "stateMutability": "nonpayable",
            "type": "function"
        }
    ],
    "bytecode": "608060405234801561001057600080fd5b50600180546001600160a01b031916331790556111c0806100326000396000f3fe608060405234801561001057600080fd5b506004361061007d5760003560e01c806367bff6b61161005b57806367bff6b6146100d35780638da5cb5b146100f4578063b9469bc31461011f578063fed27c8f1461013257600080fd5b80630a4d4cb7146100825780631eff4a79146100975780635918492f146100aa575b600080fd5b610095610090366004610e19565b610145565b005b6100956100a5366004610d9c565b6103aa565b6100bd6100b8366004610d5f565b610667565b6040516100ca9190610f3e565b60405180910390f35b6100e66100e1366004610d5f565b610842565b6040519081526020016100ca565b600154610107906001600160a01b031681565b6040516001600160a01b0390911681526020016100ca565b6100bd61012d366004610e00565b6108b9565b610095610140366004610e00565b610a9d565b6001546001600160a01b0316331461015c57600080fd5b61016582610af8565b156103a6578060008151811061017d5761017d61115e565b602002602001015160008084815260200190815260200160002060020160006101000a81548160ff021916908315150217905550806001815181106101c4576101c461115e565b602002602001015160008084815260200190815260200160002060020160016101000a81548160ff0219169083151502179055508060028151811061020b5761020b61115e565b602002602001015160008084815260200190815260200160002060020160026101000a81548160ff021916908315150217905550806003815181106102525761025261115e565b602002602001015160008084815260200190815260200160002060020160036101000a81548160ff021916908315150217905550806004815181106102995761029961115e565b602002602001015160008084815260200190815260200160002060020160046101000a81548160ff021916908315150217905550806005815181106102e0576102e061115e565b602002602001015160008084815260200190815260200160002060020160056101000a81548160ff021916908315150217905550806006815181106103275761032761115e565b602002602001015160008084815260200190815260200160002060020160066101000a81548160ff0219169083151502179055508060078151811061036e5761036e61115e565b602002602001015160008084815260200190815260200160002060020160076101000a81548160ff0219169083151502179055505050565b5050565b6001546001600160a01b031633146103c157600080fd5b60006103cc83610842565b90506103d781610af8565b156103e157505050565b6040518061014001604052808281526020018481526020018360008151811061040c5761040c61115e565b6020026020010151151581526020018360018151811061042e5761042e61115e565b602002602001015115158152602001836002815181106104505761045061115e565b602002602001015115158152602001836003815181106104725761047261115e565b602002602001015115158152602001836004815181106104945761049461115e565b602002602001015115158152602001836005815181106104b6576104b661115e565b602002602001015115158152602001836006815181106104d8576104d861115e565b602002602001015115158152602001836007815181106104fa576104fa61115e565b602090810291909101810151151590915260008381528082526040902082518155828201518051919261053592600185019290910190610b1e565b50604082810151600290920180546060850151608086015160a087015160c088015160e0890151610100808b0151610120909b01511515600160381b0267ff00000000000000199b1515600160301b029b909b1667ffff00000000000019921515650100000000000265ff000000000019941515640100000000029490941665ffff000000001995151563010000000263ff0000001997151562010000029790971663ffff00001998151590930261ff00199c15159c909c1661ffff19909916989098179a909a1795909516949094179290921716929092179190911716929092179290921790556000828152602081905281902090517f18a395617e938ed81ce6a92af82a2ff7e83611c5d1b3fa5af237d569fc2f28389161065a91849190610ff1565b60405180910390a1505050565b61066f610ba2565b600061067a83610842565b905061068581610af8565b15610810577f71b29b49fa76d36a9c92b8a864cbf6dd9c9c57704d110f6de4fd0ac3c7985e3e816000808481526020019081526020016000206040516106cc929190610ff1565b60405180910390a1600081815260208181526040918290208251610140810190935280548352600181018054919284019161070690611123565b80601f016020809104026020016040519081016040528092919081815260200182805461073290611123565b801561077f5780601f106107545761010080835404028352916020019161077f565b820191906000526020600020905b81548152906001019060200180831161076257829003601f168201915b50505091835250506002919091015460ff808216151560208401526101008083048216151560408501526201000083048216151560608501526301000000830482161515608085015264010000000083048216151560a08501526501000000000083048216151560c0850152600160301b83048216151560e0850152600160381b9092041615159101529392505050565b600081815260208181526040918290208251610140810190935280548352600181018054919284019161070690611123565b6000806002836040516020016108589190610f22565b60408051601f198184030181529082905261087291610f22565b602060405180830381855afa15801561088f573d6000803e3d6000fd5b5050506040513d601f19601f820116820180604052508101906108b29190610d46565b9392505050565b6108c1610ba2565b6001546001600160a01b031633146108d857600080fd5b6108e182610af8565b15610a6b577f71b29b49fa76d36a9c92b8a864cbf6dd9c9c57704d110f6de4fd0ac3c7985e3e82600080858152602001908152602001600020604051610928929190610ff1565b60405180910390a1600082815260208181526040918290208251610140810190935280548352600181018054919284019161096290611123565b80601f016020809104026020016040519081016040528092919081815260200182805461098e90611123565b80156109db5780601f106109b0576101008083540402835291602001916109db565b820191906000526020600020905b8154815290600101906020018083116109be57829003601f168201915b50505091835250506002919091015460ff808216151560208401526101008083048216151560408501526201000083048216151560608501526301000000830482161515608085015264010000000083048216151560a08501526501000000000083048216151560c0850152600160301b83048216151560e0850152600160381b90920416151591015292915050565b600082815260208181526040918290208251610140810190935280548352600181018054919284019161096290611123565b6001546001600160a01b03163314610ab457600080fd5b610abd81610af8565b15610af557600081815260208190526040812081815590610ae16001830182610bf7565b50600201805467ffffffffffffffff191690555b50565b600081815260208190526040812054821415610b1657506001919050565b506000919050565b828054610b2a90611123565b90600052602060002090601f016020900481019282610b4c5760008555610b92565b82601f10610b6557805160ff1916838001178555610b92565b82800160010185558215610b92579182015b82811115610b92578251825591602001919060010190610b77565b50610b9e929150610c2d565b5090565b604080516101408101825260008082526060602083018190529282018190529181018290526080810182905260a0810182905260c0810182905260e08101829052610100810182905261012081019190915290565b508054610c0390611123565b6000825580601f10610c13575050565b601f016020900490600052602060002090810190610af591905b5b80821115610b9e5760008155600101610c2e565b600082601f830112610c5357600080fd5b8135602067ffffffffffffffff821115610c6f57610c6f611174565b8160051b610c7e8282016110c2565b838152828101908684018388018501891015610c9957600080fd5b60009350835b86811015610cc85781358015158114610cb6578586fd5b84529285019290850190600101610c9f565b509098975050505050505050565b600082601f830112610ce757600080fd5b813567ffffffffffffffff811115610d0157610d01611174565b610d14601f8201601f19166020016110c2565b818152846020838601011115610d2957600080fd5b816020850160208301376000918101602001919091529392505050565b600060208284031215610d5857600080fd5b5051919050565b600060208284031215610d7157600080fd5b813567ffffffffffffffff811115610d8857600080fd5b610d9484828501610cd6565b949350505050565b60008060408385031215610daf57600080fd5b823567ffffffffffffffff80821115610dc757600080fd5b610dd386838701610cd6565b93506020850135915080821115610de957600080fd5b50610df685828601610c42565b9150509250929050565b600060208284031215610e1257600080fd5b5035919050565b60008060408385031215610e2c57600080fd5b82359150602083013567ffffffffffffffff811115610e4a57600080fd5b610df685828601610c42565b60008151808452610e6e8160208601602086016110f3565b601f01601f19169290920160200192915050565b8054600090600181811c9080831680610e9c57607f831692505b6020808410821415610ebe57634e487b7160e01b600052602260045260246000fd5b83885260208801828015610ed95760018114610eea57610f15565b60ff19871682528282019750610f15565b60008981526020902060005b87811015610f0f57815484820152908601908401610ef6565b83019850505b5050505050505092915050565b60008251610f348184602087016110f3565b9190910192915050565b602081528151602082015260006020830151610140806040850152610f67610160850183610e56565b91506040850151610f7c606086018215159052565b506060850151801515608086015250608085015180151560a08601525060a085015180151560c08601525060c085015180151560e08601525060e0850151610100610fca8187018315159052565b8601519050610120610fdf8682018315159052565b90950151151593019290925250919050565b8281526040602082015281546040820152600061014080606084015261101e610180840160018601610e82565b600285015460ff8082161515608087015261104260a08701828460081c1615159052565b61105560c08701828460101c1615159052565b61106860e08701828460181c1615159052565b61107c6101008701828460201c1615159052565b6110906101208701828460281c1615159052565b6110a2848701828460301c1615159052565b6110b66101608701828460381c1615159052565b50909695505050505050565b604051601f8201601f1916810167ffffffffffffffff811182821017156110eb576110eb611174565b604052919050565b60005b8381101561110e5781810151838201526020016110f6565b8381111561111d576000848401525b50505050565b600181811c9082168061113757607f821691505b6020821081141561115857634e487b7160e01b600052602260045260246000fd5b50919050565b634e487b7160e01b600052603260045260246000fd5b634e487b7160e01b600052604160045260246000fdfea26469706673582212206e94ea07de8daeef1a07b17887c8f3316a93b4115eddfd76eee9904ba418b08164736f6c63430008070033",
    "sourcePath": "/Users/lucioreis/Desktop/paper-acess-control-blockchain/smart-contracts/ABAC_ETH_AC_V3.sol",
    "compiler": {
        "name": "solc",
        "version": "0.8.7+commit.e28d00a7"
    },
    "functionHashes": {
        "changePolicy(uint256,bool[])": "0a4d4cb7",
        "createPolicy(string,bool[])": "1eff4a79",
        "deletePolicy(uint256)": "fed27c8f",
        "hashPolicy(string)": "67bff6b6",
        "owner()": "8da5cb5b",
        "queryPolicy(string)": "5918492f",
        "retrievePolicy(uint256)": "b9469bc3"
    },
    "gasEstimates": {
        "creation": {
            "codeDepositCost": "908800",
            "executionCost": "25177",
            "totalCost": "933977"
        },
        "external": {
            "changePolicy(uint256,bool[])": "infinite",
            "createPolicy(string,bool[])": "infinite",
            "deletePolicy(uint256)": "4681",
            "hashPolicy(string)": "infinite",
            "owner()": "2359",
            "queryPolicy(string)": "infinite",
            "retrievePolicy(uint256)": "infinite"
        },
        "internal": {
            "getPolicy(uint256)": "2223"
        }
    }
}