{
    "contractName": "Policies",
    "abi": [
        {
            "inputs": [],
            "stateMutability": "nonpayable",
            "type": "constructor"
        },
        {
            "anonymous": false,
            "inputs": [
                {
                    "indexed": false,
                    "internalType": "uint256",
                    "name": "hash",
                    "type": "uint256"
                },
                {
                    "components": [
                        {
                            "internalType": "uint256",
                            "name": "uuid",
                            "type": "uint256"
                        },
                        {
                            "internalType": "string",
                            "name": "access_type",
                            "type": "string"
                        },
                        {
                            "internalType": "bool",
                            "name": "attr1",
                            "type": "bool"
                        },
                        {
                            "internalType": "bool",
                            "name": "attr2",
                            "type": "bool"
                        },
                        {
                            "internalType": "bool",
                            "name": "attr3",
                            "type": "bool"
                        },
                        {
                            "internalType": "bool",
                            "name": "attr4",
                            "type": "bool"
                        },
                        {
                            "internalType": "bool",
                            "name": "attr5",
                            "type": "bool"
                        },
                        {
                            "internalType": "bool",
                            "name": "attr6",
                            "type": "bool"
                        },
                        {
                            "internalType": "bool",
                            "name": "attr7",
                            "type": "bool"
                        },
                        {
                            "internalType": "bool",
                            "name": "attr8",
                            "type": "bool"
                        }
                    ],
                    "indexed": false,
                    "internalType": "struct Policies.Policy",
                    "name": "policy",
                    "type": "tuple"
                }
            ],
            "name": "changedPolicy",
            "type": "event"
        },
        {
            "anonymous": false,
            "inputs": [
                {
                    "indexed": false,
                    "internalType": "uint256",
                    "name": "hash",
                    "type": "uint256"
                },
                {
                    "components": [
                        {
                            "internalType": "uint256",
                            "name": "uuid",
                            "type": "uint256"
                        },
                        {
                            "internalType": "string",
                            "name": "access_type",
                            "type": "string"
                        },
                        {
                            "internalType": "bool",
                            "name": "attr1",
                            "type": "bool"
                        },
                        {
                            "internalType": "bool",
                            "name": "attr2",
                            "type": "bool"
                        },
                        {
                            "internalType": "bool",
                            "name": "attr3",
                            "type": "bool"
                        },
                        {
                            "internalType": "bool",
                            "name": "attr4",
                            "type": "bool"
                        },
                        {
                            "internalType": "bool",
                            "name": "attr5",
                            "type": "bool"
                        },
                        {
                            "internalType": "bool",
                            "name": "attr6",
                            "type": "bool"
                        },
                        {
                            "internalType": "bool",
                            "name": "attr7",
                            "type": "bool"
                        },
                        {
                            "internalType": "bool",
                            "name": "attr8",
                            "type": "bool"
                        }
                    ],
                    "indexed": false,
                    "internalType": "struct Policies.Policy",
                    "name": "policy",
                    "type": "tuple"
                }
            ],
            "name": "createdPolicy",
            "type": "event"
        },
        {
            "anonymous": false,
            "inputs": [
                {
                    "indexed": false,
                    "internalType": "uint256",
                    "name": "hash",
                    "type": "uint256"
                },
                {
                    "components": [
                        {
                            "internalType": "uint256",
                            "name": "uuid",
                            "type": "uint256"
                        },
                        {
                            "internalType": "string",
                            "name": "access_type",
                            "type": "string"
                        },
                        {
                            "internalType": "bool",
                            "name": "attr1",
                            "type": "bool"
                        },
                        {
                            "internalType": "bool",
                            "name": "attr2",
                            "type": "bool"
                        },
                        {
                            "internalType": "bool",
                            "name": "attr3",
                            "type": "bool"
                        },
                        {
                            "internalType": "bool",
                            "name": "attr4",
                            "type": "bool"
                        },
                        {
                            "internalType": "bool",
                            "name": "attr5",
                            "type": "bool"
                        },
                        {
                            "internalType": "bool",
                            "name": "attr6",
                            "type": "bool"
                        },
                        {
                            "internalType": "bool",
                            "name": "attr7",
                            "type": "bool"
                        },
                        {
                            "internalType": "bool",
                            "name": "attr8",
                            "type": "bool"
                        }
                    ],
                    "indexed": false,
                    "internalType": "struct Policies.Policy",
                    "name": "policy",
                    "type": "tuple"
                }
            ],
            "name": "deletedPolicy",
            "type": "event"
        },
        {
            "anonymous": false,
            "inputs": [
                {
                    "indexed": false,
                    "internalType": "uint256",
                    "name": "hash",
                    "type": "uint256"
                },
                {
                    "components": [
                        {
                            "internalType": "uint256",
                            "name": "uuid",
                            "type": "uint256"
                        },
                        {
                            "internalType": "string",
                            "name": "access_type",
                            "type": "string"
                        },
                        {
                            "internalType": "bool",
                            "name": "attr1",
                            "type": "bool"
                        },
                        {
                            "internalType": "bool",
                            "name": "attr2",
                            "type": "bool"
                        },
                        {
                            "internalType": "bool",
                            "name": "attr3",
                            "type": "bool"
                        },
                        {
                            "internalType": "bool",
                            "name": "attr4",
                            "type": "bool"
                        },
                        {
                            "internalType": "bool",
                            "name": "attr5",
                            "type": "bool"
                        },
                        {
                            "internalType": "bool",
                            "name": "attr6",
                            "type": "bool"
                        },
                        {
                            "internalType": "bool",
                            "name": "attr7",
                            "type": "bool"
                        },
                        {
                            "internalType": "bool",
                            "name": "attr8",
                            "type": "bool"
                        }
                    ],
                    "indexed": false,
                    "internalType": "struct Policies.Policy",
                    "name": "policy",
                    "type": "tuple"
                }
            ],
            "name": "queriedPolicy",
            "type": "event"
        },
        {
            "inputs": [
                {
                    "internalType": "uint256",
                    "name": "_uuid",
                    "type": "uint256"
                },
                {
                    "internalType": "bool[]",
                    "name": "_attrs",
                    "type": "bool[]"
                }
            ],
            "name": "changePolicy",
            "outputs": [],
            "stateMutability": "nonpayable",
            "type": "function"
        },
        {
            "inputs": [
                {
                    "internalType": "string",
                    "name": "_access_type",
                    "type": "string"
                }
            ],
            "name": "createPolicy",
            "outputs": [],
            "stateMutability": "nonpayable",
            "type": "function"
        },
        {
            "inputs": [
                {
                    "internalType": "uint256",
                    "name": "_uuid",
                    "type": "uint256"
                }
            ],
            "name": "deletePolicy",
            "outputs": [],
            "stateMutability": "nonpayable",
            "type": "function"
        },
        {
            "inputs": [
                {
                    "internalType": "string",
                    "name": "_access_type",
                    "type": "string"
                }
            ],
            "name": "hashPolicy",
            "outputs": [
                {
                    "internalType": "uint256",
                    "name": "",
                    "type": "uint256"
                }
            ],
            "stateMutability": "pure",
            "type": "function"
        },
        {
            "inputs": [],
            "name": "owner",
            "outputs": [
                {
                    "internalType": "address",
                    "name": "",
                    "type": "address"
                }
            ],
            "stateMutability": "view",
            "type": "function"
        },
        {
            "inputs": [
                {
                    "internalType": "string",
                    "name": "_access_type",
                    "type": "string"
                }
            ],
            "name": "queryPolicy",
            "outputs": [
                {
                    "components": [
                        {
                            "internalType": "uint256",
                            "name": "uuid",
                            "type": "uint256"
                        },
                        {
                            "internalType": "string",
                            "name": "access_type",
                            "type": "string"
                        },
                        {
                            "internalType": "bool",
                            "name": "attr1",
                            "type": "bool"
                        },
                        {
                            "internalType": "bool",
                            "name": "attr2",
                            "type": "bool"
                        },
                        {
                            "internalType": "bool",
                            "name": "attr3",
                            "type": "bool"
                        },
                        {
                            "internalType": "bool",
                            "name": "attr4",
                            "type": "bool"
                        },
                        {
                            "internalType": "bool",
                            "name": "attr5",
                            "type": "bool"
                        },
                        {
                            "internalType": "bool",
                            "name": "attr6",
                            "type": "bool"
                        },
                        {
                            "internalType": "bool",
                            "name": "attr7",
                            "type": "bool"
                        },
                        {
                            "internalType": "bool",
                            "name": "attr8",
                            "type": "bool"
                        }
                    ],
                    "internalType": "struct Policies.Policy",
                    "name": "",
                    "type": "tuple"
                }
            ],
            "stateMutability": "nonpayable",
            "type": "function"
        },
        {
            "inputs": [
                {
                    "internalType": "uint256",
                    "name": "_uuid",
                    "type": "uint256"
                }
            ],
            "name": "retrievePolicy",
            "outputs": [
                {
                    "components": [
                        {
                            "internalType": "uint256",
                            "name": "uuid",
                            "type": "uint256"
                        },
                        {
                            "internalType": "string",
                            "name": "access_type",
                            "type": "string"
                        },
                        {
                            "internalType": "bool",
                            "name": "attr1",
                            "type": "bool"
                        },
                        {
                            "internalType": "bool",
                            "name": "attr2",
                            "type": "bool"
                        },
                        {
                            "internalType": "bool",
                            "name": "attr3",
                            "type": "bool"
                        },
                        {
                            "internalType": "bool",
                            "name": "attr4",
                            "type": "bool"
                        },
                        {
                            "internalType": "bool",
                            "name": "attr5",
                            "type": "bool"
                        },
                        {
                            "internalType": "bool",
                            "name": "attr6",
                            "type": "bool"
                        },
                        {
                            "internalType": "bool",
                            "name": "attr7",
                            "type": "bool"
                        },
                        {
                            "internalType": "bool",
                            "name": "attr8",
                            "type": "bool"
                        }
                    ],
                    "internalType": "struct Policies.Policy",
                    "name": "",
                    "type": "tuple"
                }
            ],
            "stateMutability": "nonpayable",
            "type": "function"
        }
    ],
    "bytecode": "608060405234801561001057600080fd5b50600180546001600160a01b03191633179055611061806100326000396000f3fe608060405234801561001057600080fd5b506004361061007d5760003560e01c80638da5cb5b1161005b5780638da5cb5b146100e1578063b9469bc31461010c578063ea84a5491461011f578063fed27c8f1461013257600080fd5b80630a4d4cb7146100825780635918492f1461009757806367bff6b6146100c0575b600080fd5b610095610090366004610c2e565b610145565b005b6100aa6100a5366004610b80565b6103aa565b6040516100b79190610ddf565b60405180910390f35b6100d36100ce366004610b80565b610585565b6040519081526020016100b7565b6001546100f4906001600160a01b031681565b6040516001600160a01b0390911681526020016100b7565b6100aa61011a366004610c15565b6105fc565b61009561012d366004610b80565b6107e0565b610095610140366004610c15565b6109c2565b6001546001600160a01b0316331461015c57600080fd5b61016582610a1d565b156103a6578060008151811061017d5761017d610fff565b602002602001015160008084815260200190815260200160002060020160006101000a81548160ff021916908315150217905550806001815181106101c4576101c4610fff565b602002602001015160008084815260200190815260200160002060020160016101000a81548160ff0219169083151502179055508060028151811061020b5761020b610fff565b602002602001015160008084815260200190815260200160002060020160026101000a81548160ff0219169083151502179055508060038151811061025257610252610fff565b602002602001015160008084815260200190815260200160002060020160036101000a81548160ff0219169083151502179055508060048151811061029957610299610fff565b602002602001015160008084815260200190815260200160002060020160046101000a81548160ff021916908315150217905550806005815181106102e0576102e0610fff565b602002602001015160008084815260200190815260200160002060020160056101000a81548160ff0219169083151502179055508060068151811061032757610327610fff565b602002602001015160008084815260200190815260200160002060020160066101000a81548160ff0219169083151502179055508060078151811061036e5761036e610fff565b602002602001015160008084815260200190815260200160002060020160076101000a81548160ff0219169083151502179055505050565b5050565b6103b2610a43565b60006103bd83610585565b90506103c881610a1d565b15610553577f71b29b49fa76d36a9c92b8a864cbf6dd9c9c57704d110f6de4fd0ac3c7985e3e8160008084815260200190815260200160002060405161040f929190610e92565b60405180910390a1600081815260208181526040918290208251610140810190935280548352600181018054919284019161044990610fc4565b80601f016020809104026020016040519081016040528092919081815260200182805461047590610fc4565b80156104c25780601f10610497576101008083540402835291602001916104c2565b820191906000526020600020905b8154815290600101906020018083116104a557829003601f168201915b50505091835250506002919091015460ff808216151560208401526101008083048216151560408501526201000083048216151560608501526301000000830482161515608085015264010000000083048216151560a08501526501000000000083048216151560c0850152600160301b83048216151560e0850152600160381b9092041615159101529392505050565b600081815260208181526040918290208251610140810190935280548352600181018054919284019161044990610fc4565b60008060028360405160200161059b9190610dc3565b60408051601f19818403018152908290526105b591610dc3565b602060405180830381855afa1580156105d2573d6000803e3d6000fd5b5050506040513d601f19601f820116820180604052508101906105f59190610b67565b9392505050565b610604610a43565b6001546001600160a01b0316331461061b57600080fd5b61062482610a1d565b156107ae577f71b29b49fa76d36a9c92b8a864cbf6dd9c9c57704d110f6de4fd0ac3c7985e3e8260008085815260200190815260200160002060405161066b929190610e92565b60405180910390a160008281526020818152604091829020825161014081019093528054835260018101805491928401916106a590610fc4565b80601f01602080910402602001604051908101604052809291908181526020018280546106d190610fc4565b801561071e5780601f106106f35761010080835404028352916020019161071e565b820191906000526020600020905b81548152906001019060200180831161070157829003601f168201915b50505091835250506002919091015460ff808216151560208401526101008083048216151560408501526201000083048216151560608501526301000000830482161515608085015264010000000083048216151560a08501526501000000000083048216151560c0850152600160301b83048216151560e0850152600160381b90920416151591015292915050565b60008281526020818152604091829020825161014081019093528054835260018101805491928401916106a590610fc4565b6001546001600160a01b031633146107f757600080fd5b600061080282610585565b905061080d81610a1d565b15610816575050565b604080516101408101825282815260208082018581526001838501819052606084018190526080840181905260a0840181905260c0840181905260e084018190526101008401819052610120840181905260008681528084529490942083518155905180519394919361089193928501929190910190610a98565b50604082810151600290920180546060850151608086015160a087015160c088015160e0890151610100808b0151610120909b01511515600160381b0267ff00000000000000199b1515600160301b029b909b1667ffff00000000000019921515650100000000000265ff000000000019941515640100000000029490941665ffff000000001995151563010000000263ff0000001997151562010000029790971663ffff00001998151590930261ff00199c15159c909c1661ffff19909916989098179a909a1795909516949094179290921716929092179190911716929092179290921790556000828152602081905281902090517f18a395617e938ed81ce6a92af82a2ff7e83611c5d1b3fa5af237d569fc2f2838916109b691849190610e92565b60405180910390a15050565b6001546001600160a01b031633146109d957600080fd5b6109e281610a1d565b15610a1a57600081815260208190526040812081815590610a066001830182610b1c565b50600201805467ffffffffffffffff191690555b50565b600081815260208190526040812054821415610a3b57506001919050565b506000919050565b604080516101408101825260008082526060602083018190529282018190529181018290526080810182905260a0810182905260c0810182905260e08101829052610100810182905261012081019190915290565b828054610aa490610fc4565b90600052602060002090601f016020900481019282610ac65760008555610b0c565b82601f10610adf57805160ff1916838001178555610b0c565b82800160010185558215610b0c579182015b82811115610b0c578251825591602001919060010190610af1565b50610b18929150610b52565b5090565b508054610b2890610fc4565b6000825580601f10610b38575050565b601f016020900490600052602060002090810190610a1a91905b5b80821115610b185760008155600101610b53565b600060208284031215610b7957600080fd5b5051919050565b60006020808385031215610b9357600080fd5b823567ffffffffffffffff80821115610bab57600080fd5b818501915085601f830112610bbf57600080fd5b813581811115610bd157610bd1611015565b610be3601f8201601f19168501610f63565b91508082528684828501011115610bf957600080fd5b8084840185840137600090820190930192909252509392505050565b600060208284031215610c2757600080fd5b5035919050565b60008060408385031215610c4157600080fd5b8235915060208084013567ffffffffffffffff80821115610c6157600080fd5b818601915086601f830112610c7557600080fd5b813581811115610c8757610c87611015565b8060051b9150610c98848301610f63565b8181528481019084860184860187018b1015610cb357600080fd5b600095508594505b83851015610ce65780358015158114610cd2578687fd5b835260019490940193918601918601610cbb565b508096505050505050509250929050565b60008151808452610d0f816020860160208601610f94565b601f01601f19169290920160200192915050565b8054600090600181811c9080831680610d3d57607f831692505b6020808410821415610d5f57634e487b7160e01b600052602260045260246000fd5b83885260208801828015610d7a5760018114610d8b57610db6565b60ff19871682528282019750610db6565b60008981526020902060005b87811015610db057815484820152908601908401610d97565b83019850505b5050505050505092915050565b60008251610dd5818460208701610f94565b9190910192915050565b602081528151602082015260006020830151610140806040850152610e08610160850183610cf7565b91506040850151610e1d606086018215159052565b506060850151801515608086015250608085015180151560a08601525060a085015180151560c08601525060c085015180151560e08601525060e0850151610100610e6b8187018315159052565b8601519050610120610e808682018315159052565b90950151151593019290925250919050565b82815260406020820152815460408201526000610140806060840152610ebf610180840160018601610d23565b600285015460ff80821615156080870152610ee360a08701828460081c1615159052565b610ef660c08701828460101c1615159052565b610f0960e08701828460181c1615159052565b610f1d6101008701828460201c1615159052565b610f316101208701828460281c1615159052565b610f43848701828460301c1615159052565b610f576101608701828460381c1615159052565b50909695505050505050565b604051601f8201601f1916810167ffffffffffffffff81118282101715610f8c57610f8c611015565b604052919050565b60005b83811015610faf578181015183820152602001610f97565b83811115610fbe576000848401525b50505050565b600181811c90821680610fd857607f821691505b60208210811415610ff957634e487b7160e01b600052602260045260246000fd5b50919050565b634e487b7160e01b600052603260045260246000fd5b634e487b7160e01b600052604160045260246000fdfea26469706673582212200f43f2d1ac132c42436c2310f37447ad66e16e7bd0cb0392110030e5af13b44e64736f6c63430008070033",
    "sourcePath": "/Users/lucioreis/Desktop/paper-acess-control-blockchain/smart-contracts/ABAC_ETH_AC_V3.sol",
    "compiler": {
        "name": "solc",
        "version": "0.8.7+commit.e28d00a7"
    },
    "functionHashes": {
        "changePolicy(uint256,bool[])": "0a4d4cb7",
        "createPolicy(string)": "ea84a549",
        "deletePolicy(uint256)": "fed27c8f",
        "hashPolicy(string)": "67bff6b6",
        "owner()": "8da5cb5b",
        "queryPolicy(string)": "5918492f",
        "retrievePolicy(uint256)": "b9469bc3"
    },
    "gasEstimates": {
        "creation": {
            "codeDepositCost": "838600",
            "executionCost": "25112",
            "totalCost": "863712"
        },
        "external": {
            "changePolicy(uint256,bool[])": "infinite",
            "createPolicy(string)": "infinite",
            "deletePolicy(uint256)": "4681",
            "hashPolicy(string)": "infinite",
            "owner()": "2337",
            "queryPolicy(string)": "infinite",
            "retrievePolicy(uint256)": "infinite"
        },
        "internal": {
            "getPolicy(uint256)": "2223"
        }
    }
}