{
	"data": {
		"bytecode": {
			"linkReferences": {},
			"object": "608060405234801561001057600080fd5b506109ef806100206000396000f3fe608060405234801561001057600080fd5b50600436106100415760003560e01c8063110a6f50146100465780639a16925814610062578063fb310c5914610092575b600080fd5b610060600480360381019061005b919061053c565b6100ae565b005b61007c600480360381019061007791906105f7565b610193565b6040516100899190610742565b60405180910390f35b6100ac60048036038101906100a791906104f3565b61022a565b005b6040518060a00160405280848152602001838152602001600115158152602001428152602001428152506000856040516100e8919061072b565b908152602001604051809103902060008201518160000190805190602001906101129291906102cf565b506020820151816001015560408201518160020160006101000a81548160ff02191690831515021790555060608201518160030155608082015181600401559050507f91b40e327e363c459d1ebc39319267c2d485b5f2b27e32bfa563ddbc18c126bb848460405161018592919061077f565b60405180910390a150505050565b60006101a1858585856102c1565b156101e6577f53f816ee0985dfc8b8b9d20f33b5acb19813f37824612fa08f9370811ce3ceb3856040516101d5919061075d565b60405180910390a160019050610222565b7fcb233db563699e404bda40770399bc9d91252bb403165e66acbabbb75650025785604051610215919061075d565b60405180910390a1600090505b949350505050565b60008160405161023a919061072b565b9081526020016040518091039020600080820160006102599190610355565b60018201600090556002820160006101000a81549060ff02191690556003820160009055600482016000905550507fa5cc2877108f3428e62155764c7e754fd8b67fd626f9c8b6f67f7c530530494e816040516102b6919061075d565b60405180910390a150565b600060019050949350505050565b8280546102db906108b7565b90600052602060002090601f0160209004810192826102fd5760008555610344565b82601f1061031657805160ff1916838001178555610344565b82800160010185558215610344579182015b82811115610343578251825591602001919060010190610328565b5b5090506103519190610395565b5090565b508054610361906108b7565b6000825580601f106103735750610392565b601f0160209004906000526020600020908101906103919190610395565b5b50565b5b808211156103ae576000816000905550600101610396565b5090565b60006103c56103c0846107db565b6107b6565b905080838252602082019050828560208602820111156103e8576103e761097d565b5b60005b8581101561043657813567ffffffffffffffff81111561040e5761040d610978565b5b80860161041b89826104b0565b855260208501945060208401935050506001810190506103eb565b5050509392505050565b600061045361044e84610807565b6107b6565b90508281526020810184848401111561046f5761046e610982565b5b61047a848285610875565b509392505050565b600082601f83011261049757610496610978565b5b81356104a78482602086016103b2565b91505092915050565b600082601f8301126104c5576104c4610978565b5b81356104d5848260208601610440565b91505092915050565b6000813590506104ed816109a2565b92915050565b6000602082840312156105095761050861098c565b5b600082013567ffffffffffffffff81111561052757610526610987565b5b610533848285016104b0565b91505092915050565b600080600080608085870312156105565761055561098c565b5b600085013567ffffffffffffffff81111561057457610573610987565b5b610580878288016104b0565b945050602085013567ffffffffffffffff8111156105a1576105a0610987565b5b6105ad878288016104b0565b93505060406105be878288016104de565b925050606085013567ffffffffffffffff8111156105df576105de610987565b5b6105eb87828801610482565b91505092959194509250565b600080600080608085870312156106115761061061098c565b5b600085013567ffffffffffffffff81111561062f5761062e610987565b5b61063b878288016104b0565b945050602061064c878288016104de565b935050604085013567ffffffffffffffff81111561066d5761066c610987565b5b610679878288016104b0565b925050606085013567ffffffffffffffff81111561069a57610699610987565b5b6106a687828801610482565b91505092959194509250565b6106bb8161085f565b82525050565b60006106cc82610838565b6106d68185610843565b93506106e6818560208601610884565b6106ef81610991565b840191505092915050565b600061070582610838565b61070f8185610854565b935061071f818560208601610884565b80840191505092915050565b600061073782846106fa565b915081905092915050565b600060208201905061075760008301846106b2565b92915050565b6000602082019050818103600083015261077781846106c1565b905092915050565b6000604082019050818103600083015261079981856106c1565b905081810360208301526107ad81846106c1565b90509392505050565b60006107c06107d1565b90506107cc82826108e9565b919050565b6000604051905090565b600067ffffffffffffffff8211156107f6576107f5610949565b5b602082029050602081019050919050565b600067ffffffffffffffff82111561082257610821610949565b5b61082b82610991565b9050602081019050919050565b600081519050919050565b600082825260208201905092915050565b600081905092915050565b60008115159050919050565b6000819050919050565b82818337600083830152505050565b60005b838110156108a2578082015181840152602081019050610887565b838111156108b1576000848401525b50505050565b600060028204905060018216806108cf57607f821691505b602082108114156108e3576108e261091a565b5b50919050565b6108f282610991565b810181811067ffffffffffffffff8211171561091157610910610949565b5b80604052505050565b7f4e487b7100000000000000000000000000000000000000000000000000000000600052602260045260246000fd5b7f4e487b7100000000000000000000000000000000000000000000000000000000600052604160045260246000fd5b600080fd5b600080fd5b600080fd5b600080fd5b600080fd5b6000601f19601f8301169050919050565b6109ab8161086b565b81146109b657600080fd5b5056fea26469706673582212209c57a3aed6946187c3074fd7f94617bc3f22b85d00b284f19816566db75917fe64736f6c63430008070033",
			"opcodes": "PUSH1 0x80 PUSH1 0x40 MSTORE CALLVALUE DUP1 ISZERO PUSH2 0x10 JUMPI PUSH1 0x0 DUP1 REVERT JUMPDEST POP PUSH2 0x9EF DUP1 PUSH2 0x20 PUSH1 0x0 CODECOPY PUSH1 0x0 RETURN INVALID PUSH1 0x80 PUSH1 0x40 MSTORE CALLVALUE DUP1 ISZERO PUSH2 0x10 JUMPI PUSH1 0x0 DUP1 REVERT JUMPDEST POP PUSH1 0x4 CALLDATASIZE LT PUSH2 0x41 JUMPI PUSH1 0x0 CALLDATALOAD PUSH1 0xE0 SHR DUP1 PUSH4 0x110A6F50 EQ PUSH2 0x46 JUMPI DUP1 PUSH4 0x9A169258 EQ PUSH2 0x62 JUMPI DUP1 PUSH4 0xFB310C59 EQ PUSH2 0x92 JUMPI JUMPDEST PUSH1 0x0 DUP1 REVERT JUMPDEST PUSH2 0x60 PUSH1 0x4 DUP1 CALLDATASIZE SUB DUP2 ADD SWAP1 PUSH2 0x5B SWAP2 SWAP1 PUSH2 0x53C JUMP JUMPDEST PUSH2 0xAE JUMP JUMPDEST STOP JUMPDEST PUSH2 0x7C PUSH1 0x4 DUP1 CALLDATASIZE SUB DUP2 ADD SWAP1 PUSH2 0x77 SWAP2 SWAP1 PUSH2 0x5F7 JUMP JUMPDEST PUSH2 0x193 JUMP JUMPDEST PUSH1 0x40 MLOAD PUSH2 0x89 SWAP2 SWAP1 PUSH2 0x742 JUMP JUMPDEST PUSH1 0x40 MLOAD DUP1 SWAP2 SUB SWAP1 RETURN JUMPDEST PUSH2 0xAC PUSH1 0x4 DUP1 CALLDATASIZE SUB DUP2 ADD SWAP1 PUSH2 0xA7 SWAP2 SWAP1 PUSH2 0x4F3 JUMP JUMPDEST PUSH2 0x22A JUMP JUMPDEST STOP JUMPDEST PUSH1 0x40 MLOAD DUP1 PUSH1 0xA0 ADD PUSH1 0x40 MSTORE DUP1 DUP5 DUP2 MSTORE PUSH1 0x20 ADD DUP4 DUP2 MSTORE PUSH1 0x20 ADD PUSH1 0x1 ISZERO ISZERO DUP2 MSTORE PUSH1 0x20 ADD TIMESTAMP DUP2 MSTORE PUSH1 0x20 ADD TIMESTAMP DUP2 MSTORE POP PUSH1 0x0 DUP6 PUSH1 0x40 MLOAD PUSH2 0xE8 SWAP2 SWAP1 PUSH2 0x72B JUMP JUMPDEST SWAP1 DUP2 MSTORE PUSH1 0x20 ADD PUSH1 0x40 MLOAD DUP1 SWAP2 SUB SWAP1 KECCAK256 PUSH1 0x0 DUP3 ADD MLOAD DUP2 PUSH1 0x0 ADD SWAP1 DUP1 MLOAD SWAP1 PUSH1 0x20 ADD SWAP1 PUSH2 0x112 SWAP3 SWAP2 SWAP1 PUSH2 0x2CF JUMP JUMPDEST POP PUSH1 0x20 DUP3 ADD MLOAD DUP2 PUSH1 0x1 ADD SSTORE PUSH1 0x40 DUP3 ADD MLOAD DUP2 PUSH1 0x2 ADD PUSH1 0x0 PUSH2 0x100 EXP DUP2 SLOAD DUP2 PUSH1 0xFF MUL NOT AND SWAP1 DUP4 ISZERO ISZERO MUL OR SWAP1 SSTORE POP PUSH1 0x60 DUP3 ADD MLOAD DUP2 PUSH1 0x3 ADD SSTORE PUSH1 0x80 DUP3 ADD MLOAD DUP2 PUSH1 0x4 ADD SSTORE SWAP1 POP POP PUSH32 0x91B40E327E363C459D1EBC39319267C2D485B5F2B27E32BFA563DDBC18C126BB DUP5 DUP5 PUSH1 0x40 MLOAD PUSH2 0x185 SWAP3 SWAP2 SWAP1 PUSH2 0x77F JUMP JUMPDEST PUSH1 0x40 MLOAD DUP1 SWAP2 SUB SWAP1 LOG1 POP POP POP POP JUMP JUMPDEST PUSH1 0x0 PUSH2 0x1A1 DUP6 DUP6 DUP6 DUP6 PUSH2 0x2C1 JUMP JUMPDEST ISZERO PUSH2 0x1E6 JUMPI PUSH32 0x53F816EE0985DFC8B8B9D20F33B5ACB19813F37824612FA08F9370811CE3CEB3 DUP6 PUSH1 0x40 MLOAD PUSH2 0x1D5 SWAP2 SWAP1 PUSH2 0x75D JUMP JUMPDEST PUSH1 0x40 MLOAD DUP1 SWAP2 SUB SWAP1 LOG1 PUSH1 0x1 SWAP1 POP PUSH2 0x222 JUMP JUMPDEST PUSH32 0xCB233DB563699E404BDA40770399BC9D91252BB403165E66ACBABBB756500257 DUP6 PUSH1 0x40 MLOAD PUSH2 0x215 SWAP2 SWAP1 PUSH2 0x75D JUMP JUMPDEST PUSH1 0x40 MLOAD DUP1 SWAP2 SUB SWAP1 LOG1 PUSH1 0x0 SWAP1 POP JUMPDEST SWAP5 SWAP4 POP POP POP POP JUMP JUMPDEST PUSH1 0x0 DUP2 PUSH1 0x40 MLOAD PUSH2 0x23A SWAP2 SWAP1 PUSH2 0x72B JUMP JUMPDEST SWAP1 DUP2 MSTORE PUSH1 0x20 ADD PUSH1 0x40 MLOAD DUP1 SWAP2 SUB SWAP1 KECCAK256 PUSH1 0x0 DUP1 DUP3 ADD PUSH1 0x0 PUSH2 0x259 SWAP2 SWAP1 PUSH2 0x355 JUMP JUMPDEST PUSH1 0x1 DUP3 ADD PUSH1 0x0 SWAP1 SSTORE PUSH1 0x2 DUP3 ADD PUSH1 0x0 PUSH2 0x100 EXP DUP2 SLOAD SWAP1 PUSH1 0xFF MUL NOT AND SWAP1 SSTORE PUSH1 0x3 DUP3 ADD PUSH1 0x0 SWAP1 SSTORE PUSH1 0x4 DUP3 ADD PUSH1 0x0 SWAP1 SSTORE POP POP PUSH32 0xA5CC2877108F3428E62155764C7E754FD8B67FD626F9C8B6F67F7C530530494E DUP2 PUSH1 0x40 MLOAD PUSH2 0x2B6 SWAP2 SWAP1 PUSH2 0x75D JUMP JUMPDEST PUSH1 0x40 MLOAD DUP1 SWAP2 SUB SWAP1 LOG1 POP JUMP JUMPDEST PUSH1 0x0 PUSH1 0x1 SWAP1 POP SWAP5 SWAP4 POP POP POP POP JUMP JUMPDEST DUP3 DUP1 SLOAD PUSH2 0x2DB SWAP1 PUSH2 0x8B7 JUMP JUMPDEST SWAP1 PUSH1 0x0 MSTORE PUSH1 0x20 PUSH1 0x0 KECCAK256 SWAP1 PUSH1 0x1F ADD PUSH1 0x20 SWAP1 DIV DUP2 ADD SWAP3 DUP3 PUSH2 0x2FD JUMPI PUSH1 0x0 DUP6 SSTORE PUSH2 0x344 JUMP JUMPDEST DUP3 PUSH1 0x1F LT PUSH2 0x316 JUMPI DUP1 MLOAD PUSH1 0xFF NOT AND DUP4 DUP1 ADD OR DUP6 SSTORE PUSH2 0x344 JUMP JUMPDEST DUP3 DUP1 ADD PUSH1 0x1 ADD DUP6 SSTORE DUP3 ISZERO PUSH2 0x344 JUMPI SWAP2 DUP3 ADD JUMPDEST DUP3 DUP2 GT ISZERO PUSH2 0x343 JUMPI DUP3 MLOAD DUP3 SSTORE SWAP2 PUSH1 0x20 ADD SWAP2 SWAP1 PUSH1 0x1 ADD SWAP1 PUSH2 0x328 JUMP JUMPDEST JUMPDEST POP SWAP1 POP PUSH2 0x351 SWAP2 SWAP1 PUSH2 0x395 JUMP JUMPDEST POP SWAP1 JUMP JUMPDEST POP DUP1 SLOAD PUSH2 0x361 SWAP1 PUSH2 0x8B7 JUMP JUMPDEST PUSH1 0x0 DUP3 SSTORE DUP1 PUSH1 0x1F LT PUSH2 0x373 JUMPI POP PUSH2 0x392 JUMP JUMPDEST PUSH1 0x1F ADD PUSH1 0x20 SWAP1 DIV SWAP1 PUSH1 0x0 MSTORE PUSH1 0x20 PUSH1 0x0 KECCAK256 SWAP1 DUP2 ADD SWAP1 PUSH2 0x391 SWAP2 SWAP1 PUSH2 0x395 JUMP JUMPDEST JUMPDEST POP JUMP JUMPDEST JUMPDEST DUP1 DUP3 GT ISZERO PUSH2 0x3AE JUMPI PUSH1 0x0 DUP2 PUSH1 0x0 SWAP1 SSTORE POP PUSH1 0x1 ADD PUSH2 0x396 JUMP JUMPDEST POP SWAP1 JUMP JUMPDEST PUSH1 0x0 PUSH2 0x3C5 PUSH2 0x3C0 DUP5 PUSH2 0x7DB JUMP JUMPDEST PUSH2 0x7B6 JUMP JUMPDEST SWAP1 POP DUP1 DUP4 DUP3 MSTORE PUSH1 0x20 DUP3 ADD SWAP1 POP DUP3 DUP6 PUSH1 0x20 DUP7 MUL DUP3 ADD GT ISZERO PUSH2 0x3E8 JUMPI PUSH2 0x3E7 PUSH2 0x97D JUMP JUMPDEST JUMPDEST PUSH1 0x0 JUMPDEST DUP6 DUP2 LT ISZERO PUSH2 0x436 JUMPI DUP2 CALLDATALOAD PUSH8 0xFFFFFFFFFFFFFFFF DUP2 GT ISZERO PUSH2 0x40E JUMPI PUSH2 0x40D PUSH2 0x978 JUMP JUMPDEST JUMPDEST DUP1 DUP7 ADD PUSH2 0x41B DUP10 DUP3 PUSH2 0x4B0 JUMP JUMPDEST DUP6 MSTORE PUSH1 0x20 DUP6 ADD SWAP5 POP PUSH1 0x20 DUP5 ADD SWAP4 POP POP POP PUSH1 0x1 DUP2 ADD SWAP1 POP PUSH2 0x3EB JUMP JUMPDEST POP POP POP SWAP4 SWAP3 POP POP POP JUMP JUMPDEST PUSH1 0x0 PUSH2 0x453 PUSH2 0x44E DUP5 PUSH2 0x807 JUMP JUMPDEST PUSH2 0x7B6 JUMP JUMPDEST SWAP1 POP DUP3 DUP2 MSTORE PUSH1 0x20 DUP2 ADD DUP5 DUP5 DUP5 ADD GT ISZERO PUSH2 0x46F JUMPI PUSH2 0x46E PUSH2 0x982 JUMP JUMPDEST JUMPDEST PUSH2 0x47A DUP5 DUP3 DUP6 PUSH2 0x875 JUMP JUMPDEST POP SWAP4 SWAP3 POP POP POP JUMP JUMPDEST PUSH1 0x0 DUP3 PUSH1 0x1F DUP4 ADD SLT PUSH2 0x497 JUMPI PUSH2 0x496 PUSH2 0x978 JUMP JUMPDEST JUMPDEST DUP2 CALLDATALOAD PUSH2 0x4A7 DUP5 DUP3 PUSH1 0x20 DUP7 ADD PUSH2 0x3B2 JUMP JUMPDEST SWAP2 POP POP SWAP3 SWAP2 POP POP JUMP JUMPDEST PUSH1 0x0 DUP3 PUSH1 0x1F DUP4 ADD SLT PUSH2 0x4C5 JUMPI PUSH2 0x4C4 PUSH2 0x978 JUMP JUMPDEST JUMPDEST DUP2 CALLDATALOAD PUSH2 0x4D5 DUP5 DUP3 PUSH1 0x20 DUP7 ADD PUSH2 0x440 JUMP JUMPDEST SWAP2 POP POP SWAP3 SWAP2 POP POP JUMP JUMPDEST PUSH1 0x0 DUP2 CALLDATALOAD SWAP1 POP PUSH2 0x4ED DUP2 PUSH2 0x9A2 JUMP JUMPDEST SWAP3 SWAP2 POP POP JUMP JUMPDEST PUSH1 0x0 PUSH1 0x20 DUP3 DUP5 SUB SLT ISZERO PUSH2 0x509 JUMPI PUSH2 0x508 PUSH2 0x98C JUMP JUMPDEST JUMPDEST PUSH1 0x0 DUP3 ADD CALLDATALOAD PUSH8 0xFFFFFFFFFFFFFFFF DUP2 GT ISZERO PUSH2 0x527 JUMPI PUSH2 0x526 PUSH2 0x987 JUMP JUMPDEST JUMPDEST PUSH2 0x533 DUP5 DUP3 DUP6 ADD PUSH2 0x4B0 JUMP JUMPDEST SWAP2 POP POP SWAP3 SWAP2 POP POP JUMP JUMPDEST PUSH1 0x0 DUP1 PUSH1 0x0 DUP1 PUSH1 0x80 DUP6 DUP8 SUB SLT ISZERO PUSH2 0x556 JUMPI PUSH2 0x555 PUSH2 0x98C JUMP JUMPDEST JUMPDEST PUSH1 0x0 DUP6 ADD CALLDATALOAD PUSH8 0xFFFFFFFFFFFFFFFF DUP2 GT ISZERO PUSH2 0x574 JUMPI PUSH2 0x573 PUSH2 0x987 JUMP JUMPDEST JUMPDEST PUSH2 0x580 DUP8 DUP3 DUP9 ADD PUSH2 0x4B0 JUMP JUMPDEST SWAP5 POP POP PUSH1 0x20 DUP6 ADD CALLDATALOAD PUSH8 0xFFFFFFFFFFFFFFFF DUP2 GT ISZERO PUSH2 0x5A1 JUMPI PUSH2 0x5A0 PUSH2 0x987 JUMP JUMPDEST JUMPDEST PUSH2 0x5AD DUP8 DUP3 DUP9 ADD PUSH2 0x4B0 JUMP JUMPDEST SWAP4 POP POP PUSH1 0x40 PUSH2 0x5BE DUP8 DUP3 DUP9 ADD PUSH2 0x4DE JUMP JUMPDEST SWAP3 POP POP PUSH1 0x60 DUP6 ADD CALLDATALOAD PUSH8 0xFFFFFFFFFFFFFFFF DUP2 GT ISZERO PUSH2 0x5DF JUMPI PUSH2 0x5DE PUSH2 0x987 JUMP JUMPDEST JUMPDEST PUSH2 0x5EB DUP8 DUP3 DUP9 ADD PUSH2 0x482 JUMP JUMPDEST SWAP2 POP POP SWAP3 SWAP6 SWAP2 SWAP5 POP SWAP3 POP JUMP JUMPDEST PUSH1 0x0 DUP1 PUSH1 0x0 DUP1 PUSH1 0x80 DUP6 DUP8 SUB SLT ISZERO PUSH2 0x611 JUMPI PUSH2 0x610 PUSH2 0x98C JUMP JUMPDEST JUMPDEST PUSH1 0x0 DUP6 ADD CALLDATALOAD PUSH8 0xFFFFFFFFFFFFFFFF DUP2 GT ISZERO PUSH2 0x62F JUMPI PUSH2 0x62E PUSH2 0x987 JUMP JUMPDEST JUMPDEST PUSH2 0x63B DUP8 DUP3 DUP9 ADD PUSH2 0x4B0 JUMP JUMPDEST SWAP5 POP POP PUSH1 0x20 PUSH2 0x64C DUP8 DUP3 DUP9 ADD PUSH2 0x4DE JUMP JUMPDEST SWAP4 POP POP PUSH1 0x40 DUP6 ADD CALLDATALOAD PUSH8 0xFFFFFFFFFFFFFFFF DUP2 GT ISZERO PUSH2 0x66D JUMPI PUSH2 0x66C PUSH2 0x987 JUMP JUMPDEST JUMPDEST PUSH2 0x679 DUP8 DUP3 DUP9 ADD PUSH2 0x4B0 JUMP JUMPDEST SWAP3 POP POP PUSH1 0x60 DUP6 ADD CALLDATALOAD PUSH8 0xFFFFFFFFFFFFFFFF DUP2 GT ISZERO PUSH2 0x69A JUMPI PUSH2 0x699 PUSH2 0x987 JUMP JUMPDEST JUMPDEST PUSH2 0x6A6 DUP8 DUP3 DUP9 ADD PUSH2 0x482 JUMP JUMPDEST SWAP2 POP POP SWAP3 SWAP6 SWAP2 SWAP5 POP SWAP3 POP JUMP JUMPDEST PUSH2 0x6BB DUP2 PUSH2 0x85F JUMP JUMPDEST DUP3 MSTORE POP POP JUMP JUMPDEST PUSH1 0x0 PUSH2 0x6CC DUP3 PUSH2 0x838 JUMP JUMPDEST PUSH2 0x6D6 DUP2 DUP6 PUSH2 0x843 JUMP JUMPDEST SWAP4 POP PUSH2 0x6E6 DUP2 DUP6 PUSH1 0x20 DUP7 ADD PUSH2 0x884 JUMP JUMPDEST PUSH2 0x6EF DUP2 PUSH2 0x991 JUMP JUMPDEST DUP5 ADD SWAP2 POP POP SWAP3 SWAP2 POP POP JUMP JUMPDEST PUSH1 0x0 PUSH2 0x705 DUP3 PUSH2 0x838 JUMP JUMPDEST PUSH2 0x70F DUP2 DUP6 PUSH2 0x854 JUMP JUMPDEST SWAP4 POP PUSH2 0x71F DUP2 DUP6 PUSH1 0x20 DUP7 ADD PUSH2 0x884 JUMP JUMPDEST DUP1 DUP5 ADD SWAP2 POP POP SWAP3 SWAP2 POP POP JUMP JUMPDEST PUSH1 0x0 PUSH2 0x737 DUP3 DUP5 PUSH2 0x6FA JUMP JUMPDEST SWAP2 POP DUP2 SWAP1 POP SWAP3 SWAP2 POP POP JUMP JUMPDEST PUSH1 0x0 PUSH1 0x20 DUP3 ADD SWAP1 POP PUSH2 0x757 PUSH1 0x0 DUP4 ADD DUP5 PUSH2 0x6B2 JUMP JUMPDEST SWAP3 SWAP2 POP POP JUMP JUMPDEST PUSH1 0x0 PUSH1 0x20 DUP3 ADD SWAP1 POP DUP2 DUP2 SUB PUSH1 0x0 DUP4 ADD MSTORE PUSH2 0x777 DUP2 DUP5 PUSH2 0x6C1 JUMP JUMPDEST SWAP1 POP SWAP3 SWAP2 POP POP JUMP JUMPDEST PUSH1 0x0 PUSH1 0x40 DUP3 ADD SWAP1 POP DUP2 DUP2 SUB PUSH1 0x0 DUP4 ADD MSTORE PUSH2 0x799 DUP2 DUP6 PUSH2 0x6C1 JUMP JUMPDEST SWAP1 POP DUP2 DUP2 SUB PUSH1 0x20 DUP4 ADD MSTORE PUSH2 0x7AD DUP2 DUP5 PUSH2 0x6C1 JUMP JUMPDEST SWAP1 POP SWAP4 SWAP3 POP POP POP JUMP JUMPDEST PUSH1 0x0 PUSH2 0x7C0 PUSH2 0x7D1 JUMP JUMPDEST SWAP1 POP PUSH2 0x7CC DUP3 DUP3 PUSH2 0x8E9 JUMP JUMPDEST SWAP2 SWAP1 POP JUMP JUMPDEST PUSH1 0x0 PUSH1 0x40 MLOAD SWAP1 POP SWAP1 JUMP JUMPDEST PUSH1 0x0 PUSH8 0xFFFFFFFFFFFFFFFF DUP3 GT ISZERO PUSH2 0x7F6 JUMPI PUSH2 0x7F5 PUSH2 0x949 JUMP JUMPDEST JUMPDEST PUSH1 0x20 DUP3 MUL SWAP1 POP PUSH1 0x20 DUP2 ADD SWAP1 POP SWAP2 SWAP1 POP JUMP JUMPDEST PUSH1 0x0 PUSH8 0xFFFFFFFFFFFFFFFF DUP3 GT ISZERO PUSH2 0x822 JUMPI PUSH2 0x821 PUSH2 0x949 JUMP JUMPDEST JUMPDEST PUSH2 0x82B DUP3 PUSH2 0x991 JUMP JUMPDEST SWAP1 POP PUSH1 0x20 DUP2 ADD SWAP1 POP SWAP2 SWAP1 POP JUMP JUMPDEST PUSH1 0x0 DUP2 MLOAD SWAP1 POP SWAP2 SWAP1 POP JUMP JUMPDEST PUSH1 0x0 DUP3 DUP3 MSTORE PUSH1 0x20 DUP3 ADD SWAP1 POP SWAP3 SWAP2 POP POP JUMP JUMPDEST PUSH1 0x0 DUP2 SWAP1 POP SWAP3 SWAP2 POP POP JUMP JUMPDEST PUSH1 0x0 DUP2 ISZERO ISZERO SWAP1 POP SWAP2 SWAP1 POP JUMP JUMPDEST PUSH1 0x0 DUP2 SWAP1 POP SWAP2 SWAP1 POP JUMP JUMPDEST DUP3 DUP2 DUP4 CALLDATACOPY PUSH1 0x0 DUP4 DUP4 ADD MSTORE POP POP POP JUMP JUMPDEST PUSH1 0x0 JUMPDEST DUP4 DUP2 LT ISZERO PUSH2 0x8A2 JUMPI DUP1 DUP3 ADD MLOAD DUP2 DUP5 ADD MSTORE PUSH1 0x20 DUP2 ADD SWAP1 POP PUSH2 0x887 JUMP JUMPDEST DUP4 DUP2 GT ISZERO PUSH2 0x8B1 JUMPI PUSH1 0x0 DUP5 DUP5 ADD MSTORE JUMPDEST POP POP POP POP JUMP JUMPDEST PUSH1 0x0 PUSH1 0x2 DUP3 DIV SWAP1 POP PUSH1 0x1 DUP3 AND DUP1 PUSH2 0x8CF JUMPI PUSH1 0x7F DUP3 AND SWAP2 POP JUMPDEST PUSH1 0x20 DUP3 LT DUP2 EQ ISZERO PUSH2 0x8E3 JUMPI PUSH2 0x8E2 PUSH2 0x91A JUMP JUMPDEST JUMPDEST POP SWAP2 SWAP1 POP JUMP JUMPDEST PUSH2 0x8F2 DUP3 PUSH2 0x991 JUMP JUMPDEST DUP2 ADD DUP2 DUP2 LT PUSH8 0xFFFFFFFFFFFFFFFF DUP3 GT OR ISZERO PUSH2 0x911 JUMPI PUSH2 0x910 PUSH2 0x949 JUMP JUMPDEST JUMPDEST DUP1 PUSH1 0x40 MSTORE POP POP POP JUMP JUMPDEST PUSH32 0x4E487B7100000000000000000000000000000000000000000000000000000000 PUSH1 0x0 MSTORE PUSH1 0x22 PUSH1 0x4 MSTORE PUSH1 0x24 PUSH1 0x0 REVERT JUMPDEST PUSH32 0x4E487B7100000000000000000000000000000000000000000000000000000000 PUSH1 0x0 MSTORE PUSH1 0x41 PUSH1 0x4 MSTORE PUSH1 0x24 PUSH1 0x0 REVERT JUMPDEST PUSH1 0x0 DUP1 REVERT JUMPDEST PUSH1 0x0 DUP1 REVERT JUMPDEST PUSH1 0x0 DUP1 REVERT JUMPDEST PUSH1 0x0 DUP1 REVERT JUMPDEST PUSH1 0x0 DUP1 REVERT JUMPDEST PUSH1 0x0 PUSH1 0x1F NOT PUSH1 0x1F DUP4 ADD AND SWAP1 POP SWAP2 SWAP1 POP JUMP JUMPDEST PUSH2 0x9AB DUP2 PUSH2 0x86B JUMP JUMPDEST DUP2 EQ PUSH2 0x9B6 JUMPI PUSH1 0x0 DUP1 REVERT JUMPDEST POP JUMP INVALID LOG2 PUSH5 0x6970667358 0x22 SLT KECCAK256 SWAP13 JUMPI LOG3 0xAE 0xD6 SWAP5 PUSH2 0x87C3 SMOD 0x4F 0xD7 0xF9 CHAINID OR 0xBC EXTCODEHASH 0x22 0xB8 0x5D STOP 0xB2 DUP5 CALL SWAP9 AND JUMP PUSH14 0xB75917FE64736F6C634300080700 CALLER "
		},
		"gasEstimates": {
			"creation": {
				"codeDepositCost": "508600",
				"executionCost": "543",
				"totalCost": "509143"
			},
			"external": {
				"grantAccess(string,string,uint256,string[])": "infinite",
				"revokeAccess(string)": "infinite",
				"wasAccessGranted(string,uint256,string,string[])": "infinite"
			},
			"internal": {
				"getGrantedAccess(string memory,uint256,string memory,string memory[] memory)": "34"
			}
		},
		"methodIdentifiers": {
			"grantAccess(string,string,uint256,string[])": "110a6f50",
			"revokeAccess(string)": "fb310c59",
			"wasAccessGranted(string,uint256,string,string[])": "9a169258"
		}
	},
	"abi": [
		{
			"anonymous": false,
			"inputs": [
				{
					"indexed": false,
					"internalType": "string",
					"name": "_public_key",
					"type": "string"
				},
				{
					"indexed": false,
					"internalType": "string",
					"name": "_access_type",
					"type": "string"
				}
			],
			"name": "accessGranted",
			"type": "event"
		},
		{
			"anonymous": false,
			"inputs": [
				{
					"indexed": false,
					"internalType": "string",
					"name": "_public_key",
					"type": "string"
				}
			],
			"name": "accessRevoked",
			"type": "event"
		},
		{
			"anonymous": false,
			"inputs": [
				{
					"indexed": false,
					"internalType": "string",
					"name": "_public_key",
					"type": "string"
				}
			],
			"name": "verificationFailed",
			"type": "event"
		},
		{
			"anonymous": false,
			"inputs": [
				{
					"indexed": false,
					"internalType": "string",
					"name": "_public_key",
					"type": "string"
				}
			],
			"name": "verificationSuccess",
			"type": "event"
		},
		{
			"inputs": [
				{
					"internalType": "string",
					"name": "_public_key",
					"type": "string"
				},
				{
					"internalType": "string",
					"name": "_access_type",
					"type": "string"
				},
				{
					"internalType": "uint256",
					"name": "_patient_uuid",
					"type": "uint256"
				},
				{
					"internalType": "string[]",
					"name": "_actions",
					"type": "string[]"
				}
			],
			"name": "grantAccess",
			"outputs": [],
			"stateMutability": "nonpayable",
			"type": "function"
		},
		{
			"inputs": [
				{
					"internalType": "string",
					"name": "_public_key",
					"type": "string"
				}
			],
			"name": "revokeAccess",
			"outputs": [],
			"stateMutability": "nonpayable",
			"type": "function"
		},
		{
			"inputs": [
				{
					"internalType": "string",
					"name": "_public_key",
					"type": "string"
				},
				{
					"internalType": "uint256",
					"name": "_patient_uuid",
					"type": "uint256"
				},
				{
					"internalType": "string",
					"name": "_access_type",
					"type": "string"
				},
				{
					"internalType": "string[]",
					"name": "_actions",
					"type": "string[]"
				}
			],
			"name": "wasAccessGranted",
			"outputs": [
				{
					"internalType": "bool",
					"name": "",
					"type": "bool"
				}
			],
			"stateMutability": "nonpayable",
			"type": "function"
		}
	]
}