{
	"data": {
		"bytecode": {
			"linkReferences": {},
			"object": "608060405234801561001057600080fd5b50610104806100206000396000f3fe6080604052348015600f57600080fd5b5060043610603c5760003560e01c80634f9fda3314604157806383abe85c146049578063b2126fc9146061575b600080fd5b60476069565b005b605f6004803603810190605b91906083565b606b565b005b6067606e565b005b565b50565b565b600081359050607d8160ba565b92915050565b600060208284031215609657609560b5565b5b600060a2848285016070565b91505092915050565b6000819050919050565b600080fd5b60c18160ab565b811460cb57600080fd5b5056fea2646970667358221220e9f003bfc12cfb3c74d1edc6f066caf4af797fa891b4b5c405ff6c9ad08b37c764736f6c63430008070033",
			"opcodes": "PUSH1 0x80 PUSH1 0x40 MSTORE CALLVALUE DUP1 ISZERO PUSH2 0x10 JUMPI PUSH1 0x0 DUP1 REVERT JUMPDEST POP PUSH2 0x104 DUP1 PUSH2 0x20 PUSH1 0x0 CODECOPY PUSH1 0x0 RETURN INVALID PUSH1 0x80 PUSH1 0x40 MSTORE CALLVALUE DUP1 ISZERO PUSH1 0xF JUMPI PUSH1 0x0 DUP1 REVERT JUMPDEST POP PUSH1 0x4 CALLDATASIZE LT PUSH1 0x3C JUMPI PUSH1 0x0 CALLDATALOAD PUSH1 0xE0 SHR DUP1 PUSH4 0x4F9FDA33 EQ PUSH1 0x41 JUMPI DUP1 PUSH4 0x83ABE85C EQ PUSH1 0x49 JUMPI DUP1 PUSH4 0xB2126FC9 EQ PUSH1 0x61 JUMPI JUMPDEST PUSH1 0x0 DUP1 REVERT JUMPDEST PUSH1 0x47 PUSH1 0x69 JUMP JUMPDEST STOP JUMPDEST PUSH1 0x5F PUSH1 0x4 DUP1 CALLDATASIZE SUB DUP2 ADD SWAP1 PUSH1 0x5B SWAP2 SWAP1 PUSH1 0x83 JUMP JUMPDEST PUSH1 0x6B JUMP JUMPDEST STOP JUMPDEST PUSH1 0x67 PUSH1 0x6E JUMP JUMPDEST STOP JUMPDEST JUMP JUMPDEST POP JUMP JUMPDEST JUMP JUMPDEST PUSH1 0x0 DUP2 CALLDATALOAD SWAP1 POP PUSH1 0x7D DUP2 PUSH1 0xBA JUMP JUMPDEST SWAP3 SWAP2 POP POP JUMP JUMPDEST PUSH1 0x0 PUSH1 0x20 DUP3 DUP5 SUB SLT ISZERO PUSH1 0x96 JUMPI PUSH1 0x95 PUSH1 0xB5 JUMP JUMPDEST JUMPDEST PUSH1 0x0 PUSH1 0xA2 DUP5 DUP3 DUP6 ADD PUSH1 0x70 JUMP JUMPDEST SWAP2 POP POP SWAP3 SWAP2 POP POP JUMP JUMPDEST PUSH1 0x0 DUP2 SWAP1 POP SWAP2 SWAP1 POP JUMP JUMPDEST PUSH1 0x0 DUP1 REVERT JUMPDEST PUSH1 0xC1 DUP2 PUSH1 0xAB JUMP JUMPDEST DUP2 EQ PUSH1 0xCB JUMPI PUSH1 0x0 DUP1 REVERT JUMPDEST POP JUMP INVALID LOG2 PUSH5 0x6970667358 0x22 SLT KECCAK256 0xE9 CREATE SUB 0xBF 0xC1 0x2C 0xFB EXTCODECOPY PUSH21 0xD1EDC6F066CAF4AF797FA891B4B5C405FF6C9AD08B CALLDATACOPY 0xC7 PUSH5 0x736F6C6343 STOP ADDMOD SMOD STOP CALLER "
		},
		"gasEstimates": {
			"creation": {
				"codeDepositCost": "52000",
				"executionCost": "105",
				"totalCost": "52105"
			},
			"external": {
				"addExtraInfo()": "122",
				"changeExtraInfo()": "166",
				"deleteExtraInfo(uint256)": "406"
			}
		},
		"methodIdentifiers": {
			"addExtraInfo()": "4f9fda33",
			"changeExtraInfo()": "b2126fc9",
			"deleteExtraInfo(uint256)": "83abe85c"
		}
	},
	"abi": [
		{
			"inputs": [],
			"name": "addExtraInfo",
			"outputs": [],
			"stateMutability": "nonpayable",
			"type": "function"
		},
		{
			"inputs": [],
			"name": "changeExtraInfo",
			"outputs": [],
			"stateMutability": "nonpayable",
			"type": "function"
		},
		{
			"inputs": [
				{
					"internalType": "uint256",
					"name": "_emergency_uuid",
					"type": "uint256"
				}
			],
			"name": "deleteExtraInfo",
			"outputs": [],
			"stateMutability": "nonpayable",
			"type": "function"
		}
	]
}